:040000000EEF00F00F
:0400080081EF12F082
:0800180068EF13F02EEF14F065
:102500000000FAC402F5FBC403F5A8A08AEF12F09C
:102510008CEF12F0BDEF12F0B8A091EF12F093EF34
:1025200012F0BDEF12F074EC14F0000E196E090EEB
:1025300019649DEF12F09FEF12F0A1EF12F0F6EF89
:1025400012F0C3B2A6EF12F0A9EF12F0010EAAEF3B
:1025500012F0000EFF0A016E0146C3500118FD0B78
:102560000118C36EA30E016E550EE82EFED7012E84
:10257000FCD70000192A97EF12F09FA0C2EF12F0CB
:10258000C4EF12F0F6EF12F0AFA0C9EF12F0CBEFEC
:1025900012F0F6EF12F078EC14F0000E186E090E3F
:1025A0001864D5EF12F0D7EF12F0D9EF12F0F6EF72
:1025B00012F0C3B4DEEF12F0E1EF12F0010EE2EF21
:1025C00012F0000EFF0A016E01460146C3500118C9
:1025D000FB0B0118C36EA30E016E550EE82EFED73D
:1025E000012EFCD70000182ACFEF12F003C5FBF430
:1025F00002C5FAF41100000EBE6E000EBF6E000E92
:10260000C06E000EC16E000EC26E000EC36EC668B4
:10261000C768C868C9680F0ECA6EF90ECB6E040190
:102620000069F80E086F10691869070E206FF90E1F
:10263000286F000E016F070E096F000E116F000E5C
:10264000196F000E216F000E296F000E026F000E31
:102650000A6F000E126F000E1A6F000E226F000E2E
:102660002A6F03690B6913691B69070E236F2B69B6
:1026700004690C6914691C690F0E246F2C69000E23
:102680000201896F000E886F000E876F000E866F43
:10269000080E3E6F090E3F6F0A0E406F000E0401D8
:1026A000056F000E066F000E076F000E0D6F000E17
:1026B0000E6F000E0F6F000E156F000E166F000EDE
:1026C000176F000E256F000E266F000E276F120089
:1026D000D8C405F5FAC406F5FBC407F5A4A073EF4A
:1026E00013F075EF13F0B8EF13F0B4A07AEF13F016
:1026F0007CEF13F0B8EF13F070EC14F0000E176ECF
:10270000090E176486EF13F088EF13F08AEF13F0C9
:10271000B8EF13F0C3B28FEF13F092EF13F0010E86
:1027200093EF13F0000EFF0A046E0446C350041822
:10273000FD0B0418C36EC3B4A0EF13F0A3EF13F0A6
:10274000010EA4EF13F0000EFF0A046E04460446C7
:10275000C3500418FB0B0418C36EA30E046E550E71
:10276000E82EFED7042EFCD70000172A80EF13F0C6
:1027700007C5FBF406C5FAF405C5D8F41100D68ADE
:1027800003016C8163816891B890D694FA0E086E4B
:10279000280E096E000E0A6E5BEC14F0A880AF9054
:1027A000D690FC0E086E280E096E000E0A6E69ECBB
:1027B00014F09F80B490D692F80E086E280E096E21
:1027C000000E0A6E62EC14F0A48012000B500C1084
:1027D0000D10D8B4EEEF13F0F0EF13F0FDEF13F09F
:1027E00002D8FDEF13F00500FA6E0B50FD6E0C5091
:1027F000FE6E0D50FF6EFA501200120011501210B2
:102800001310D8B406EF14F008EF14F015EF14F01D
:1028100002D815EF14F00500FA6E1150FD6E12503B
:10282000FE6E1350FF6EFA50120012000E500F1081
:102830001010D8B41EEF14F020EF14F02DEF14F0A8
:1028400002D82DEF14F00500FA6E0E50FD6E0F50F9
:10285000FE6E1050FF6EFA5012001200196A186ACC
:10286000176A166A156A146A0401080E5D6F000E75
:102870005E6F000E5F6F00014CEF14F0620E0001FE
:10288000AD6F000EAF6F000EB36F020EB16F000E92
:10289000B06F000EAC6F120054EC14F0D68ED68CD4
:1028A00050EF14F00EEF00F03EEC14F0FBEC12F0E1
:1028B000BFEC13F0120008C511F509C512F50AC5E1
:1028C00013F5120008C50BF509C50CF50AC50DF581
:1028D000120008C50EF509C50FF50AC510F512005E
:1028E000B490E6EC13F01200B890FEEC13F0120076
:0E28F000AF9016EC14F012001200120012004D
:020000040030CA
:08000000FFFFF7FF9FFFFFFF68
:01000900FFF7
:00000001FF
