:040000000DEF00F010
:0400080054EF15F0AC
:06001800FF00D2EF16F01C
:1025000000DA2B000000000000002E310000000067
:10251000862E000000000000000000000000000007
:1025200000000000000000000000000000000000AB
:10253000000000000000000000000000008A2F00E2
:10254000682F00462F00000000622C0000000016DB
:102550002D000000000000000000000000005A2EC6
:1025600000AC2F000000005363616E6E6572206640
:10257000696E616C697A61646F005363616E657244
:1025800020493243200A0D00307825580A0D002DCD
:102590000A0D000011C5D9F412C5DAF4DFC4F6F44F
:1025A000250EF76E000EF86E0800F550250AD8A427
:1025B000DCEF12F0DEEF12F087EF13F011C5D9F463
:1025C00012C5DAF4DF2A000E506E000E4F6E4FC5B2
:1025D00055F55168526811C5D9F412C5DAF4DF50C7
:1025E0001C6E1CC5F6F4250EF76E000EF86E080082
:1025F000F550580AD8A4FFEF12F001EF13F080EF66
:1026000013F013C5D9F414C5DAF4DFC415F5020EBE
:10261000DE26DFC416F5000EDD2215C5D9F416C579
:10262000DAF4DEC417F5DDC418F51C2811C5D9F499
:1026300012C5DAF4DF6E72EF13F0200E1D6E175024
:102640000F0B1B6E0A0E1B6028EF13F02AEF13F01E
:102650002EEF13F0300E1B2630EF13F0370E1B2633
:102660001D06600E1D24D96EDA6A050EDA221BC51E
:10267000DFF4173A183A0F0E17161850F00B17120E
:102680000F0E181617501810D8B449EF13F04BEF6F
:1026900013F067EF13F01D50D8A451EF13F053EF70
:1026A00013F01FEF13F067EF13F0600E1D24D96EC7
:1026B000DA6A050EDA22DF50156E1550066E076ACB
:1026C0000FC508F510C509F5EFEC14F01D2A200E12
:1026D0001D18D8A46EEF13F070EF13F055EF13F040
:1026E0009DEF13F01CC5F6F4250EF76E000EF86E84
:1026F0000800F550580AD8B41DEF13F080EF13F01E
:1027000011C5D9F412C5DAF4DF2A9DEF13F011C513
:10271000D9F412C5DAF4DFC4F6F4250EF76E000E14
:10272000F86E0800F550066E076A0FC508F510C56B
:1027300009F5EFEC14F080EF13F01200000EBE6EFE
:10274000000EBF6E180EC06E000EC16E000EC26E7F
:10275000000EC36EC668C768E70EC86EC9680F0E64
:10276000CA6EFE0ECB6E040100690869E70E106F99
:102770001869070E206FFC0E286F000E016F000E07
:10278000096F180E116F000E196F000E216F000EE9
:10279000296F000E026F000E0A6F180E126F000EE6
:1027A0001A6F000E226F000E2A6F03690B691369FE
:1027B0001B69070E236F2B6904690C6914691C6976
:1027C0000F0E246F2C69000E0201896F000E886FB6
:1027D000000E876F010E866F290E726F200E296F13
:1027E000130E716F370E146F140E706F380E156F55
:1027F000000E0401056F000E066F000E076F000E3D
:102800000D6F000E0E6F000E0F6F000E156F000E95
:10281000166F000E176F000E256F000E266F000E4C
:10282000276F120030EC18F00009D8B41AEF14F03A
:102830001CEF14F024EF14F0030E396E0201979B85
:10284000F1EC16F06CEF14F03BEC18F00009D8B482
:102850002CEF14F02EEF14F040EF14F00FEC18F002
:102860000009D8B436EF14F038EF14F040EF14F04C
:10287000010E396E020197997FEC17F06CEF14F09E
:102880001AEC18F00009D8B448EF14F04AEF14F02D
:102890005AEF14F00FEC18F00009D8B452EF14F00E
:1028A00054EF14F05AEF14F0020E396E02019799AA
:1028B0003CEF14F025EC18F00009D8B462EF14F0E6
:1028C00064EF14F06AEF14F0030E396E0201979D65
:1028D0006CEF14F0020197993950D8B472EF14F0EC
:1028E00074EF14F081EF14F002D881EF14F00500BA
:1028F000FA6E4C50FD6E4D50FE6E4E50FF6EFA500B
:102900001200120004EC18F0F40E2A6E820E296EEA
:10291000050EE82EFED7292EFCD72A2EFAD7000066
:102920007A0E246E92EC17F0000E2B6E000E2C6EB9
:102930002CC505F5066A010E076E000E086E000E26
:102940000A6E010E096E4F0EF66E250EF76E000E22
:10295000F86E02D8B9EF14F00500FA6E0900F550D0
:10296000FD6E0900F550FE6E0900F550FF6EFA503D
:1029700012002B50D8A4BFEF14F0C1EF14F0C7EF32
:1029800014F08F0E246E92EC17F0D6EF14F02B0497
:10299000D8A4CDEF14F0CFEF14F0D6EF14F0880EDA
:1029A000246E2CC525F5266A92EC17F0150E296EBB
:1029B000C60EE82EFED7292EFCD700D02C2A7F0E7B
:1029C0002C64E5EF14F0E7EF14F098EF14F0670EC5
:1029D000246E92EC17F0EBEF14F00DEF00F00850BE
:1029E0000910D8B4F6EF14F0F8EF14F001EF15F079
:1029F00008500910D8A4FFEF14F001EF15F006EF0E
:102A000015F00650E7EC17F053EF15F020EE0AF042
:102A10000850D9260950DA22DE50DE10D8B413EF60
:102A200015F015EF15F030EF15F020EE0AF0085014
:102A3000D9260950DA2210EE03F00850E126095099
:102A4000E222DE50E65CE650800A0E6EDE50800A1E
:102A50000E58D8B02EEF15F030EF15F053EF15F0FB
:102A600020EE03F00850D9260950DA22DEC40AF518
:102A7000DDC40BF508C5D9F409C5DAF4DEC40CF5DC
:102A8000DDC40DF50A500C24D96E0B500D20DA6E02
:102A900006C5DFF420EE03F00850D9260950DA22EB
:102AA000DE2A000EDD221200FAC402F5FBC403F593
:102AB000A5A65DEF15F05FEF15F06AEF15F0B5A66E
:102AC00064EF15F066EF15F06AEF15F012EC14F0F4
:102AD000A0EF15F0A5A06FEF15F071EF15F07CEFEA
:102AE00015F0B5A076EF15F078EF15F07CEF15F046
:102AF0005AEC18F0A0EF15F0A5A481EF15F083EFC4
:102B000015F08EEF15F0B5A488EF15F08AEF15F0EB
:102B10008EEF15F0A5EC15F0A0EF15F0A5A293EF40
:102B200015F095EF15F0A0EF15F0B5A29AEF15F09E
:102B30009CEF15F0A0EF15F050EC18F0A0EF15F099
:102B400003C5FBF402C5FAF4110002019BA5ABEF2B
:102B500015F0ADEF15F0B8EF15F09AA5B2EF15F03E
:102B6000B4EF15F0B8EF15F058EC17F0ECEF15F0E6
:102B70009BAFBDEF15F0BFEF15F0DAEF15F09AAF90
:102B8000C4EF15F0C6EF15F0DAEF15F03850D8B4F1
:102B9000CCEF15F0CEEF15F0D6EF15F0000E386E35
:102BA0009A919A9F6CEC17F0ECEF15F07FEC17F010
:102BB000B4EF15F09BA3DFEF15F0E1EF15F0ECEFAC
:102BC00015F09AA3E6EF15F0E8EF15F0ECEF15F02D
:102BD000BFEC18F002019A931200000E0201A16FDF
:102BE000000EA26F000EA36F000EA46F000EA56F63
:102BF000000EA66F000EA76F000EA86F000EA96F43
:102C0000000EAA6FB00EAB6F800EAC6F080EAD6FEA
:102C10008A0EAE6F000EAF6F2E0EB06F000EB16F4A
:102C2000800EB26F000EB36F000E046E000E056EC4
:102C3000000E066EC5EC17F0000E046E000E056E59
:102C4000000E066EB4EC17F0000E046E000E056E5A
:102C5000000E066EA3EC17F0000E546E000E536EBD
:102C60001200040E0201946F800E956F080E966F8D
:102C7000030E9C6F000E9A6F000E9B6F000E976FF5
:102C8000000E8D6F510E876F510E866F46EC18F057
:102C900002019B919B95948F050EE82EFED70000B4
:102CA00000000000000000000000000002019A91F6
:102CB0009A959B819B858A0E046E310E056E000EDF
:102CC000066ED6EC17F0120020C523F576EF16F04D
:102CD0001EC50FF51FC510F5230E116E050E126EE1
:102CE00021C513F522C514F5CAEC12F023C5F6F47C
:102CF000250EF76E000EF86E0800F5500009D8A4F6
:102D000084EF16F086EF16F068EF16F0000E1F6ED7
:102D1000000E1E6E12002DEC17F00009D8A493EFE0
:102D200016F095EF16F0B1EF16F0010E2D6E05C5F9
:102D30002EF506C52FF5000E386E07C530F508C50F
:102D400031F509C532F50AC533F5000E346E000EB3
:102D5000356E000E376E000E366E000E396E10ECBA
:102D600017F01200D69AAF90D680000E046E000EB7
:102D7000056E000E066E86EC18F0B490D682000E3A
:102D8000046E000E056E000E066E7FEC18F0B89013
:102D9000D684000E046E000E056E000E066E78ECF2
:102DA00018F012008C0EF66E310EF76E000EF86EF3
:102DB0000900F5C456F501EE60F1200EEE6AE80652
:102DC000FDE101EE2DF1290EEE6AE806FDE10401B8
:102DD000080E5D6F000E5E6F000E5F6F000182EFE8
:102DE00014F0AFEC18F08DEC18F06EEC18F092ECDB
:102DF00018F00201949F64EC18F002019B919B95DE
:102E0000948F050EE82EFED70000000000000000A1
:102E100000000000000002019A919A959B85120023
:102E200032503310D8B417EF17F019EF17F026EF20
:102E300017F032509BEC18F03850D8B422EF17F04E
:102E400024EF17F026EF17F0B6EC18F02E502E24D2
:102E50009FEC18F0B3EC18F01200010E046E2D5028
:102E6000D8A435EF17F037EF17F041EF17F0020154
:102E700098AF3DEF17F03FEF17F041EF17F0000E5E
:102E8000046E04501200000E046E0201B0AB4BEF52
:102E900017F04DEF17F056EF17F0ABAB52EF17F0FE
:102EA00054EF17F056EF17F0010E046E04501200A5
:102EB000000E2D6E000E2F6E2E68000E306E000E6E
:102EC000316E000E346E000E356EAFEC18F08DECE6
:102ED00018F092EC18F0120036503710D8B473EF97
:102EE00017F075EF17F078EF17F03650A7EC18F0E1
:102EF000D8802E34A3EC18F0BCEC18F01200BFEC14
:102F000018F0C2EC18F00009D8B489EF17F08BEF75
:102F100017F091EF17F0000EA7EC18F0000EABECD5
:102F200018F01200250E276E050E286E000E1E6E7C
:102F3000000E1F6E24C520F5270E216E050E226E91
:102F400064EC16F01200045005100610D8B4ABEF74
:102F500017F0ADEF17F0B3EF17F004C53AF505C55C
:102F60003BF506C53CF51200045005100610D8B418
:102F7000BCEF17F0BEEF17F0C4EF17F004C53DF536
:102F800005C53EF506C53FF51200045005100610B4
:102F9000D8B4CDEF17F0CFEF17F0D5EF17F004C589
:102FA00040F505C541F506C542F51200045005106F
:102FB0000610D8B4DEEF17F0E0EF17F0E6EF17F0E9
:102FC00004C54CF505C54DF506C54EF51200056E58
:102FD00043EC17F00009D8B4F0EF17F0F2EF17F058
:102FE000E8EF17F0055097EC18F01200600E0001A2
:102FF000AD6F000EAF6F000EB36F080EB16F000E15
:10300000B06F000EAC6F1200F6EC17F09EEC13F0F0
:1030100031EC16F0EDEC15F0B2EC16F012000201F6
:1030200095BB15EF18F018EF18F0010E19EF18F016
:10303000000E1200020198B720EF18F023EF18F0ED
:10304000010E24EF18F0000E1200020197BD2BEFC5
:1030500018F02EEF18F0010E2FEF18F0000E1200EE
:10306000020197BB36EF18F039EF18F0010E3AEF76
:1030700018F0000E1200020198A741EF18F044EF7B
:1030800018F0010E45EF18F0000E1200A584A58679
:10309000A580A58202019B859B839B8F978112004F
:1030A00030C5D9F431C5DAF4304A312ADF50ABECFF
:1030B00018F01200B9EC18F034C5D9F435C5DAF4BB
:1030C000DF6E344A352A1200A584A586A580A58224
:1030D00002019B859B839B8F97811200A594A596E7
:1030E000A590A592000E02019B6F000E976F120033
:1030F00004C543F505C544F506C545F5120004C5EC
:1031000046F505C547F506C548F5120004C549F55D
:1031100005C54AF506C54BF512000201979B979D20
:1031200097991200000E0201996F99851200046EA2
:1031300004C5A3F21200046E04C58DF21200046EE1
:1031400004C58FF21200016E01C58FF21200016EEC
:1031500001C58DF21200016E01C58CF21200000E45
:1031600002019A6F12000201948B12000201948DE9
:10317000120002018B5112000201948B1200020115
:0D318000949D120002018D511200120049B1
:020000040030CA
:08000000FFFFF7FF9FFFFFFF68
:01000900FFF7
:00000001FF
