:04000000FEEFFFF020
:1025000000CA2F000000000000007C37000000001F
:102510000635000000000000000000000000000080
:1025200000000000000000000000000000000000AB
:10253000000000000000000000000000000E360057
:10254000EC3500CA350000000018320000000070B1
:1025500032000000000000000000005C3700DA34A8
:10256000003036007C2500434C415345204932431E
:102570000043746E3A00253034750000020197B9AB
:10258000C4EF12F0C6EF12F0D4EF12F097BBCBEF0E
:1025900012F0CDEF12F0D4EF12F097ADD2EF12F0AF
:1025A000D4EF12F04AEF13F083EC1BF00009D8B41B
:1025B000DCEF12F0DEEF12F0E6EF12F0030E5A6ECF
:1025C0000201979B56EC1AF030EF13F08EEC1BF0E3
:1025D0000009D8B4EEEF12F0F0EF12F002EF13F0B2
:1025E00062EC1BF00009D8B4F8EF12F0FAEF12F029
:1025F00002EF13F0010E5A6E02019799BFEC1AF028
:1026000030EF13F06DEC1BF00009D8B40AEF13F0B3
:102610000CEF13F01CEF13F062EC1BF00009D8B4C0
:1026200014EF13F016EF13F01CEF13F0020E5A6EB6
:1026300002019799FEEF12F078EC1BF00009D8B474
:1026400024EF13F026EF13F02EEF13F0030E5A6E63
:102650000201979D98EC1AF030EF13F00201979960
:102660005A50D8B436EF13F038EF13F0C5EF13F02B
:1026700002D846EF13F00500FA6E05016051FD6EB9
:102680006151FE6E6251FF6EFA501200C5EF13F0F9
:10269000C5EF13F09AB54FEF13F051EF13F05FEF62
:1026A00013F09ABF56EF13F058EF13F05FEF13F0EB
:1026B0009AA35DEF13F05FEF13F0A3EF13F0B5A053
:1026C00064EF13F066EF13F06FEF13F0DEEC1BF026
:1026D00055C5D9F456C5DAF4DF6E554A562A0201BB
:1026E0009AA575EF13F077EF13F07BEF13F098ECEA
:1026F0001AF0C5EF13F09AAF80EF13F082EF13F0EA
:1027000096EF13F05950D8B488EF13F08AEF13F016
:1027100092EF13F0000E596E9A919A9FD2EC1AF034
:10272000C5EF13F0BFEC1AF077EF13F09AA39BEF0D
:1027300013F09DEF13F048EF13F0D5EC1BF00201FE
:102740009A93C5EF13F0B5A0A8EF13F0AAEF13F01A
:10275000B5EF13F0DEEC1BF055C5D9F456C5DAF42D
:10276000DF6E554A562AC5EF13F0B5A2BAEF13F043
:10277000BCEF13F0C5EF13F051C5D9F452C5DAF42C
:10278000514A522ADF50C2EC1BF0120027C5D9F47F
:1027900028C5DAF4DFC4F6F4250EF76E000EF86EE5
:1027A0000800F550250AD8A4D8EF13F0DAEF13F09B
:1027B00080EF14F027C5D9F428C5DAF4DF2A000E1B
:1027C0000501766F000E756F75C55DF577697869DF
:1027D000000E316E0AEF14F05D8227C5D9F428C5CA
:1027E000DAF4DF2A0AEF14F0010E316E0AEF14F06A
:1027F00027C5D9F428C5DAF4DFC4F6F4250EF76E40
:10280000000EF86E0800F550300AD8B4ECEF13F063
:10281000F4EF13F03150D8B410EF14F012EF14F0BD
:10282000F8EF13F027C507F528C508F529C509F500
:102830002AC50AF5D2EC16F007C575F508C576F578
:10284000050176BF28EF14F026EF14F02DEF14F0F9
:102850005D80756D761FD8B0762B27C5D9F428C555
:10286000DAF4DF50326E32C5F6F4250EF76E000E44
:10287000F86E0800F550750AD8A441EF14F043EF44
:1028800014F079EF14F029C5D9F42AC5DAF4DFC4BD
:102890002BF5020EDE26DFC42CF5000EDD222BC543
:1028A000D9F42CC5DAF4DEC42DF5DDC42EF53228BA
:1028B00027C5D9F428C5DAF4DF6E6BEF14F025C50F
:1028C0001CF526C51DF52DC51EF52EC51FF51EECE4
:1028D00015F096EF14F032C5F6F4250EF76E000EE3
:1028E000F86E0800F550750AD8B45FEF14F079EF70
:1028F00014F027C5D9F428C5DAF4DF2A96EF14F0CE
:1029000027C5D9F428C5DAF4DFC4F6F4250EF76E2E
:10291000000EF86E0800F550036E046A25C505F533
:1029200026C506F509EC16F079EF14F012000D6ECD
:102930000DC502F5036A09C504F50AC505F50BC501
:1029400006F50CC507F54F0EF66E250EF76E000E58
:10295000F86E02D8B9EF14F00500FA6E0900F550D0
:10296000FD6E0900F550FE6E0900F550FF6EFA503D
:1029700012000009D8B4BFEF14F0C1EF14F01DEF3E
:1029800015F0D9EF14F0640EF66E250EF76E000EFA
:10299000F86E02D8D9EF14F00500FA6E0900F55070
:1029A000FD6E0900F550FE6E0900F550FF6EFA50FD
:1029B00012005E0EF66E250EF76E000EF86E02D84F
:1029C000EFEF14F00500FA6E0900F550FD6E0900F6
:1029D000F550FE6E0900F550FF6EFA501200000926
:1029E000D8A4F5EF14F0F7EF14F0C3EF14F05B0E7A
:1029F000F66E250EF76E000EF86E02D80DEF15F08C
:102A00000500FA6E0900F550FD6E0900F550FE6EE6
:102A10000900F550FF6EFA5012005E6E5E50D8A4A9
:102A200014EF15F016EF15F01BEF15F0000E050171
:102A3000A16F1DEF15F05EC5A1F51200010E206E0D
:102A400075C521F576C522F5000E246E1F0E236E86
:102A5000000E05019A6F56EF15F02306D8A0240644
:102A60007B0E2324D96E050E2420DA6E1EC501F5D7
:102A70001FC502F5000E046E0A0E036EA9EC18F0D5
:102A80000150300FDF6E000E206E2106D8A0220606
:102A90001EC501F51FC502F5000E046E0A0E036E79
:102AA0006FEC18F001C51EF502C51FF52350241068
:102AB000D8B45DEF15F05FEF15F084EF15F01E5000
:102AC0001F10D8A466EF15F068EF15F02DEF15F084
:102AD0002050D8A46EEF15F070EF15F02DEF15F023
:102AE00022BE7BEF15F0225008E12104D8A07BEF35
:102AF00015F07DEF15F084EF15F05DB282EF15F063
:102B000084EF15F02DEF15F01CC513F51DC514F558
:102B10007B0E2324156E050E2420166E21C517F595
:102B200022C518F596EC17F01200000EBE6E000ECE
:102B3000BF6E180EC06E000EC16E000EC26E000E8B
:102B4000C36EC668C768E70EC86EC9680F0ECA6E46
:102B5000F60ECB6E040100690869E70E106F186964
:102B6000070E206FF40E286F000E016F000E096F24
:102B7000000E116F000E196F000E216F000E296FED
:102B8000000E026F000E0A6F180E126F000E1A6F01
:102B9000000E226F000E2A6F03690B6913691B690F
:102BA000070E236F2B6904690C6914691C690F0EE9
:102BB000246F2C69000E0201896F000E886F000ED1
:102BC000876F000E866F290E726F200E296F130E0D
:102BD000716F370E146F140E706F380E156F000E74
:102BE0000401056F000E066F000E076F000E0D6FDB
:102BF000000E0E6F000E0F6F000E156F000E166F99
:102C0000000E176F000E256F000E266F000E276F47
:102C1000120005500610D8B410EF16F012EF16F09F
:102C20001BEF16F005500610D8A419EF16F01BEF95
:102C300016F020EF16F003503AEC1BF06DEF16F093
:102C400020EE0AF00550D9260650DA22DE50DE10BA
:102C5000D8B42DEF16F02FEF16F04AEF16F020EE55
:102C60000AF00550D9260650DA2210EE03F005507E
:102C7000E1260650E222DE50E65CE650800A0B6E4A
:102C8000DE50800A0B58D8B048EF16F04AEF16F025
:102C90006DEF16F020EE03F00550D9260650DA222B
:102CA000DEC407F5DDC408F505C5D9F406C5DAF4B8
:102CB000DEC409F5DDC40AF507500924D96E0850B1
:102CC0000A20DA6E03C5DFF420EE03F00550D926A2
:102CD0000650DA22DE2A000EDD22120057EC1BF02D
:102CE0002AEC18F0000E126E000E35EC17F0670E8D
:102CF000156E1550D8A4250E166EDBEC18F0000EDC
:102D00005C6E000E5B6E9B0E396E050E3A6E760E93
:102D10003B6E5BC53CF55CC53DF5B2EC19F0010EB0
:102D2000126E000E35EC17F0710E156E1550D8A40A
:102D3000250E166EDBEC18F09B0E156E050E166E4A
:102D4000DBEC18F0290E4D6E960E4C6E7F0EE82EC1
:102D5000FED74C2EFCD74D2EFAD70000C3B6B3EFEA
:102D600016F0B6EF16F0010EB7EF16F0000EFF0AE0
:102D70004C6E4C464C464C46C3504C18F70B4C1806
:102D8000C36E5B4A5C2AE80E5B5C030E5C58D8A0FD
:102D9000CCEF16F0CEEF16F083EF16F07FEF16F0C3
:102DA000FEEFFFF0000E0F6E000E0E6E07C5D9F499
:102DB00008C5DAF4DFC4F6F4250EF76E000EF86EDF
:102DC0000800F5502A0AD8A4E8EF16F0EAEF16F04A
:102DD0001AEF17F007C5D9F408C5DAF4DF2A09C5D8
:102DE000D9F40AC5DAF4DFC40BF5020EDE26DFC41F
:102DF0000CF5000EDD220BC5D9F40CC5DAF4DEC4E7
:102E00000EF5DDC40FF530EF17F00EC501F50FC557
:102E100002F5000E046E0A0E036EACEC1AF00D50B3
:102E200001240E6E000E02200F6E07C5D9F408C5EE
:102E3000DAF4DF2A07C5D9F408C5DAF4DFC4F6F4FA
:102E4000250EF76E000EF86E0800F550D00F0D6ECF
:102E5000090E0D642EEF17F030EF17F005EF17F0A5
:102E60000EC507F50FC508F51200186E78EF17F0BC
:102E70001850800F166E1850136E146A800E1326A9
:102E8000000E1422040E156E143414321332152E53
:102E900044EF17F01350176E000E0E6E17508BECA8
:102EA00019F0000E0E6E16508BEC19F095EF17F01E
:102EB0001850C00F166E1850136E146AC00E1326E9
:102EC000000E1422040E156E143414321332152E13
:102ED00064EF17F01350176E000E0E6E17508BEC48
:102EE00019F0000E0E6E16508BEC19F095EF17F0DE
:102EF0001250136E146A1450000AD8B482EF17F0FF
:102F000095EF17F01350000AD8B438EF17F0010A04
:102F1000D8B458EF17F0030AD8B495EF17F0010AA8
:102F2000D8B495EF17F095EF17F012005DA09BEF66
:102F300017F09DEF17F0A7EF17F015C50CF516C5A4
:102F40000DF513C50EF514C50FF5D6EC19F018BE26
:102F5000AEEF17F0ACEF17F0B2EF17F0000E186EEF
:102F6000000E176E000E1B6E000E1A6EC4EF17F0E7
:102F7000000E046E200E036E13C505F514C506F58C
:102F800009EC16F01A4A1B2A17501A5C1B50800ACB
:102F9000196E1850800A1958D8A0D1EF17F0D3EF46
:102FA00017F0B8EF17F05DB0D8EF17F0DAEF17F0C1
:102FB000E4EF17F015C50CF516C50DF513C50EF5A4
:102FC00014C50FF5D6EC19F01200000E0201A16F26
:102FD000000EA26F000EA36F000EA46F000EA56F6F
:102FE000000EA66F000EA76F000EA86F000EA96F4F
:102FF000000EAA6FB00EAB6F800EAC6F080EAD6FF7
:103000008A0EAE6F000EAF6F2E0EB06F000EB16F56
:10301000800EB26F000EB36F000E016E000E026ED6
:10302000000E036E07EC1BF0000E016E000E026E28
:10303000000E036EF6EC1AF0000E016E000E026E2A
:10304000000E036EE5EC1AF0000E05017A6F000E1B
:10305000796F1200000E0E6E030E8BEC19F03F0E0E
:10306000126E550EE82EFED7122EFCD70000000E71
:103070000E6E030E8BEC19F0000E0E6E030E8BEC31
:1030800019F0000E0E6E020E8BEC19F0000E0E6E93
:10309000020E8BEC19F0000E0E6E080E8BEC19F080
:1030A000000E0E6E000E8BEC19F0000E0E6E080E68
:1030B0008BEC19F0000E0E6E000E8BEC19F0000E6A
:1030C0000E6E010E8BEC19F0000E0E6E000E8BECE6
:1030D00019F0000E0E6E0D0E8BEC19F01200000EA2
:1030E000066E000E056E03500410D8B47AEF18F087
:1030F0007CEF18F0A4EF18F0010E076E84EF18F0C3
:10310000D89003360436072A04AE89EF18F08BEF07
:1031100018F080EF18F0D890053606360350015CA1
:1031200004500258D8A097EF18F099EF18F09EEFCE
:1031300018F00350015E0450025A0580D890043202
:103140000332072E8BEF18F005C501F506C502F511
:10315000120003500410D8B4B0EF18F0B2EF18F01A
:10316000D6EF18F0010E056EBAEF18F0D8900336BE
:103170000436052A04AEBFEF18F0C1EF18F0B6EF21
:1031800018F00350015C04500258D8A0CAEF18F0A0
:10319000CCEF18F0D0EF18F00350015E0450025A43
:1031A000D89004320332052EC1EF18F001C501F5A5
:1031B00002C502F51200F2EF18F015C5F6F416C5B7
:1031C000F7F4000EF86E240EF76403D00800F550F3
:1031D00005D0F6C4E9F4F7C4EAF4EF5029EC1BF08B
:1031E000154A162A15C5F6F416C5F7F4000EF86E42
:1031F000240EF76403D00800F55005D0F6C4E9F4B6
:10320000F7C4EAF4EF500009D8A409EF19F00BEF66
:1032100019F0DDEF18F01200040E0201946F800E19
:10322000956F080E966F030E9C6F000E9A6F000E3E
:103230009B6F000E976F000E8D6F510E876F510EB2
:10324000866F948F050EE82EFED700000000000068
:10325000000000000000000002019A919A95C20E41
:10326000016E370E026E000E036E18EC1BF012009A
:10327000000E086E6DEC1AF00009D8A442EF19F0A8
:1032800044EF19F062EF19F0010E4E6E02C54FF5D2
:1032900003C550F5000E596E04C551F505C552F52C
:1032A00006C553F507C554F5000E556E000E566E53
:1032B000000E586E000E576E000E5A6E39EC1AF062
:1032C000010E086E0850120035C538F576EF19F07A
:1032D00033C525F534C526F5380E276E050E286E44
:1032E00036C529F537C52AF5C6EC13F038C5F6F40E
:1032F000250EF76E000EF86E0800F5500009D8A4F0
:1033000084EF19F086EF19F068EF19F0000E346EB3
:10331000000E336E1200106E1038F00B116E0E504E
:10332000111211841186110E096E050E0A6E000E1F
:103330000C6E010E0B6E270E97EC14F02A0E0F6E1A
:103340008E0EE82EFED70F2EFCD71194110E096EAB
:10335000050E0A6E000E0C6E010E0B6E270E97EC1A
:1033600014F012003C0E3E6E050E3F6E39C540F55E
:103370003AC541F5000E446E000E436E000E4B6ED2
:10338000000E4A6E400E336E050E346E3BC535F5A9
:103390003E0E366E050E376E64EC19F0435039243C
:1033A000D96E44503A20DA6EDF6A1200000E126EB7
:1033B000000E116EE7EF19F010C503F5046A0EC593
:1033C00005F50FC506F509EC16F0114A122A115041
:1033D0000C24D96E12500D20DA6EDF50106E105092
:1033E000D8A4F5EF19F0F7EF19F0DCEF19F012009F
:1033F000C50EF66E370EF76E000EF86E0900F5C4B6
:10340000A1F5C40EF66E370EF76E000EF86E0900C9
:10341000F5C45FF501EE60F1410EEE6AE806FDE1EC
:1034200001EE4EF1110EEE6AE806FDE100016EEFCD
:1034300016F0D69AAF90D680000E016E000E026E86
:10344000000E036EA7EC1BF0B490D682000E016E46
:10345000000E026E000E036EA0EC1BF0B890D68436
:10346000000E016E000E026E000E036E99EC1BF052
:10347000120053505410D8B440EF1AF042EF1AF033
:103480004FEF1AF05350C6EC1BF05950D8B44BEF25
:103490001AF04DEF1AF04FEF1AF0D2EC1BF04F502C
:1034A0004F24CAEC1BF0DBEC1BF01200CEEC1BF03F
:1034B000B4EC1BF0B9EC1BF00201949F948F050E45
:1034C000E82EFED700000000000000000000000011
:1034D000000002019A919A951200010E016E4E5061
:1034E000D8A475EF1AF077EF1AF081EF1AF0020105
:1034F00098AF7DEF1AF07FEF1AF081EF1AF0000E0F
:10350000016E01501200000E016E0201B0AB8BEF94
:103510001AF08DEF1AF096EF1AF0ABAB92EF1AF0AB
:1035200094EF1AF096EF1AF0010E016E015012009E
:10353000000E4E6E000E506E4F68000E516E000E63
:10354000526E000E556E000E566ECEEC1BF0B4ECB3
:103550001BF0B9EC1BF0120001500302F3C405F597
:10356000F4C406F501500402F3500626025003028B
:10357000F350062605C501F506C502F51200D5EC87
:103580001BF0D8EC1BF00009D8B4C9EF1AF0CBEF50
:103590001AF0D1EF1AF0000EC6EC1BF0000EC2ECD0
:1035A0001BF0120057505810D8B4D9EF1AF0DBEFC7
:1035B0001AF0DEEF1AF05750C6EC1BF0D8804F34EB
:1035C000CAEC1BF0DBEC1BF01200015002100310E0
:1035D000D8B4EDEF1AF0EFEF1AF0F5EF1AF001C5DD
:1035E0006CF502C56DF503C56EF5120001500210B1
:1035F0000310D8B4FEEF1AF000EF1BF006EF1BF03B
:1036000001C56FF502C570F503C571F512000150D3
:1036100002100310D8B40FEF1BF011EF1BF017EFDF
:103620001BF001C572F502C573F503C574F51200F0
:10363000015002100310D8B420EF1BF022EF1BF052
:1036400028EF1BF001C560F502C561F503C562F501
:103650001200146E14380F0B126E14C513F5010E00
:103660000E6E12508BEC19F0010E0E6E13508BEC97
:1036700019F01200026E83EC1AF00009D8B443EF7F
:103680001BF045EF1BF03BEF1BF00250BEEC1BF0B4
:103690001200600E0001AD6F000EAF6F000EB36F31
:1036A000080EB16F000EB06F000EAC6F120049EC47
:1036B0001BF095EC15F00CEC19F0E5EC17F019EC9B
:1036C0001AF01200020195BB68EF1BF06BEF1BF0C4
:1036D000010E6CEF1BF0000E1200020198B773EFA1
:1036E0001BF076EF1BF0010E77EF1BF0000E1200BF
:1036F000020197BD7EEF1BF081EF1BF0010E82EF00
:103700001BF0000E1200020197BB89EF1BF08CEF3B
:103710001BF0010E8DEF1BF0000E1200020198A7A6
:1037200094EF1BF097EF1BF0010E98EF1BF0000ECB
:10373000120001C563F502C564F503C565F5120005
:1037400001C566F502C567F503C568F5120001C538
:1037500069F502C56AF503C56BF512005AC501F596
:10376000000E5A6E015012000201979B979D979987
:103770001200000E0201996F99851200016E01C5B9
:10378000A3F21200016E01C58CF21200016E01C598
:103790008DF21200016E01C58FF21200000E0201BF
:1037A0009A6F12000201948D12000201949D120082
:1037B00002018D5112000201948B120002018B5103
:0637C00012001200490195
:020000040001F9
:04FFFC00F8EF19F011
:020000040030CA
:08000000FFFFF7FF9FFFFFFF68
:01000900FFF7
:00000001FF
