:04000000FEEFFFF020
:10250000002827000000000000001C2B0000000035
:102510007A29000000000000000000000000000018
:1025200000000000000000000000000000000000AB
:10253000000000000000000000000000000A2A0067
:10254000E82900C6290000000098280000000000CB
:10255000000000000000000000000000000000007B
:10256000002C2A00000000693263206578616D70DC
:102570006C650A0D0000000EBE6E000EBF6E300EC0
:10258000C06E000EC16E000EC26E000EC36EC66835
:10259000C768CF0EC86EC9680F0ECA6EF60ECB6E36
:1025A000040100690869CF0E106F1869070E206FCB
:1025B000F40E286F000E016F000E096F000E116FF0
:1025C000000E196F000E216F000E296F000E026FB2
:1025D000000E0A6F300E126F000E1A6F000E226F7F
:1025E000000E2A6F03690B6913691B69070E236FBD
:1025F0002B6904690C6914691C690F0E246F2C691E
:10260000000E0201896F000E886F000E876F000EAA
:10261000866F290E726F200E296F150E716F370E9F
:10262000166F140E706F380E156F000E0401056FD3
:10263000000E066F000E076F000E0D6F000E0E6F7E
:10264000000E0F6F000E156F000E166F000E176F45
:10265000000E256F000E266F000E276F12002E5001
:102660002F10D8B436EF13F038EF13F041EF13F01A
:102670002E502F10D8A43FEF13F041EF13F046EF88
:1026800013F02C5036EC15F093EF13F020EE0AF017
:102690002E50D9262F50DA22DE50DE10D8B453EF58
:1026A00013F055EF13F070EF13F020EE0AF02E50F8
:1026B000D9262F50DA2210EE03F02E50E1262F50AB
:1026C000E222DE50E65CE650800A346EDE50800A7C
:1026D0003458D8B06EEF13F070EF13F093EF13F09F
:1026E00020EE03F02E50D9262F50DA22DEC430F52A
:1026F000DDC431F52EC5D9F42FC5DAF4DEC432F5C8
:10270000DDC433F530503224D96E31503320DA6EC7
:102710002CC5DFF420EE03F02E50D9262F50DA22FC
:10272000DE2A000EDD221200000E0201A16F000E53
:10273000A26F000EA36F000EA46F000EA56F000E17
:10274000A66F000EA76F000EA86F000EA96F000EF7
:10275000AA6FB00EAB6F800EAC6F080EAD6F8A0E15
:10276000AE6F000EAF6F2E0EB06F000EB16F800E09
:10277000B26F000EB36F000E2A6E000E2B6E000EAD
:102780002C6E05EC15F0000E2A6E000E2B6E000E5E
:102790002C6EF4EC14F0000E2A6E000E2B6E000E60
:1027A0002C6EE3EC14F0000E286E000E276E120063
:1027B00037C5D9F438C5DAF4DFC4F6F4250EF76E60
:1027C000000EF86E0800F550250AD8A4EAEF13F0C1
:1027D000ECEF13F000EF14F037C5D9F438C5DAF494
:1027E000DF2A000E246E000E236E23C529F525680E
:1027F000266837C5D9F438C5DAF4DF2A16EF14F0A5
:1028000037C5D9F438C5DAF4DFC4F6F4250EF76E0F
:10281000000EF86E0800F5502C6E2D6A35C52EF5A9
:1028200036C52FF52FEC13F0F9EF13F0120062EC20
:1028300015F0670E416ED2EC14F096EC15F0000E18
:102840002A6E270E82EC15F0F00E45EC15F088ECA0
:1028500015F0C3B62EEF14F031EF14F0010E32EF85
:1028600014F0000EFF0A446E444644464446C350EA
:102870004418F70B4418C36E290E456E960E446E2D
:102880007F0EE82EFED7442EFCD7452EFAD7000047
:1028900019EF14F0FEEFFFF0040E0201946F800EAA
:1028A000956F080E966F030E9C6F000E9A6F000EC8
:1028B0009B6F000E976F000E8D6F510E866F948F79
:1028C000050EE82EFED7000000000000000000000A
:1028D0000000000002019A919A95000E2A6E000EE7
:1028E0002B6E000E2C6E16EC15F012003DC540F557
:1028F00088EF14F03BC535F53CC536F5400E376E14
:10290000050E386E3EC539F53FC53AF5D8EC13F0E3
:1029100040C5F6F4250EF76E000EF86E0800F5506F
:102920000009D8A496EF14F098EF14F07AEF14F0A1
:10293000000E3C6E000E3B6E1200D69AAF90D68011
:10294000000E2A6E000E2B6E000E2C6E7BEC15F026
:10295000B490D682000E2A6E000E2B6E000E2C6EE6
:1029600074EC15F0B890D684000E2A6E000E2B6E13
:10297000000E2C6E6DEC15F01200000E2A6E020196
:10298000B0ABC5EF14F0C7EF14F0D0EF14F0ABAB61
:10299000CCEF14F0CEEF14F0D0EF14F0010E2A6E4D
:1029A0002A501200420E426E050E436E000E3B6E20
:1029B000000E3C6E41C53DF5420E3E6E050E3F6E6B
:1029C00076EC14F012002A502B102C10D8B4EBEF38
:1029D00014F0EDEF14F0F3EF14F02AC51AF52BC53F
:1029E0001BF52CC51CF512002A502B102C10D8B446
:1029F000FCEF14F0FEEF14F004EF15F02AC51DF5FE
:102A00002BC51EF52CC51FF512002A502B102C10BB
:102A1000D8B40DEF15F00FEF15F015EF15F02AC52E
:102A200020F52BC521F52CC522F512002A502B10BC
:102A30002C10D8B41EEF15F020EF15F026EF15F08E
:102A40002AC50EF52BC50FF52CC510F5120001EEA9
:102A500060F1200EEE6AE806FDE101EE01F1290EBB
:102A6000EE6AE806FDE1000117EF14F02B6EBDECF5
:102A700014F00009D8B43FEF15F041EF15F037EF2F
:102A800015F02B508EEC15F012002B6E010E92EC0F
:102A900015F02BC58CF2020199BB51EF15F053EFE5
:102AA00015F04BEF15F01200600E0001AD6F000E37
:102AB000AF6F000EB36F080EB16F000EB06F000E57
:102AC000AC6F120054EC15F0BBEC12F04CEC14F0AF
:102AD00094EC13F09DEC14F012002AC511F52BC5EF
:102AE00012F52CC513F512002AC514F52BC515F5E2
:102AF0002CC516F512002AC517F52BC518F52CC5DF
:102B000019F512002B6E2B502B2402018F6F12002F
:102B10000201949D000E92EC15F012002A6E2AC557
:102B2000A3F212002A6E2AC58DF212000201948DC2
:042B3000948B120070
:020000040001F9
:04FFFC0027EF15F0E6
:020000040030CA
:08000000FFFFF7FF9FFFFFFF68
:01000900FFF7
:00000001FF
