:040000000DEF00F010
:040008006EEF13F094
:06001800FF004AEF15F0A5
:10250000000E2800000000CC2800000000000000A1
:10251000000000000000D22900722A000000000024
:1025200089EC15F00009D8B498EF12F09AEF12F088
:10253000A2EF12F0030E0D6E0201979BADEC14F0AA
:10254000EAEF12F094EC15F00009D8B4AAEF12F0FB
:10255000ACEF12F0BEEF12F068EC15F00009D8B441
:10256000B4EF12F0B6EF12F0BEEF12F0010E0D6EE6
:102570000201979926EC15F0EAEF12F073EC15F0D2
:102580000009D8B4C6EF12F0C8EF12F0D8EF12F07D
:1025900068EC15F00009D8B4D0EF12F0D2EF12F0C9
:1025A000D8EF12F0020E0D6E02019799BAEF12F0F9
:1025B0007EEC15F00009D8B4E0EF12F0E2EF12F073
:1025C000E8EF12F0030E0D6E0201979DEAEF12F094
:1025D000020197990D50D8B4F0EF12F0F2EF12F01B
:1025E000FFEF12F002D8FFEF12F00500FA6E0E5066
:1025F000FD6E0F50FE6E1050FF6EFA50120012006A
:10260000000EBE6E000EBF6E180EC06E000EC16EC4
:10261000000EC26E000EC36EC668C768E70EC86EB5
:10262000C9680F0ECA6ECB68040100690869E70E1D
:10263000106F1869070E206F2869000E016F000ED9
:10264000096F000E116F000E196F000E216F000E42
:10265000296F000E026F000E0A6F180E126F000E27
:102660001A6F000E226F000E2A6F03690B6913693F
:102670001B69070E236F2B6904690C6914691C69B7
:102680000F0E246F2C69000E0201896F000E886FF7
:10269000000E876F000E866F130E716F370E146F6A
:1026A000140E706F380E156F000E0401056F000ECA
:1026B000066F000E076F000E0D6F000E0E6F000EFE
:1026C0000F6F000E156F000E166F000E176F000EC5
:1026D000256F000E266F000E276F1200FAC41BF53F
:1026E000FBC41CF5A5A677EF13F079EF13F084EF88
:1026F00013F0B5A67EEF13F080EF13F084EF13F024
:1027000090EC12F0BAEF13F0A5A089EF13F08BEF65
:1027100013F096EF13F0B5A090EF13F092EF13F0D3
:1027200096EF13F0B3EC15F0BAEF13F0A5A49BEFFE
:1027300013F09DEF13F0A8EF13F0B5A4A2EF13F080
:10274000A4EF13F0A8EF13F0BFEC13F0BAEF13F0FF
:10275000A5A2ADEF13F0AFEF13F0BAEF13F0B5A2EF
:10276000B4EF13F0B6EF13F0BAEF13F0A9EC15F0D5
:10277000BAEF13F01CC5FBF41BC5FAF411000201FB
:102780009BA5C5EF13F0C7EF13F0D2EF13F09AA596
:10279000CCEF13F0CEEF13F0D2EF13F0FFEC14F008
:1027A00006EF14F09BAFD7EF13F0D9EF13F0F4EF6F
:1027B00013F09AAFDEEF13F0E0EF13F0F4EF13F045
:1027C0000C50D8B4E6EF13F0E8EF13F0F0EF13F08D
:1027D000000E0C6E9A919A9F13EC15F006EF14F010
:1027E00026EC15F0CEEF13F09BA3F9EF13F0FBEFFF
:1027F00013F006EF14F09AA300EF14F002EF14F0B8
:1028000006EF14F01DEC16F002019A931200040E6C
:102810000201946F800E956F080E966F030E9C6FE9
:10282000000E9A6F000E9B6F000E976F000E8D6F5B
:10283000510E876F510E866F9FEC15F002019B9130
:102840009B95948F050EE82EFED700000000000037
:10285000000000000000000002019A919A959B85FB
:10286000460E1D6E2C0E1E6E000E1F6E39EC15F0FE
:102870001200D1EC15F0000E266E090E266443EF0F
:1028800014F045EF14F047EF14F03BEF14F0000E96
:102890001F6E250E1E6E260E206E050E216E000E7A
:1028A000236E010E226E66EC14F0520E256E2B0E76
:1028B000246E000EE82EFED7242EFCD7252EFAD744
:1028C00000D0262A3DEF14F00DEF00F0E9EC14F0F3
:1028D0000009D8A46EEF14F070EF14F08CEF14F030
:1028E000010E016E1EC502F51FC503F5000E0C6E2C
:1028F00020C504F521C505F522C506F523C507F554
:10290000000E086E000E096E000E0B6E000E0A6EB1
:10291000000E0D6ECCEC14F01200D69AAF90D6805B
:10292000000E1D6E000E1E6E000E1F6EE8EC15F000
:10293000B490D682000E1D6E000E1E6E000E1F6E2D
:10294000E1EC15F0B890D684000E1D6E000E1E6EE0
:10295000000E1F6EDAEC15F012000DEC16F0EFEC25
:1029600015F0C7EC15F0F4EC15F00201949FBDECE6
:1029700015F002019B919B95948F050EE82EFED7D2
:102980000000000000000000000000000000020144
:102990009A919A959B85120006500710D8B4D3EFF0
:1029A00014F0D5EF14F0E2EF14F00650F9EC15F046
:1029B0000C50D8B4DEEF14F0E0EF14F0E2EF14F0B6
:1029C00014EC16F002500224FDEC15F011EC16F098
:1029D0001200010E1D6E0150D8A4F1EF14F0F3EFB8
:1029E00014F0FDEF14F0020198AFF9EF14F0FBEFD3
:1029F00014F0FDEF14F0000E1D6E1D501200000EBD
:102A0000016E000E036E0268000E046E000E056E6D
:102A1000000E086E000E096E0DEC16F0EFEC15F0CE
:102A2000F4EC15F012000A500B10D8B41AEF15F0A0
:102A30001CEF15F01FEF15F00A5005EC16F0D880CA
:102A4000023401EC16F01AEC16F012001DEC16F030
:102A500020EC16F00009D8B430EF15F032EF15F085
:102A600038EF15F0000E05EC16F0000E09EC16F02C
:102A700012001D501E101F10D8B441EF15F043EF87
:102A800015F049EF15F01DC50EF51EC50FF51FC554
:102A900010F5120001EE01F1190EEE6AE806FDE1F3
:102AA0000401080E5D6F000E5E6F000E5F6F000187
:102AB00039EF14F0600E0001AD6F000EAF6F000E25
:102AC000B36F080EB16F000EB06F000EAC6F120046
:102AD000020195BB6EEF15F071EF15F0010E72EF6C
:102AE00015F0000E1200020198B779EF15F07CEF97
:102AF00015F0010E7DEF15F0000E1200020197BDDA
:102B000084EF15F087EF15F0010E88EF15F0000E39
:102B10001200020197BB8FEF15F092EF15F0010E36
:102B200093EF15F0000E1200020198A79AEF15F02E
:102B30009DEF15F0010E9EEF15F0000E1200A5841A
:102B4000A586A580A58202019B859B839B8F97818B
:102B5000120004C5D9F405C5DAF4044A052ADF5089
:102B600009EC16F0120017EC16F008C5D9F409C5E7
:102B7000DAF4DF6E084A092A1200A584A586A5802A
:102B8000A58202019B859B839B8F97811200A59450
:102B9000A596A590A592000E02019B6F000E976F5F
:102BA00012005AEC15F000EC13F007EC14F08DEC69
:102BB00014F012001DC511F51EC512F51FC513F541
:102BC00012001DC514F51EC515F51FC516F512001A
:102BD0001DC517F51EC518F51FC519F51200020110
:102BE000979B979D97991200000E0201996F998506
:102BF00012001D6E1DC58DF212001D6E1DC58FF2D7
:102C000012001A6E1AC58FF212001A6E1AC58DF2D2
:102C100012001A6E1AC58CF21200000E02019A6F91
:102C200012000201948B12000201948D1200020125
:102C30008B5112000201948B12000201949D12002C
:082C400002018D511200120087
:020000040030CA
:08000000FFFFF7FF9FFFFFFF68
:01000900FFF7
:00000001FF
