:040000000DEF00F010
:0400080052EF15F0AE
:06001800FF0066EF16F088
:10250000008C2900000000000000462E00000000A2
:10251000F82C000000000000000000000000000097
:1025200000000000000000000000000000000000AB
:1025300000000000000000000000000000882D00E6
:10254000662D00442D0000000056414C4F522041A2
:102550004443202D3E2025750A0D000044C5D9F4C2
:1025600045C5DAF4DFC4F6F4250EF76E000EF86EFA
:102570000800F550250AD8A4C0EF12F0C2EF12F0FF
:102580006AEF13F044C5D9F445C5DAF4DF2A000E2A
:10259000276E000E266E26C52EF52868296844C5CC
:1025A000D9F445C5DAF4DF504E6E4EC5F6F4250E6B
:1025B000F76E000EF86E0800F550750AD8A4E3EF28
:1025C00012F0E5EF12F063EF13F046C5D9F447C5FA
:1025D000DAF4DFC448F5020EDE26DFC449F5000E4A
:1025E000DD2248C5D9F449C5DAF4DEC44AF5DDC4B4
:1025F0004BF54E2844C5D9F445C5DAF4DF6E55EFE6
:1026000013F0200E4F6E4F06600E4F24D96EDA6A1B
:10261000050EDA224AC537F54BC538F5000E3A6E7D
:102620000A0E396E8BEC15F03750300FDF6E4AC54D
:1026300037F54BC538F5000E3A6E0A0E396E18ECB8
:1026400015F037C54AF538C54BF54A504B10D8B48C
:102650002CEF13F02EEF13F04AEF13F04F50D8A4E5
:1026600034EF13F036EF13F003EF13F04AEF13F0EB
:10267000600E4F24D96EDA6A050EDA22DF50486EFA
:102680004850396E3A6A42C53BF543C53CF561ECAA
:1026900014F04F2A200E4F18D8A451EF13F053EF27
:1026A00013F038EF13F080EF13F04EC5F6F4250E5B
:1026B000F76E000EF86E0800F550750AD8B401EFF9
:1026C00013F063EF13F044C5D9F445C5DAF4DF2AFB
:1026D00080EF13F044C5D9F445C5DAF4DFC4F6F44D
:1026E000250EF76E000EF86E0800F550396E3A6A46
:1026F00042C53BF543C53CF561EC14F063EF13F0C4
:1027000012003150020D010EF324D96E050EF42093
:10271000DA6EDE6ADD6A0201B2A791EF13F093EF81
:1027200013F0B3EF13F03150020D010EF324D96E04
:10273000050EF420DA6EDF821A501B101C10D8B47C
:10274000A4EF13F0A6EF13F0B3EF13F002D8B3EF3A
:1027500013F00500FA6E1A50FD6E1B50FE6E1C50F1
:10276000FF6EFA5012000201B2A3B9EF13F0BBEFF3
:1027700013F0DBEF13F03150020D010EF324D96E8C
:10278000050EF420DA6EDF84175018101910D8B433
:10279000CCEF13F0CEEF13F0DBEF13F002D8DBEF4A
:1027A00013F00500FA6E1750FD6E1850FE6E1950AA
:1027B000FF6EFA501200A1C232F53128070B336EBA
:1027C00030503318D8A4E7EF13F0E9EF13F0EBEF34
:1027D00013F0F6EF13F0800E3124D96EDA6A050E8D
:1027E000DA2232C5DFF433C531F52F2A1200000E8C
:1027F000BE6E000EBF6E000EC06E000EC16E000EEB
:10280000C26E000EC36EC668C768C868C9680F0E7E
:10281000CA6EF60ECB6E040100690869106918696A
:10282000070E206FF40E286F000E016F000E096F67
:10283000000E116F000E196F000E216F000E296F30
:10284000000E026F000E0A6F000E126F000E1A6F5C
:10285000000E226F000E2A6F03690B6913691B6952
:10286000070E236F2B6904690C6914691C690F0E2C
:10287000246F2C69000E0201896F000E886F000E14
:10288000876F000E866F290E726F200E296F000E63
:102890000401056F000E066F000E076F000E0D6F2E
:1028A000000E0E6F000E0F6F000E156F000E166FEC
:1028B000000E176F000E256F000E266F000E276F9B
:1028C00012003B503C10D8B468EF14F06AEF14F0DB
:1028D00073EF14F03B503C10D8A471EF14F073EF79
:1028E00014F078EF14F03950D5EC16F0C5EF14F071
:1028F00020EE0AF03B50D9263C50DA22DE50DE10A2
:10290000D8B485EF14F087EF14F0A2EF14F020EEA6
:102910000AF03B50D9263C50DA2210EE03F03B502F
:10292000E1263C50E222DE50E65CE650800A416E31
:10293000DE50800A4158D8B0A0EF14F0A2EF14F096
:10294000C5EF14F020EE03F03B50D9263C50DA22BC
:10295000DEC43DF5DDC43EF53BC5D9F43CC5DAF433
:10296000DEC43FF5DDC440F53D503F24D96E3E50F6
:102970004020DA6E39C5DFF420EE03F03B50D92653
:102980003C50DA22DE2A000EDD221200A290020E56
:10299000586E270E596E000E5A6E000E0201A16F7E
:1029A000000EA26F000EA36F000EA46F000EA56FA5
:1029B000000EA66F000EA76F000EA86F000EA96F85
:1029C000000EAA6FB00EAB6F800EAC6F080EAD6F2D
:1029D0008A0EAE6F000EAF6F2E0EB06F000EB16F8D
:1029E000800EB26F000EB36F560E376E2E0E386E1D
:1029F000000E396EC4EC16F0540E376E2E0E386E83
:102A0000000E396EB3EC16F0000E376E000E386E05
:102A1000000E396EA2EC16F0000E2B6E000E2A6E20
:102A2000000E316E000E306E000E2F6EA28012006E
:102A3000000E3C6E000E3B6E39503A10D8B423EFB6
:102A400015F025EF15F04DEF15F0010E3D6E2DEF51
:102A500015F0D89039363A363D2A3AAE32EF15F0B5
:102A600034EF15F029EF15F0D8903B363C3639504D
:102A7000375C3A503858D8A040EF15F042EF15F0C7
:102A800047EF15F03950375E3A50385A3B80D890AE
:102A90003A3239323D2E34EF15F03BC537F53CC59F
:102AA00038F51200FAC434F5FBC435F5A2A05BEF8B
:102AB00015F05DEF15F086EF15F0B2A062EF15F09E
:102AC00064EF15F086EF15F0A1C236F56EEF15F044
:102AD000C39679EF15F0C38679EF15F03650410AA9
:102AE000D8B468EF15F0030AD8B46BEF15F079EF9E
:102AF00015F002D886EF15F00500FA6E5850FD6EFD
:102B00005950FE6E5A50FF6EFA50120035C5FBF454
:102B100034C5FAF4110039503A10D8B492EF15F0D8
:102B200094EF15F0B8EF15F0010E3B6E9CEF15F029
:102B3000D89039363A363B2A3AAEA1EF15F0A3EFDA
:102B400015F098EF15F03950375C3A503858D8A046
:102B5000ACEF15F0AEEF15F0B2EF15F03950375E6F
:102B60003A50385AD8903A3239323B2EA3EF15F00A
:102B700037C537F538C538F51200F2EC16F0D68EA9
:102B8000000E1DEC17F0150E05018B6FC60EE82E1A
:102B9000FED78B2FFCD70000FDEC16F037C52CF5C7
:102BA00038C52DF527EC17F0490E0501886F2CC5A7
:102BB00089F52DC58AF591EC16F0290E05018C6F6B
:102BC000960E8B6F7F0EE82EFED78B2FFCD78C2FA7
:102BD000FAD7C0EF15F00DEF00F0000E0301D96F2A
:102BE000000EDA6F000EDB6F000EDC6F000EDF6F81
:102BF000000EE06F000EE56F000EE76F000EEC6F49
:102C0000010EEE6F000EEF6F000EF06F000EF16F11
:102C1000000EF26F000EF46F100EF56F000EF66FDF
:102C2000000EF76F000EF86F000EF96F1F0EFA6FAF
:102C3000840EF36FAF94B090120052C555F52FEF8C
:102C400016F050C542F551C543F5550E446E050EBC
:102C5000456E53C546F554C547F5AEEC12F055C563
:102C6000F6F4250EF76E000EF86E0800F550000918
:102C7000D8A43DEF16F03FEF16F021EF16F0000E4E
:102C8000516E000E506E1200D68A03016681AF901D
:102C9000D680000E376E000E386E000E396E16ECC0
:102CA00017F0B490D682000E376E000E386E000E0C
:102CB000396E0FEC17F0B890D684000E376E000E08
:102CC000386E000E396E08EC17F0120001EE60F15C
:102CD000280EEE6AE806FDE101EE01F1310EEE6A22
:102CE000E806FDE10401080E5D6F000E5E6F000E48
:102CF0005F6F0001BDEF15F0000E376E0201B0AB43
:102D000084EF16F086EF16F08FEF16F0ABAB8BEF7B
:102D100016F08DEF16F08FEF16F0010E376E37506C
:102D20001200890E566E050E576E000E506E000E84
:102D3000516E88C552F5560E536E050E546E1DEC3D
:102D400016F01200375038103910D8B4AAEF16F028
:102D5000ACEF16F0B2EF16F037C514F538C515F51F
:102D600039C516F51200375038103910D8B4BBEFFA
:102D700016F0BDEF16F0C3EF16F037C517F538C5DE
:102D800018F539C519F51200375038103910D8B474
:102D9000CCEF16F0CEEF16F0D4EF16F037C51AF5DB
:102DA00038C51BF539C51CF51200386E7CEC16F0E1
:102DB0000009D8B4DEEF16F0E0EF16F0D6EF16F00B
:102DC000385023EC17F01200600E0001AD6F000EBA
:102DD000AF6F000EB36F080EB16F000EB06F000E34
:102DE000AC6F1200E4EC16F0F7EC13F0EDEC15F01C
:102DF000C6EC14F044EC16F012000301EB513A6EED
:102E0000396AEA513924376E000E3A20386E1200C2
:102E100037C51DF538C51EF539C51FF5120037C574
:102E200020F538C521F539C522F5120037C523F53F
:102E300038C524F539C525F51200376E37C5ECF3D2
:102E40000301F3811200376E37C5A3F212000301AC
:082E5000F391120012001200C0
:020000040030CA
:08000000FFFFF7FF9FFFFFFF68
:01000900FFF7
:00000001FF
