:040000000EEF00F00F
:04000800A5EF31F03F
:0800180089EF2CF079EF37F0BD
:1026000000494E46494E49545900696E66696E69E3
:10261000747900252E32660A0D004E414E00696E17
:0726200066006E616E000010
:10262800000E256E000E246E1C501D10D8B41FEF2E
:1026380013F021EF13F02DEF13F01CC5D9F41DC5CD
:10264800DAF41AC5DEF41BC5DDF42DEF13F01A4ACF
:102658001B2A1AC5D9F41BC5DAF4200EDE18D8B423
:1026680038EF13F03BEF13F0010E3CEF13F0000EC0
:102678002C6E2D6A2C502D10D8A445EF13F047EF7F
:1026880013F02BEF13F01AC5D9F41BC5DAF4DF5099
:102698001E6E1E502C6E2D6A2CC51FF5F70E1F26B8
:1026A800040E1F645AEF13F05CEF13F02BEF13F0D6
:1026B800000E296E2D0E2C182D10D8A466EF13F0DD
:1026C80068EF13F06EEF13F0010E296E1A4A1B2AF9
:1026D8007AEF13F02B0E2C182D10D8A476EF13F0E8
:1026E80078EF13F07AEF13F06AEF13F0000E326E02
:1026F8007FEF13F0322A32501A24D96E000E1B20B5
:10270800DA6EDF50D8B48BEF13F08DEF13F0C3EF10
:1027180013F032501A24D96E000E1B20DA6EDF50E7
:102728001E6E32500A0F1F6E1FC5F6F4260EF76E86
:10273800000EF86E0800F5501E18D8B4A6EF13F076
:10274800A8EF13F07EEF13F032501A24D96E000E62
:102758001B20DA6EDF501E6E3250010F1F6E1FC530
:10276800F6F4260EF76E000EF86E0800F5501E18E7
:10277800D8B4C1EF13F0C3EF13F07EEF13F0020EDD
:102788003264C9EF13F0CBEF13F0F7EF13F0000E3C
:102798002E6E000E2F6E800E306E7F0E316E1C5026
:1027A8001D10D8B4DAEF13F0DCEF13F00DEF1BF0C7
:1027B800080E3218D8B4E3EF13F0E5EF13F0E7EFA3
:1027C80013F0030E326E32501A241E6E000E1B20B8
:1027D8001F6E1CC5D9F41DC5DAF41EC5DEF41FC56D
:1027E800DDF40DEF1BF0000E326EFCEF13F0322A11
:1027F80032501A24D96E000E1B20DA6EDF50D8B47E
:1028080008EF14F00AEF14F040EF14F032501A24D5
:10281800D96E000E1B20DA6EDF501E6E3250220F6A
:102828001F6E1FC5F6F4260EF76E000EF86E080030
:10283800F5501E18D8B423EF14F025EF14F0FBEF71
:1028480013F032501A24D96E000E1B20DA6EDF50B6
:102858001E6E32501A0F1F6E1FC5F6F4260EF76E45
:10286800000EF86E0800F5501E18D8B43EEF14F0AC
:1028780040EF14F0FBEF13F0030E3218D8A447EF23
:1028880014F049EF14F0B5EF14F0190E016EE0ECF6
:102898003AF001C52EF502C52FF503C530F504C57C
:1028A80031F51C501D10D8B45CEF14F05EEF14F035
:1028B8000DEF1BF032501A26000E1B221AC5D9F450
:1028C8001BC5DAF4280EDE18D8A46DEF14F06FEFEC
:1028D80014F0ABEF14F0000E326E74EF14F0322ADD
:1028E80032501A24D96E000E1B20DA6EDF50D8B48D
:1028F80080EF14F082EF14F091EF14F032501A24A4
:10290800D96E000E1B20DA6E290EDE18D8A48FEFC0
:1029180014F091EF14F073EF14F032501A24D96EBA
:10292800000E1B20DA6E290EDE18D8A49EEF14F0D4
:10293800A0EF14F0ABEF14F032501E6E1F6A010EB8
:102948001E26000E1F221E501A261F501B221CC5B1
:10295800D9F41DC5DAF41AC5DEF41BC5DDF40DEF94
:102968001BF0000E2D6E000E2C6E000E2E6E000E4B
:102978002F6E000E306E000E316E000E266E000EA9
:10298800276E000E2B6E000E2A6E000E326ECEEFF2
:1029980014F0322A32501A24D96E000E1B20DA6E37
:1029A800300EDE18D8B4DBEF14F0DDEF14F0CDEF05
:1029B80014F03250D8B4E3EF14F0E5EF14F086EFDA
:1029C80018F032501A24D96E000E1B20DA6E780ED9
:1029D800DE18D8B4F2EF14F0F4EF14F003EF15F0AA
:1029E80032501A24D96E000E1B20DA6E580EDE18EB
:1029F800D8A401EF15F003EF15F086EF18F0325068
:102A08001A241E6E000E1B201F6E010E1E24D96E86
:102A1800000E1F20DA6EDF50206E2050016E026A11
:102A280000EC38F001500210D8A41DEF15F01FEF8C
:102A380015F036EF15F032501A241E6E000E1B20CA
:102A48001F6E010E1E24D96E000E1F20DA6E2E0E88
:102A5800DE18D8B432EF15F034EF15F036EF15F074
:102A6800AAEF17F032C526F5322A32501A24D96E49
:102A7800000E1B20DA6E300EDE18D8B446EF15F0C3
:102A880048EF15F038EF15F032501A24D96E000EC1
:102A98001B20DA6E700EDE18D8B455EF15F057EF1C
:102AA80015F0C5EF16F032501A24D96E000E1B200F
:102AB800DA6E500EDE18D8A464EF15F066EF15F044
:102AC80068EF15F0C5EF16F032501A24D96E000ED3
:102AD8001B20DA6E2E0EDE18D8A475EF15F077EFEE
:102AE80015F07DEF15F0298832C527F5322AC5EF94
:102AF80016F032501A24D96E000E1B20DA6EDF5001
:102B08001E6E1E50016E026A00EC38F00150021071
:102B1800D8B491EF15F093EF15F0AAEF17F0000E67
:102B2800286E32501A24D96E000E1B20DA6EDF5040
:102B38001E6E1E50016E026A68EC3AF001500210D7
:102B4800D8B4A9EF15F0ABEF15F0B6EF15F0325089
:102B58001A24D96E000E1B20DA6EDF50D00F286EB3
:102B6800C6EF15F032501A24D96E000E1B20DA6E0B
:102B7800DF501E6E1E50016E026A51EC3AF0015091
:102B8800C90F286E2DBED4EF15F02D5007E1080EA1
:102B98002C5CD8B0D2EF15F0D4EF15F0F3EF15F0A8
:102BA8002C5007081E6ED8901E36D8901E3628C5A1
:102BB8001FF5206A216A226A1E2AE8EF15F0D890CC
:102BC8001F362036213622361E2EE3EF15F01F5011
:102BD8002E1220502F1221503012225031122C4A1E
:102BE8002D2A040E2A26000E2B22322A48EF15F031
:102BF80032501A24D96E000E1B20DA6E300EDE1801
:102C0800D8A409EF16F00BEF16F01AEF16F02C50B7
:102C18002D10D8A412EF16F014EF16F01AEF16F0D4
:102C2800FC0E2A26FF0E2B22C4EF16F032501A246F
:102C3800D96E000E1B20DA6EDF501E6E1E50016E1C
:102C4800026A00EC38F001500210D8B42EEF16F0EA
:102C580030EF16F094EF16F0000E286E32501A245A
:102C6800D96E000E1B20DA6EDF501E6E1E50016EEC
:102C7800026A68EC3AF001500210D8B446EF16F038
:102C880048EF16F053EF16F032501A24D96E000EA2
:102C98001B20DA6EDF50D00F286E63EF16F032502B
:102CA8001A24D96E000E1B20DA6EDF501E6E1E50DD
:102CB800016E026A51EC3AF00150C90F286E2DBE20
:102CC80071EF16F02D5007E1080E2C5CD8B06FEFAD
:102CD80016F071EF16F090EF16F02C5007081E6EE4
:102CE800D8901E36D8901E3628C51FF5206A216A4E
:102CF800226A1E2A85EF16F0D8901F362036213614
:102D080022361E2E80EF16F01F502E1220502F1242
:102D180021503012225031122C4A2D2AC4EF16F0BD
:102D280032501E6E1F6A2750206E216A010E20261F
:102D3800000E21221E50201807E11F502118D8A488
:102D4800A8EF16F0AAEF16F0CCEF16F027501E6E7B
:102D58001F6A2650206E216A010E2026000E2122AD
:102D68001E50201807E11F502118D8A4BEEF16F0F6
:102D7800C0EF16F0CCEF16F026C532F5AAEF17F023
:102D8800322A29B8CAEF16F0CCEF16F0FCEF15F08E
:102D980032501A26000E1B22000E326E1AC5D9F4C4
:102DA8001BC5DAF4700EDE18D8B4DDEF16F0DFEFCD
:102DB80016F0EEEF16F01AC5D9F41BC5DAF4500E6A
:102DC800DE18D8B4EAEF16F0ECEF16F0EEEF16F0D6
:102DD800AAEF17F0322A20EE01F01A50D9261B501C
:102DE800DA222B0EDE18D8A4FCEF16F0FEEF16F050
:102DF80001EF17F0322A12EF17F020EE01F01A5007
:102E0800D9261B50DA222D0EDE18D8A40EEF17F0A3
:102E180010EF17F012EF17F02986322A32501A24D1
:102E2800D96E000E1B20DA6EDF501E6E1E50016E2A
:102E3800026A68EC3AF001500210D8A426EF17F0A5
:102E480028EF17F02CEF17F0000E326EAAEF17F0EC
:102E580032501A26000E1B22000E326E35EF17F084
:102E6800322A32501A24D96E000E1B20DA6E300E28
:102E7800DE18D8B442EF17F044EF17F034EF17F02C
:102E8800000E2D6E000E2C6E73EF17F03250D8B472
:102E980050EF17F052EF17F060EF17F02CC501F55F
:102EA8002DC502F5000E046E0A0E036EBBEC3AF057
:102EB80001C52CF502C52DF532501A24D96E000E25
:102EC8001B20DA6EDF501E6ED00E1E241F6E206A85
:102ED800FF0E20221F502C2620502D22322A32503D
:102EE8001A24D96E000E1B20DA6EDF501E6E1E509B
:102EF800016E026A68EC3AF001500210D8A487EF1C
:102F080017F089EF17F04AEF17F03250D8A48FEF77
:102F180017F091EF17F09BEF17F0000E1A6E000EE6
:102F28001B6E000E1C6E000E1D6E43EF1BF029A6D3
:102F3800A0EF17F0A2EF17F0A6EF17F02C6C2D1EDC
:102F4800D8B02D2A2C502A262D502B221C501D106B
:102F5800D8B4B1EF17F0B3EF17F0C1EF17F0325054
:102F68001A241E6E000E1B201F6E1CC5D9F41DC529
:102F7800DAF41EC5DEF41FC5DDF42E502F10301014
:102F88003110D8A4CAEF17F0CCEF17F0D6EF17F02E
:102F9800000E1A6E000E1B6E000E1C6E000E1D6ECB
:102FA80043EF1BF0FF0E2E141E6E000E2F141F6E23
:102FB800000E3014206E000E3114216E21502010A6
:102FC8001F1009E1810E1E5CD8A0EDEF17F0EFEF9E
:102FD80017F001EF18F0000E2E26010E2F22000E1A
:102FE8003022000E312201EF18F0D8902E362F36FD
:102FF800303631362A06D8A02B0631AE06EF18F047
:1030080008EF18F0F9EF17F02BAE14EF18F0830E55
:103018002A5CFF0E2B58D8B014EF18F016EF18F0F2
:1030280022EF18F0FF0E2B6E810E2A6E000E2E6E08
:10303800000E2F6E000E306E000E316E810E2A18B3
:1030480008E12B28D8B42BEF18F02DEF18F035EF46
:1030580018F0D8902E362F36303631362A06D8A0BA
:103068002B062BBE41EF18F02B5009E1800E2A5C8D
:10307800D8A041EF18F043EF18F055EF18F0000E04
:103088002E6E000E2F6E000E306E000E316E000E8A
:103098002B6E800E2A6E000E256E220E246E0DEF0A
:1030A8001BF0090E1E6ED890313230322F322E327C
:1030B8001E2E57EF18F0FF0E2E16FF0E2F167F0E3E
:1030C8003016000E31167F0E2A241E6E000E2B209D
:1030D8001F6EFF0E1E14206E216A226A236A170EC5
:1030E800D8902036213622362336E82E74EF18F091
:1030F80020502E1221502F122250301223503112FC
:103108000DEF1BF029B88BEF18F08DEF18F09FEF3B
:1031180018F01AC5D9F41BC5DAF42E0EDE18D8A497
:1031280098EF18F09AEF18F09FEF18F029881A4ACC
:103138001B2A86EF18F01AC5D9F41BC5DAF4DF503C
:103148001E6E1E50016E026A68EC3AF001500210C1
:10315800D8A4B1EF18F0B3EF18F0B5EF18F003EFFB
:1031680019F02982090E2C182D10D8B4BEEF18F0CA
:10317800C0EF18F0F6EF18F029A8C5EF18F0C7EF60
:1031880018F0CAEF18F02A06D8A02B062C4A2D2AC8
:103198002EC501F52FC502F530C503F531C504F577
:1031A8000A0E056E000E066E000E076E000E086E03
:1031B80044EC37F001C52EF502C52FF503C530F5EF
:1031C80004C531F51AC5D9F41BC5DAF4DF501E6EF3
:1031D800D00E1E261E502E26000E2F2230223122FF
:1031E800FFEF18F029B8FBEF18F0FDEF18F0FFEF2C
:1031F80018F02A4A2B2A1A4A1B2A86EF18F0000EC2
:103208002D6E000E2C6E1AC5D9F41BC5DAF4650EA6
:10321800DE18D8B412EF19F014EF19F021EF19F0F5
:103228001AC5D9F41BC5DAF4450EDE18D8A41FEF69
:1032380019F021EF19F0A9EF19F01A4A1B2A1AC53B
:10324800D9F41BC5DAF42D0EDE18D8A42EEF19F028
:1032580030EF19F035EF19F029861A4A1B2A44EF86
:1032680019F01AC5D9F41BC5DAF42B0EDE18D8A448
:1032780040EF19F042EF19F044EF19F01A4A1B2AEF
:103288001AC5D9F41BC5DAF4300EDE18D8B44FEFDE
:1032980019F051EF19F042EF19F0000E286E70EF97
:1032A80019F01AC5D9F41BC5DAF4DF501E6ED00E1A
:1032B8001E262CC501F52DC502F5000E046E0A0E5A
:1032C800036EBBEC3AF01E5001242C6E000E022057
:1032D8002D6E1A4A1B2A282A1AC5D9F41BC5DAF4F6
:1032E800DF501E6E1E50016E026A68EC3AF0015003
:1032F8000210D8A482EF19F084EF19F055EF19F0F5
:103308002850D8A48AEF19F08CEF19F09EEF19F025
:103318002FEEFFF31A50D9261B50DA22300EDE1892
:10332800D8B499EF19F09BEF19F09EEF19F01A062F
:10333800D8A01B0629A6A3EF19F0A5EF19F0A9EF4D
:1033480019F02C6C2D1ED8B02D2A2C502A262D5061
:103358002B221C501D10D8B4B4EF19F0B6EF19F099
:10336800C5EF19F029A2BBEF19F0BDEF19F0C5EFB1
:1033780019F01CC5D9F41DC5DAF41AC5DEF41BC54D
:10338800DDF42EC501F52FC502F530C503F531C5AD
:1033980004F5000ECBEC30F001C52EF502C52FF573
:1033A80003C530F504C531F52EC501F52FC502F565
:1033B80030C503F531C504F5000E056E000E066E26
:1033C800000E076E000E086E6EEC36F0D8A0EFEF18
:1033D80019F0F1EF19F0FBEF19F0000E1A6E000E5C
:1033E8001B6E000E1C6E000E1D6E43EF1BF02BBEF5
:1033F80002EF1AF000EF1AF090EF1AF02A6C2B1E69
:10340800D8B02B2A26EF1AF02EC501F52FC502F5E4
:1034180030C503F531C504F5F90E056E020E066ECA
:10342800150E076E500E086EBCEC2AF001C52EF57D
:1034380002C52FF503C530F504C531F5F60E2A2669
:10344800FF0E2B222BBE34EF1AF02B5007E10A0E89
:103458002A5CD8B032EF1AF034EF1AF008EF1AF0FD
:1034680053EF1AF02EC501F52FC502F530C503F547
:1034780031C504F5000E056E000E066E200E076EAF
:10348800410E086EBCEC2AF001C52EF502C52FF5D9
:1034980003C530F504C531F52A06D8A02B062A50F5
:1034A8002B10D8A45AEF1AF05CEF1AF036EF1AF086
:1034B8002EC501F52FC502F530C503F531C504F554
:1034C800000E056E000E066E800E076E000E086E6A
:1034D80031EC33F0D8B073EF1AF075EF1AF00DEF46
:1034E8001BF029A07AEF1AF07CEF1AF086EF1AF099
:1034F800000E1A6E000E1B6E800E1C6E800E1D6E66
:1035080043EF1BF0000E1A6E000E1B6E800E1C6E31
:10351800000E1D6E43EF1BF02BBE9BEF1AF02B50D5
:1035280008E12A04D8A09BEF1AF09DEF1AF00DEFDE
:103538001BF0BDEF1AF02EC501F52FC502F530C5F9
:1035480003F531C504F5F90E056E020E066E150E6B
:10355800076E500E086ED9EC26F001C52EF502C58F
:103568002FF503C530F504C531F5F60E2A26FF0EF2
:103578002B222B5007E10A0E2A5CD8B0C6EF1AF0AE
:10358800C8EF1AF09FEF1AF0E7EF1AF02EC501F511
:103598002FC502F530C503F531C504F5000E056EDB
:1035A800000E066E200E076E410E086ED9EC26F04E
:1035B80001C52EF502C52FF503C530F504C531F553
:1035C8002A06D8A02B062A502B10D8A4EEEF1AF002
:1035D800F0EF1AF0CAEF1AF0FF0E016EFF0E026E3E
:1035E8007F0E036E7F0E046E2EC505F52FC506F5FA
:1035F80030C507F531C508F531EC33F0D8B007EF21
:103608001BF009EF1BF00DEF1BF0000E256E220ECC
:10361800246E24502510D8B414EF1BF016EF1BF0BD
:1036280022EF1BF024C551F525C552F5000E2E6E6C
:10363800000E2F6E800E306E7F0E316E29A027EFA0
:103648001BF029EF1BF03BEF1BF02EC501F52FC532
:1036580002F530C503F531C504F51BEC3AF001C598
:103668002EF502C52FF503C530F504C531F52EC575
:103678001AF52FC51BF530C51CF531C51DF512000F
:10368800000E0501E06FB8C5E3F5B9C5E4F5BAC5A4
:10369800E5F5BBC5E6F5E6BF56EF1BF054EF1BF0AA
:1036A8006AEF1BF0010EE06FE3C560F5E4C561F554
:1036B800E5C562F5E6C563F570EC39F060C5E3F57C
:1036C80061C5E4F562C5E5F563C5E6F5000E0501DB
:1036D800E26F000EE16F53C5D0F554C5D1F5E05146
:1036E800D8B479EF1BF07BEF1BF08FEF1BF0E051A4
:1036F800D8A481EF1BF083EF1BF089EF1BF0000EBD
:10370800C66F2B0EC56F8DEF1BF0000EC66F2D0E0A
:10371800C56FC5C5E0F5E3C560F5E4C561F5E5C568
:1037280062F5E6C563F5B3EC33F005016005611198
:10373800D8A4A1EF1BF0A3EF1BF0D3EF1BF0E051CF
:10374800D8B4A9EF1BF0ABEF1BF0B4EF1BF0E0C54A
:103758001DF6D007D8A0D107000EE26F010EE16F69
:103768001D0EE125606F060EE221616F1E0E626F6D
:1037780030EC39F00501FD0ED027FF0ED123B6C578
:1037880070F5B7C571F51D0E726F060E736FD0C553
:1037980074F5D1C575F50BEC37F03FEF20F0E3C5B4
:1037A80060F5E4C561F5E5C562F5E6C563F5B3EC1A
:1037B80033F0050160516111D8A4E5EF1BF0E7EF84
:1037C8001BF004EF1CF0E051D8B4EDEF1BF0EFEF65
:1037D8001BF0F8EF1BF0E0C51DF6D007D8A0D10705
:1037E800000EE26F010EE16F1D0EE125606F060EFF
:1037F800E221616F220E626F30EC39F0BEEF1BF0F0
:10380800000EE76F000EE86F800EE96F3F0EEA6F5B
:10381800000ECF6F000ECE6FE3C560F5E4C561F50D
:10382800E5C562F5E6C563F5000E646F000E656FC9
:10383800000E666F000E676F18EC36F00501D8B001
:1038480028EF1CF02AEF1CF00CEF1DF036EF1CF0EF
:10385800D2C5E7F5D3C5E8F5D4C5E9F5D5C5EAF588
:10386800CE4BCF2BE7C570F5E8C571F5E9C572F504
:10387800EAC573F5000E746F000E756F200E766F33
:10388800410E776FC3EC24F070C5D2F571C5D3F53E
:1038980072C5D4F573C5D5F50501D251E35D606FE6
:1038A800D351E459616FD451E559626FD551E65946
:1038B800636FD4EC37F0050163BF6EEF1CF0635102
:1038C8006211611109E1020E605DD8A06EEF1CF073
:1038D80070EF1CF02CEF1CF0D2C589F5D3C58AF522
:1038E800D4C58BF5D5C58CF5E3C58DF5E4C58EF546
:1038F800E5C58FF5E6C590F5AEEC32F00501D8A028
:1039080088EF1CF08AEF1CF02CEF1CF0E751E35D08
:10391800606FE851E459616FE951E559626FEA5106
:10392800E659636FD4EC37F0050163BFA9EF1CF0CB
:1039380063516211611107E1020E605DD8B0A7EF13
:103948001CF0A9EF1CF0F2EF1CF0E7C5E3F5E8C5A1
:10395800E4F5E9C5E5F5EAC5E6F50CEF1DF0E7C5C0
:1039680089F5E8C58AF5E9C58BF5EAC58CF5000E39
:103978008D6F000E8E6F200E8F6F410E906FEEECE4
:1039880028F089C5E7F58AC5E8F58BC5E9F58CC542
:10399800EAF50501CE07D8A0CF07E751E35D606FD0
:1039A800E851E459616FE951E559626FEA51E65906
:1039B800636FD4EC37F0050163BFF0EF1CF063517F
:1039C8006211611107E1020E605DD8B0EEEF1CF0E4
:1039D800F0EF1CF0F2EF1CF0A9EF1CF0E3C589F53D
:1039E800E4C58AF5E5C58BF5E6C58CF5E7C58DF523
:1039F800E8C58EF5E9C58FF5EAC590F5AEEC32F06D
:103A08000501D8A00AEF1DF00CEF1DF0B3EF1CF074
:103A1800BCC5C8F5C8C5C9F556BE15EF1DF017EFEA
:103A28001DF01DEF1DF055C5C1F556C5C2F521EFB6
:103A38001DF0000EC26F060EC16FC1C5CCF5C2C520
:103A4800CDF5CC4BCD2B660EC919D8A42EEF1DF0A1
:103A580030EF1DF050EF1DF0CFBF37EF1DF035EF01
:103A68001DF043EF1DF0000EE76F000EE86F800EAB
:103A7800E96F3F0EEA6F000ECF6F000ECE6F670E34
:103A8800C819D8B44AEF1DF04CEF1DF050EF1DF0E7
:103A9800CE51CC27CF51CD23000ED76F000ED66F55
:103AA800E3C5D8F5E4C5D9F5E5C5DAF5E6C5DBF52E
:103AB800E7C5D2F5E8C5D3F5E9C5D4F5EAC5D5F526
:103AC800E2EF1DF0D8C589F5D9C58AF5DAC58BF5B9
:103AD800DBC58CF5E7C58DF5E8C58EF5E9C58FF52D
:103AE800EAC590F5EEEC28F089C5A2F58AC5A3F5DC
:103AF8008BC5A4F58CC5A5F5E4EC2EF0A2C5DCF5C4
:103B0800A3C5DDF5A4C5DEF5A5C5DFF5DCC560F503
:103B1800DDC561F5DEC562F5DFC563F52AEC32F077
:103B280060C5CAF561C5CBF5D8C589F5D9C58AF58B
:103B3800DAC58BF5DBC58CF5DCC574F5DDC575F527
:103B4800DEC576F5DFC577F5E7C570F5E8C571F52B
:103B5800E9C572F5EAC573F5C3EC24F070C58DF5B7
:103B680071C58EF572C58FF573C590F5C8EC38F040
:103B780089C5D8F58AC5D9F58BC5DAF58CC5DBF5C5
:103B8800E7C589F5E8C58AF5E9C58BF5EAC58CF579
:103B9800000E05018D6F000E8E6F200E8F6F410E87
:103BA800906FEEEC28F089C5E7F58AC5E8F58BC576
:103BB800E9F58CC5EAF50501D64BD72BCC51D65D76
:103BC800D751800ABD6FCD51800ABD59D8A0EFEFFB
:103BD8001DF0F1EF1DF066EF1DF0E7C570F5E8C5C3
:103BE80071F5E9C572F5EAC573F5000E746F000E3C
:103BF800756FA00E766F400E776FC3EC24F070C51A
:103C0800DCF571C5DDF572C5DEF573C5DFF5D8C520
:103C180089F5D9C58AF5DAC58BF5DBC58CF5DCC520
:103C28008DF5DDC58EF5DEC58FF5DFC590F5AEECFB
:103C380032F00501D8B023EF1EF025EF1EF02FEF6C
:103C48001EF0000EDC6F000EDD6F000EDE6F000E42
:103C5800DF6F58EF1EF0D8C560F5D9C561F5DAC534
:103C680062F5DBC563F5DCC564F5DDC565F5DEC564
:103C780066F5DFC567F518EC36F00501D8A047EF03
:103C88001EF049EF1EF058EF1EF0CAB14EEF1EF0BD
:103C980050EF1EF058EF1EF0000EDC6F000EDD6FC7
:103CA800000EDE6F000EDF6FE3C560F5E4C561F559
:103CB800E5C562F5E6C563F5DCC564F5DDC565F502
:103CC800DEC566F5DFC567F540EC20F060C5D8F5C0
:103CD80061C5D9F562C5DAF563C5DBF5D8C589F5DF
:103CE800D9C58AF5DAC58BF5DBC58CF5000E05015B
:103CF800746F000E756F200E766F410E776FD2C508
:103D080070F5D3C571F5D4C572F5D5C573F5C3EC97
:103D180024F070C58DF571C58EF572C58FF573C524
:103D280090F5AEEC32F00501D8A09DEF1EF09FEFA4
:103D38001EF0C7EF1EF0CE4BCF2BD2C570F5D3C502
:103D480071F5D4C572F5D5C573F5000E746F000E04
:103D5800756F200E766F410E776FC3EC24F070C537
:103D6800D2F571C5D3F572C5D4F573C5D5F5660E10
:103D78000501C919D8A4C3EF1EF0C5EF1EF0C7EF9F
:103D88001EF0CC4BCD2BD2C5E7F5D3C5E8F5D4C58D
:103D9800E9F5D5C5EAF5CEC5BFF5CFC5C0F5000E26
:103DA800C76F000EC46F000EC36F000ED76F000EF2
:103DB800D66FC5EF1FF0D8C589F5D9C58AF5DAC51C
:103DC8008BF5DBC58CF5E7C58DF5E8C58EF5E9C53E
:103DD8008FF5EAC590F5EEEC28F089C5A2F58AC5FD
:103DE800A3F58BC5A4F58CC5A5F5E4EC2EF0A2C50A
:103DF800DCF5A3C5DDF5A4C5DEF5A5C5DFF5DCC595
:103E080060F5DDC561F5DEC562F5DFC563F52AEC51
:103E180032F0050161BF1CEF1FF0615107E10A0E86
:103E2800605DD8B01AEF1FF01CEF1FF02CEF1FF0E9
:103E3800DCC560F5DDC561F5DEC562F5DFC563F596
:103E48002AEC32F060C5CAF561C5CBF530EF1FF03A
:103E5800000ECB6F090ECA6F0501C751D8A437EF02
:103E68001FF039EF1FF061EF1FF0C0BF40EF1FF0E8
:103E78003EEF1FF061EF1FF01D0EE125D96E060E13
:103E8800E221DA6E2E0EDF6EE14BE22BD007D8A0CE
:103E9800D107010EC76F61EF1FF01D0EE125D96E26
:103EA800060EE221DA6E300EDF6EE14BE22BD00710
:103EB800D8A0D107C307D8A0C407C351C411D8A438
:103EC80068EF1FF06AEF1FF051EF1FF01D0EE1259C
:103ED800D96E060EE221DA6ECA51300FDF6EE14B61
:103EE800E22BD007D8A0D107D8C589F5D9C58AF55E
:103EF800DAC58BF5DBC58CF5DCC574F5DDC575F564
:103F0800DEC576F5DFC577F5E7C570F5E8C571F567
:103F1800E9C572F5EAC573F5C3EC24F070C58DF5F3
:103F280071C58EF572C58FF573C590F5C8EC38F07C
:103F380089C5D8F58AC5D9F58BC5DAF58CC5DBF501
:103F4800E7C589F5E8C58AF5E9C58BF5EAC58CF5B5
:103F5800000E05018D6F000E8E6F200E8F6F410EC3
:103F6800906FEEEC28F089C5E7F58AC5E8F58BC5B2
:103F7800E9F58CC5EAF50501BF07D8A0C007D64BFF
:103F8800D72BCC51D65DD751800ABD6FCD51800A51
:103F9800BD59D8B0D2EF1FF0D4EF1FF0E2EF1FF0F9
:103FA800E2BFE0EF1FF0E25109E14B0EE15DD8A05E
:103FB800E0EF1FF0E2EF1FF0DFEF1EF0000ED76F0B
:103FC8004F0ED66F1D0ED625D96E060ED721DA6E86
:103FD800DF6A1D0EBD6F060EBE6FE151BD5FE25177
:103FE800BE5BD651BD25606FD751BE21616F1D0ED6
:103FF800626F060E636FE1C564F5E2C565F554ECC2
:1040080038F00501E151D65DE16FE251D759E26F11
:10401800E051D8A412EF20F015EF20F0010E16EFB2
:1040280020F0000ED66FD76BE051D8B41EEF20F009
:1040380020EF20F02BEF20F0E107D8A0E2071D0EBB
:10404800E125D96E060EE221DA6EE0C5DFF4D6511D
:10405800D05FD751D15BB6C570F5B7C571F51D0EE8
:10406800E125726F060EE221736FD0C574F5D1C5D4
:1040780075F50BEC37F0120005016351800B6C6F7E
:10408800635163256E6F62AF4CEF20F04EEF20F066
:104098004FEF20F06E816E51D8B455EF20F057EFF6
:1040A80020F06CEF20F06E29D8A45DEF20F05FEFD0
:1040B80020F067EF20F0000E606F000E616F000EB9
:1040C800626F000E636F628F000E636F74EF20F0F3
:1040D800000E606F000E616F000E626F000E636F5E
:1040E8006751800B6D6F6C516D19D8B47EEF20F05D
:1040F80080EF20F081EF20F06C8D675167256D6FA0
:1041080066AF89EF20F08BEF20F08CEF20F06D8107
:104118006D51D8B492EF20F094EF20F0A9EF20F081
:104128006D29D8A49AEF20F09CEF20F0A4EF20F09E
:10413800000E646F000E656F000E666F000E676FED
:10414800668F000E676FB1EF20F0000E646F000EEF
:10415800656F000E666F000E676F6E516D5DD8B0AB
:10416800B8EF20F0BAEF20F0E1EF20F06CADBFEF30
:1041780020F0C1EF20F0C3EF20F0800E6C1B6EC55D
:104188006FF56DC56EF56FC56DF560C56FF564C5E6
:1041980060F56FC564F561C56FF565C561F56FC5F7
:1041A80065F562C56FF566C562F56FC566F563C5E9
:1041B8006FF567C563F56FC567F5000E6F6F6E51D4
:1041C8006DC568F5696B685F000E695B69BFF6EFDE
:1041D80020F0695109E11A0E685DD8A0F6EF20F0C9
:1041E800F8EF20F02FEF21F0605161116211631197
:1041F800D8A401EF21F004EF21F0010E05EF21F022
:10420800000E6F6F000E606F000E616F000E626F20
:10421800000E636F6DC56EF538EF21F06FA117EFD3
:1042280021F019EF21F01FEF21F0D8906F3101092B
:104238006F6F21EF21F0D8906F3360A126EF21F046
:1042480028EF21F029EF21F06F8F63356333623354
:10425800613360336E2B6D516E5DD8A036EF21F05F
:1042680038EF21F012EF21F06CBD3DEF21F03FEF68
:1042780021F07FEF21F06E51D8A445EF21F047EFF0
:1042880021F051EF21F0000E606F000E616F000EFB
:10429800626F000E636FA0EF22F0645160276551D2
:1042A8006123665162236751632363A15EEF21F0A6
:1042B80060EF21F00CEF22F06FA165EF21F067EFBE
:1042C80021F06DEF21F0D8906F3101096F6F6FEF1A
:1042D80021F0D8906F3360A174EF21F076EF21F0D0
:1042E80077EF21F06F8F6335633362336133603367
:1042F8006E2B0CEF22F06451605D65516159665177
:1043080062596351800A686F6751800A6859D8B04A
:1043180090EF21F092EF21F0BDEF21F06051645D44
:10432800686F61516559696F625166596A6F635167
:1043380067596B6FFF0E6825606FFF0E6921616F0B
:10434800FF0E6A21626FFF0E6B21636F800E6C1B7C
:104358006F6D6F51D8A4B3EF21F0B5EF21F0C5EF21
:1043680021F0010E6027000E612362236323C5EF4D
:1043780021F06451605F6551615B6651625B675112
:10438800635B6051611162116311D8A4CEEF21F013
:10439800D0EF21F005EF22F06F51D8A4D6EF21F02D
:1043A800D8EF21F005EF22F0000E606F000E616F6C
:1043B800000E626F000E636FA0EF22F0D890603796
:1043C8006137623763376FAFECEF21F0EEEF21F022
:1043D800EFEF21F060816FA1F4EF21F0F6EF21F00B
:1043E800FAEF21F0D8806F37FCEF21F0D8906F37C3
:1043F8006E51D8B402EF22F004EF22F005EF22F05C
:104408006E0762AF0AEF22F00CEF22F0E2EF21F024
:10441800000E6D6F6FAF13EF22F015EF22F02DEF46
:1044280022F06FC568F57F0E6817D8B41EEF22F02A
:1044380020EF22F024EF22F0010E6D6F2DEF22F015
:1044480060A129EF22F02BEF22F02DEF22F020EFD0
:1044580022F06D51D8B433EF22F035EF22F060EF3F
:1044680022F0010E6027000E61236223632363A1FB
:1044780040EF22F042EF22F060EF22F060C568F5CD
:1044880061C569F562C56AF563C56BF56B356B3354
:104498006A336933683368C560F569C561F56AC50B
:1044A80062F56BC563F56E29D8B45DEF22F05FEF56
:1044B80022F060EF22F06E2B6E29D8B466EF22F05E
:1044C80068EF22F070EF22F06E51D8A46EEF22F060
:1044D80070EF22F082EF22F0000E606F000E616F25
:1044E800000E626F000E636F6E51D8A47EEF22F04B
:1044F80080EF22F082EF22F0000E6C6F6EA187EF42
:1045080022F089EF22F08CEF22F0628F8DEF22F0FB
:10451800629FD8906E31636F6CAF95EF22F097EF82
:1045280022F098EF22F0638F60C560F561C561F5F0
:1045380062C562F563C563F51200A4C589F5A5C512
:104548008AF5A6C58BF5A7C58CF5A8C58DF5A9C5AF
:104558008EF5AAC58FF5ABC590F5C8EC38F089C5BE
:10456800BCF58AC5BDF58BC5BEF58CC5BFF5A2C522
:10457800D9F4A3C5DAF4DEC470F5DEC471F5DEC47F
:1045880072F5DEC473F5BCC574F5BDC575F5BEC559
:1045980076F5BFC577F5C3EC24F0050120EE24F0CD
:1045A800A251D926A351DA2270C5DEF471C5DEF412
:1045B80072C5DEF473C5DEF4000E746F000E756FFD
:1045C800000E766F3F0E776F20EE04F0A251D926C9
:1045D800A351DA22DEC470F5DEC471F5DEC472F5CB
:1045E800DEC473F5C3EC24F070C5ACF571C5ADF548
:1045F80072C5AEF573C5AFF5050120EE18F0A251EE
:10460800D926A351DA22DEC474F5DEC475F5DEC4FA
:1046180076F5DEC477F5ACC570F5ADC571F5AEC5F8
:1046280072F5AFC573F5C3EC24F070C5B0F571C56C
:10463800B1F572C5B2F573C5B3F5B0C574F5B1C5BA
:1046480075F5B2C576F5B3C577F5BCC564F5BDC5D6
:1046580065F5BEC566F5BFC567F5050120EE28F00E
:10466800A251D926A351DA22DEC460F5DEC461F571
:10467800DEC462F5DEC463F540EC20F060C570F579
:1046880061C571F562C572F563C573F5C3EC24F0B5
:1046980070C5B4F571C5B5F572C5B6F573C5B7F58E
:1046A800B4C560F5B5C561F5B6C562F5B7C563F5BE
:1046B800050120EE20F0A251D926A351DA22DEC44A
:1046C80064F5DEC465F5DEC466F5DEC467F540EC66
:1046D80020F0050120EE20F0A251D926A351DA22BC
:1046E80060C5DEF461C5DEF462C5DEF463C5DEF4E0
:1046F80020EE18F0A251D926A351DA22DEC48DF596
:10470800DEC48EF5DEC48FF5DEC490F520EE08F029
:10471800A251D926A351DA22DEC489F5DEC48AF56E
:10472800DEC48BF5DEC48CF5EEEC28F089C570F597
:104738008AC571F58BC572F58CC573F5050120EE38
:1047480028F0A251D926A351DA22DEC48DF5DEC4A1
:104758008EF5DEC48FF5DEC490F5BCC589F5BDC500
:104768008AF5BEC58BF5BFC58CF5C8EC38F089C590
:1047780074F58AC575F58BC576F58CC577F5C3ECE8
:1047880024F0050120EE1CF0A251D926A351DA220B
:1047980070C5DEF471C5DEF472C5DEF473C5DEF4EF
:1047A80020EE20F0A251D926A351DA22DEC464F506
:1047B800DEC465F5DEC466F5DEC467F520EE24F0D8
:1047C800A251D926A351DA22DEC460F5DEC461F510
:1047D800DEC462F5DEC463F540EC20F060C5B8F5D0
:1047E80061C5B9F562C5BAF563C5BBF5B8C560F56D
:1047F800B9C561F5BAC562F5BBC563F5050120EE1B
:104808001CF0A251D926A351DA22DEC464F5DEC415
:1048180065F5DEC466F5DEC467F540EC20F00501F9
:1048280020EE30F0A251D926A351DA2260C5DEF479
:1048380061C5DEF462C5DEF463C5DEF420EE10F077
:10484800A251D926A351DA22DEC489F5DEC48AF53D
:10485800DEC48BF5DEC48CF520EE30F0A251D926EB
:10486800A351DA22DEC48DF5DEC48EF5DEC48FF5E1
:10487800DEC490F5AEEC32F00501D8B046EF24F076
:1048880048EF24F05EEF24F020EE10F0A251D92674
:10489800A351DA2210EE30F0A251E126A351E22210
:1048A800DEC4E6F4DEC4E6F4DEC4E6F4DEC4E6F410
:1048B80098EF24F020EE30F0A251D926A351DA2245
:1048C800DEC489F5DEC48AF5DEC48BF5DEC48CF55A
:1048D80020EE14F0A251D926A351DA22DEC48DF5B8
:1048E800DEC48EF5DEC48FF5DEC490F5AEEC32F092
:1048F8000501D8B082EF24F084EF24F098EF24F07B
:1049080020EE14F0A251D926A351DA2210EE30F08D
:10491800A251E126A351E222DEC4E6F4DEC4E6F4A5
:10492800DEC4E6F4DEC4E6F420EE28F0A251D9266F
:10493800A351DA22BCC5DEF4BDC5DEF4BEC5DEF483
:10494800BFC5DEF420EE2CF0A251D926A351DA22FD
:10495800A8C5DEF4A9C5DEF4AAC5DEF4ABC5DEF44D
:1049680020EE30F0A251D926A351DA22DEC4A2F5F6
:10497800DEC4A3F5DEC4A4F5DEC4A5F51200050166
:104988007351800B7C6F73517325826F72AFCFEFB9
:1049980024F0D1EF24F0D2EF24F082818251D8B4F0
:1049A800D8EF24F0DAEF24F0EDEF24F08229D8A430
:1049B800E0EF24F0E2EF24F0EAEF24F0000E706F4D
:1049C800000E716F000E726F000E736F728FF5EF2D
:1049D80024F0000E706F000E716F000E726F000EE3
:1049E800736F7751800B7C1B77517725816F76AF7A
:1049F80000EF25F002EF25F003EF25F081818151CA
:104A0800D8B409EF25F00BEF25F01EEF25F081292A
:104A1800D8A411EF25F013EF25F01BEF25F0000EB9
:104A2800746F000E756F000E766F000E776F768FBD
:104A380026EF25F0000E746F000E756F000E766F6E
:104A4800000E776F8151D8B42CEF25F02EEF25F0AA
:104A580036EF25F08251D8A434EF25F036EF25F053
:104A680040EF25F0000E706F000E716F000E726F30
:104A7800000E736FD8EF26F076517003F3C487F5F4
:104A8800F4C488F587517D6F7E6B7F6B806B88518E
:104A9800836F846B856B866B75517103F3C487F5DF
:104AA800F4C488F587517D27000E7E237F23802359
:104AB80088518327000E842385238623745172032B
:104AC800F3C487F5F4C488F587517D27000E7E234B
:104AD8007F23802388518327000E84238523862300
:104AE8007FC580F57EC57FF57DC57EF57D6B7451EC
:104AF8007103F3C487F5F4C488F587517D2788517D
:104B08007E23000E7F23000E802375517003F3C4AB
:104B180087F5F4C488F587517D2788517E23000ED8
:104B28007F23000E80237FC580F57EC57FF57DC578
:104B38007EF57D6B74517003F3C487F5F4C488F572
:104B480087517D2788517E23000E7F23000E802306
:104B580076517103F3C487F5F4C488F58751832728
:104B680088518423000E8523000E86237551720315
:104B7800F3C487F5F4C488F58751832788518423C3
:104B8800000E8523000E862376517203F3C487F541
:104B9800F4C488F58751786F8851796F7A6B7B6B8D
:104BA8007AC57BF579C57AF578C579F5786B78514A
:104BB8008327795184237A5185237B5186237DC5A8
:104BC80078F57EC579F57FC57AF580C57BF5190E30
:104BD800F3EF25F0D8907B337A3379337833E82EA6
:104BE800EEEF25F078518327795184237A51852374
:104BF8007B5186237FC580F57EC57FF57DC57EF513
:104C08007D6B815182C578F5796B7827000E792301
:104C1800820E7825876FFF0E7921886F29EF26F09D
:104C2800D890833784378537863780AF1EEF26F0D4
:104C380020EF26F021EF26F08381D8907D377E374C
:104C48007F3780378707D8A0880785AF2EEF26F0F3
:104C580030EF26F014EF26F0000E816F80AF37EFAB
:104C680026F039EF26F05DEF26F0FF0E7D15786F00
:104C7800FF0E7E15796FFF0E7F157A6F7F0E8015F8
:104C88007B6F785179117A117B11D8B44EEF26F0E9
:104C980050EF26F054EF26F0010E816F5DEF26F0FD
:104CA80083A159EF26F05BEF26F05DEF26F050EF79
:104CB80026F08151D8B463EF26F065EF26F089EF2E
:104CC80026F0010E8327000E84238523862386A1E0
:104CD80070EF26F072EF26F089EF26F083C578F59D
:104CE80084C579F585C57AF586C57BF57B357B3333
:104CF8007A337933783378C583F579C584F57AC5FD
:104D080085F57BC586F5874B882B88BF94EF26F001
:104D1800885108E18729D8A094EF26F096EF26F06D
:104D2800A0EF26F0000E836F000E846F800E856F53
:104D38007F0E866FCEEF26F088BFADEF26F0885144
:104D480006E18705D8B0ABEF26F0ADEF26F0B9EF56
:104D580026F0000E836F000E846F000E856F000E24
:104D6800866F000E7C6FCEEF26F087C582F5FF0EAA
:104D78008317FF0E84177F0E8517000E861782A1F2
:104D8800C8EF26F0CAEF26F0CBEF26F0858FD89033
:104D98008231866F7C51861383C570F584C571F5A1
:104DA80085C572F586C573F512000450800B0D6E2B
:104DB80004500424136E03AEE4EF26F0E6EF26F069
:104DC800E7EF26F013801350D8B4EDEF26F0EFEF9D
:104DD80026F002EF27F01328D8A4F5EF26F0F7EF16
:104DE80026F0FFEF26F0000E016E000E026E000E98
:104DF800036E000E046E038E0AEF27F0000E016E9C
:104E0800000E026E000E036E000E046E0850800B3A
:104E18000D1A08500824126E07AE15EF27F017EF89
:104E280027F018EF27F012801250D8B41EEF27F0A1
:104E380020EF27F033EF27F01228D8A426EF27F029
:104E480028EF27F030EF27F0000E056E000E066EF3
:104E5800000E076E000E086E078E3BEF27F0000E5F
:104E6800056E000E066E000E076E000E086E1250DC
:104E7800D8B441EF27F043EF27F04BEF27F013505A
:104E8800D8A449EF27F04BEF27F055EF27F0000E95
:104E9800016E000E026E000E036E000E046EEDEF42
:104EA80028F007500102F3C418F5F4C419F5185096
:104EB8000E6E0F6A106A116A1950146E156A166A16
:104EC800176A06500202F3C418F5F4C419F518500D
:104ED8000E26000E0F221022112219501426000E41
:104EE80015221622172205500302F3C418F5F4C43C
:104EF80019F518500E26000E0F22102211221950F3
:104F08001426000E15221622172210C511F50FC5FA
:104F180010F50EC50FF50E6A05500202F3C418F518
:104F2800F4C419F518500E2619500F22000E10223D
:104F3800000E112206500102F3C418F5F4C419F545
:104F480018500E2619500F22000E1022000E1122A2
:104F580010C511F50FC510F50EC50FF50E6A0550F1
:104F68000102F3C418F5F4C419F518500E261950A7
:104F78000F22000E1022000E112207500202F3C465
:104F880018F5F4C419F51850142619501522000EF6
:104F98001622000E172206500302F3C418F5F4C4B3
:104FA80019F51850142619501522000E1622000E55
:104FB800172207500302F3C418F5F4C419F5185062
:104FC800096E19500A6E0B6A0C6A0BC50CF50AC5F6
:104FD8000BF509C50AF5096A095014260A50152265
:104FE8000B5016220C5017220EC509F50FC50AF5ED
:104FF80010C50BF511C50CF5190E08EF28F0D8905F
:105008000C320B320A320932E82E03EF28F009502D
:1050180014260A5015220B5016220C50172210C5C0
:1050280011F50FC510F50EC50FF50E6A125013C510
:1050380009F50A6A0926000E0A22820E0924186E4A
:10504800FF0E0A20196E3EEF28F0D8901436153658
:105058001636173611AE33EF28F035EF28F036EF55
:1050680028F01480D8900E360F36103611361806F0
:10507800D8A0190616AE43EF28F045EF28F029EF1F
:1050880028F0000E126E11AE4CEF28F04EEF28F00B
:1050980072EF28F0FF0E0E14096EFF0E0F140A6E41
:1050A800FF0E10140B6E7F0E11140C6E09500A10AF
:1050B8000B100C10D8B463EF28F065EF28F069EFF7
:1050C80028F0010E126E72EF28F014A06EEF28F08F
:1050D80070EF28F072EF28F065EF28F01250D8B47E
:1050E80078EF28F07AEF28F09EEF28F0010E1426CA
:1050F800000E15221622172217A085EF28F087EF39
:1051080028F09EEF28F014C509F515C50AF516C54F
:105118000BF517C50CF50C340C320B320A32093278
:1051280009C514F50AC515F50BC516F50CC517F50F
:10513800184A192A19BEA9EF28F0195008E11828A9
:10514800D8A0A9EF28F0ABEF28F0B5EF28F0000EB3
:10515800146E000E156E800E166E7F0E176EE3EF3E
:1051680028F019BEC2EF28F0195006E11804D8B08B
:10517800C0EF28F0C2EF28F0CEEF28F0000E146E32
:10518800000E156E000E166E000E176E000E0D6ED8
:10519800E3EF28F018C513F5FF0E1416FF0E1516C9
:1051A8007F0E1616000E171613A0DDEF28F0DFEF9E
:1051B80028F0E0EF28F0168ED8901330176E0D50B7
:1051C800171214C501F515C502F516C503F517C55F
:1051D80004F5120005018C51800B996F8C518C25B8
:1051E800A06F8BAFFAEF28F0FCEF28F0FDEF28F066
:1051F800A081A051D8B403EF29F005EF29F01AEFE8
:1052080029F0A029D8A40BEF29F00DEF29F015EF0C
:1052180029F0000E896F000E8A6F000E8B6F000E4A
:105228008C6F8B8F000E8C6F22EF29F0000E896F28
:10523800000E8A6F000E8B6F000E8C6F9051800BE2
:10524800991B90519025A16F8FAF2DEF29F02FEF6B
:1052580029F030EF29F0A181A151D8B436EF29F017
:1052680038EF29F04DEF29F0A129D8A43EEF29F015
:1052780040EF29F048EF29F0000E8D6F000E8E6F79
:10528800000E8F6F000E906F8F8F000E906F55EF8E
:1052980029F0000E8D6F000E8E6F000E8F6F000EBE
:1052A800906F8D518E118F119011D8A45EEF29F057
:1052B80060EF29F078EF29F0000E896F000E8A6FF1
:1052C800000E8B6F000E8C6F800E8B137F0E8C136D
:1052D80099518C1389C589F58AC58AF58BC58BF5D3
:1052E8008CC58CF5BBEF2AF0A051D8A47EEF29F02D
:1052F80080EF29F08AEF29F0000E896F000E8A6F7F
:10530800000E8B6F000E8C6FBBEF2AF0A151A0C569
:1053180091F5926B915F000E925B7F0E91259A6FCB
:10532800000E92219B6F89C595F58AC596F58BC5A8
:1053380097F58CC598F5000E896F000E8A6F000EE0
:105348008B6F000E8C6F000E9C6F000E9D6F000E11
:105358009E6F000E9F6F000EA16FEBEF29F0A15119
:10536800D8B4B9EF29F0BBEF29F0D2EF29F0D890E3
:105378009537963797379837D89089378A378B3744
:105388008C379FAFCAEF29F0CCEF29F0CDEF29F089
:105398008981D8909C379D379E379F378D51955D71
:1053A8008E5196598F51975990519859D8A0DFEF3F
:1053B80029F0E1EF29F0EAEF29F09F8D8D51955FF3
:1053C8008E51965B8F51975B9051985BA12B190E6C
:1053D800A165F1EF29F0F3EF29F0B3EF29F095512A
:1053E800961197119811D8B4FCEF29F0FEEF29F027
:1053F80016EF2AF09C8116EF2AF0D89089378A3761
:105408008B378C379FAF0BEF2AF00DEF2AF00EEF9A
:105418002AF08981D8909C379D379E379F379A0705
:10542800D8A09B078BAF1BEF2AF01DEF2AF001EFE6
:105438002AF0000EA16F9FAF24EF2AF026EF2AF082
:105448004AEF2AF0FF0E9C15916FFF0E9D15926F83
:10545800FF0E9E15936F7F0E9F15946F91519211B9
:1054680093119411D8B43BEF2AF03DEF2AF041EFA5
:105478002AF0010EA16F4AEF2AF089A146EF2AF01F
:1054880048EF2AF04AEF2AF03DEF2AF0A151D8B4AC
:1054980050EF2AF052EF2AF076EF2AF0010E892712
:1054A800000E8A238B238C238CA15DEF2AF05FEFFB
:1054B8002AF076EF2AF089C591F58AC592F58BC551
:1054C80093F58CC594F59435943393339233913393
:1054D80091C589F592C58AF593C58BF594C58CF568
:1054E8009A4B9B2B9BBF81EF2AF09B5108E19A298D
:1054F800D8A081EF2AF083EF2AF08EEF2AF0000E71
:105508009B6F9A69000E896F000E8A6F000E8B6F71
:10551800000E8C6F9BBF9BEF2AF09B5106E19A050A
:10552800D8B099EF2AF09BEF2AF0A9EF2AF0000EE5
:105538009B6F000E9A6F000E896F000E8A6F000E27
:105548008B6F000E8C6F000E996F9AC5A0F5A0A105
:10555800B0EF2AF0B2EF2AF0B5EF2AF08B8FB6EF52
:105568002AF08B9FD890A0318C6F6CEF29F0120035
:105578000450800B116E04500424186E03AEC7EF5C
:105588002AF0C9EF2AF0CAEF2AF018801850D8B4C8
:10559800D0EF2AF0D2EF2AF0E7EF2AF01828D8A4A3
:1055A800D8EF2AF0DAEF2AF0E2EF2AF0000E016EC7
:1055B800000E026E000E036E000E046E038E000EC7
:1055C800046EEFEF2AF0000E016E000E026E000E60
:1055D800036E000E046E0850800B111A0850082440
:1055E800196E07AEFAEF2AF0FCEF2AF0FDEF2AF069
:1055F80019801950D8B403EF2BF005EF2BF01AEFF0
:105608002BF01928D8A40BEF2BF00DEF2BF015EF8A
:105618002BF0000E056E000E066E000E076E000ED3
:10562800086E078E000E086E22EF2BF0000E056E36
:10563800000E066E000E076E000E086E055006106E
:1056480007100810D8A42BEF2BF02DEF2BF045EF07
:105658002BF0000E016E000E026E000E036E000E9F
:10566800046E800E03127F0E04121150041201C53D
:1056780001F502C502F503C503F504C504F588EF75
:105688002CF01850D8A44BEF2BF04DEF2BF057EF20
:105698002BF0000E016E000E026E000E036E000E5F
:1056A800046E88EF2CF0195018C509F50A6A095ECE
:1056B800000E0A5A7F0E0924126E000E0A20136E7D
:1056C80001C50DF502C50EF503C50FF504C510F5A6
:1056D800000E016E000E026E000E036E000E046EC8
:1056E800000E146E000E156E000E166E000E176E6C
:1056F800000E196EB8EF2BF01950D8B486EF2BF0C6
:1057080088EF2BF09FEF2BF0D8900D360E360F3622
:105718001036D890013602360336043617AE97EFA6
:105728002BF099EF2BF09AEF2BF00180D8901436DC
:1057380015361636173605500D5C06500E580750AC
:105748000F5808501058D8A0ACEF2BF0AEEF2BF044
:10575800B7EF2BF0178C05500D5E06500E5A075008
:105768000F5A0850105A192A190E1964BEEF2BF057
:10577800C0EF2BF080EF2BF00D500E100F10101013
:10578800D8B4C9EF2BF0CBEF2BF0E3EF2BF014805C
:10579800E3EF2BF0D890013602360336043617AE05
:1057A800D8EF2BF0DAEF2BF0DBEF2BF00180D8905D
:1057B80014361536163617361206D8A0130603AE59
:1057C800E8EF2BF0EAEF2BF0CEEF2BF0000E196E7E
:1057D80017AEF1EF2BF0F3EF2BF017EF2CF0FF0ED5
:1057E8001414096EFF0E15140A6EFF0E16140B6EB4
:1057F8007F0E17140C6E09500A100B100C10D8B439
:1058080008EF2CF00AEF2CF00EEF2CF0010E196EB9
:1058180017EF2CF001A013EF2CF015EF2CF017EF79
:105828002CF00AEF2CF01950D8B41DEF2CF01FEF14
:105838002CF043EF2CF0010E0126000E0222032269
:10584800042204A02AEF2CF02CEF2CF043EF2CF0CC
:1058580001C509F502C50AF503C50BF504C50CF524
:105868000C340C320B320A32093209C501F50AC56B
:1058780002F50BC503F50CC504F5124A132A13BE2D
:105888004EEF2CF0135008E11228D8A04EEF2CF060
:1058980050EF2CF05BEF2CF0000E136E1268000E28
:1058A800016E000E026E000E036E000E046E13BE33
:1058B80068EF2CF0135006E11204D8B066EF2CF014
:1058C80068EF2CF076EF2CF0000E136E000E126EBF
:1058D800000E016E000E026E000E036E000E046EC6
:1058E800000E116E12C518F518A07DEF2CF07FEF91
:1058F8002CF082EF2CF0038E83EF2CF0039ED890CF
:105908001830046E39EF2BF01200D8C4BCF6FAC474
:10591800BDF6FBC4BEF6F6C4BFF6F7C4C0F6F8C4BD
:10592800C1F6F5C4C2F6A1AE9CEF2CF09EEF2CF0A8
:10593800A6EF2DF0B1AEA3EF2CF0A5EF2CF0A6EF5B
:105948002DF050EC39F003011D510601BB6FBA6B05
:1059580003011C510601BA25166F0301000E06014A
:10596800BB21176F000E03011D6F000E1C6F000E88
:105978000501746F000E756F700E766F420E776FAB
:1059880016C660F517C661F5626B636B000EEFEC27
:105998002FF060C570F561C571F562C572F563C514
:1059A80073F5C3EC24F070C589F571C58AF572C525
:1059B8008BF573C58CF59A0E05018D6F990E8E6F58
:1059C800990E8F6F3F0E906FEEEC28F089C56DF63B
:1059D8008AC56EF68BC56FF68CC570F6DB0E0501B1
:1059E800746F0F0E756FC90E766F400E776F6DC6A8
:1059F80070F56EC671F56FC672F570C673F5C3ECB7
:105A080024F070C589F571C58AF572C58BF573C523
:105A18008CF5000E05018D6F000E8E6F700E8F6F66
:105A2800420E906FEEEC28F089C510F68AC511F683
:105A38008BC512F68CC513F610C6A8F511C6A9F5C4
:105A480012C6AAF513C6ABF50CC6A4F50DC6A5F586
:105A58000EC6A6F50FC6A7F5710E0501A26F060EB4
:105A6800A36FA1EC22F0A2C5C3F6A3C5C4F6A4C5D2
:105A7800C5F6A5C5C6F6000E0501746FC00E756F94
:105A8800470E766F440E776FC3C670F5C4C671F5BE
:105A9800C5C672F5C6C673F5C3EC24F070C589F5A2
:105AA80071C58AF572C58BF573C58CF5000E0501B5
:105AB8008D6F000E8E6F400E8F6F410E906FEEEC63
:105AC80028F089C508F68AC509F68BC50AF68CC57B
:105AD8000BF608C660F509C661F50AC662F50BC67D
:105AE80063F52AEC32F060C56AF561C56BF5E3EC45
:105AF80039F0320E0601A56F070EA66F130EA76FB9
:105B080010C6A8F611C6A9F612C6AAF613C6ABF6B1
:105B18007DEC38F0320E0501616F070E626FAAEC5A
:105B280039F0320E0501606F070E616F000E636F6A
:105B3800000E626F000E656F310E646F8DEC39F0E8
:105B4800C2EF2DF0A2A2ABEF2DF0ADEF2DF0C2EF1A
:105B58002DF0B2A2B2EF2DF0B4EF2DF0C2EF2DF080
:105B680002D8C2EF2DF00500FA6E0601D851FD6E7D
:105B7800D951FE6EDA51FF6EFA501200C2C6F5F422
:105B8800C1C6F8F4C0C6F7F4BFC6F6F4BEC6FBF447
:105B9800BDC6FAF4BCC6D8F41100EDC5D9F4EEC5FB
:105BA800DAF4DFC4F6F4260EF76E000EF86E08007D
:105BB800F550250AD8A4E3EF2DF0E5EF2DF0CCEF52
:105BC8002EF0EDC5D9F4EEC5DAF4DF2A000E546ED6
:105BD800000E536E53C5FFF555685668EDC5D9F4E8
:105BE800EEC5DAF4DFC4F6F4260EF76E000EF86E92
:105BF8000800F5502E0AD8A404EF2EF006EF2EF078
:105C080019EF2EF0EDC5D9F4EEC5DAF4DF2AEDC5AB
:105C180066F5EEC567F5EFC568F5F0C569F599EC69
:105C280034F066C555F567C556F5EDC5D9F4EEC52A
:105C3800DAF4DF500501F86FF8C5F6F4260EF76EB2
:105C4800000EF86E0800F5C4F7F536EF2EF0F82BC5
:105C580045EF2EF06C0EF76F45EF2EF0000EF76F44
:105C680045EF2EF0F7514C0AD8B42BEF2EF02A0A44
:105C7800D8B42EEF2EF00A0AD8B42BEF2EF032EF5C
:105C88002EF0F8C5F6F4260EF76E000EF86E080032
:105C9800F550660AD8A453EF2EF055EF2EF0C5EF55
:105CA8002EF08BEF2EF0EFC5D9F4F0C5DAF4DFC48F
:105CB800F1F5040EDE26DFC4F2F5000EDD22F1C593
:105CC800D9F4F2C5DAF4DEC4F3F5DEC4F4F5DEC4C3
:105CD800F5F5DEC4F6F596EF2EF0EFC5D9F4F0C56C
:105CE800DAF4DFC4F1F5040EDE26DFC4F2F5000EA7
:105CF800DD22F1C5D9F4F2C5DAF4DEC4F3F5DEC469
:105D0800F4F5DEC4F5F5DEC4F6F596EF2EF0F7519E
:105D18004C0AD8B471EF2EF0200AD8B457EF2EF001
:105D280096EF2EF0F829EDC5D9F4EEC5DAF4DF6E5A
:105D3800B7EF2EF0EBC5B6F5ECC5B7F5F3C5B8F57A
:105D4800F4C5B9F5F5C5BAF5F6C5BBF5F8C5F6F469
:105D5800260EF76E000EF86E0800F5C4BCF544EC8C
:105D68001BF0E3EF2EF0F8C5F6F4260EF76E000EE2
:105D7800F86E0800F550660AD8B49EEF2EF0C5EF0D
:105D88002EF0EDC5D9F4EEC5DAF4DF2AE3EF2EF0F4
:105D9800EDC5D9F4EEC5DAF4DFC4F6F4260EF76ED5
:105DA800000EF86E0800F5500501606F616BEBC5D9
:105DB80062F5ECC563F533EC34F0C5EF2EF0120054
:105DC80049C5B2F54AC5B3F54BC5B4F54CC5B5F5EB
:105DD800A2C5B2F5A3C5B3F5A4C5B4F5A5C5B5F577
:105DE800810E0501A66FFF0EA76FB2C5A8F5B3C552
:105DF800A9F5B4C5AAF5B5C5ABF5180E09EF2FF08E
:105E0800D890AB33AA33A933A833E82E04EF2FF088
:105E1800A851A625B06F000EA721B16FB1BF1EEF24
:105E28002FF0B15109E1170EB05DD8A01EEF2FF089
:105E380020EF2FF02AEF2FF0A2C5A2F5A3C5A3F5F6
:105E4800A4C5A4F5A5C5A5F5EEEF2FF0B1BF2FEFBA
:105E58002FF031EF2FF0A2EF2FF0B0C5A6F5FF0E0F
:105E6800A76FFF0EA86F7F0EA96F000EAA6FA66717
:105E780040EF2FF048EF2FF0AA35AA33A933A83303
:105E8800A733A62F3BEF2FF0A7C5ACF5A8C5ADF5F6
:105E9800A9C5AEF5AAC5AFF50501AC51B215A66FF7
:105EA800AD51B315A76FAE51B415A86FAF51B51565
:105EB800A96FA651A711A811A911D8A466EF2FF0B0
:105EC80068EF2FF06AEF2FF020EF2FF0B2C5A6F59C
:105ED800B3C5A7F5B4C5A8F5B5C5A9F5200E7AEFE1
:105EE8002FF0D890A933A833A733A633E82E75EF3F
:105EF8002FF0A651A711A811A911D8B486EF2FF039
:105F080088EF2FF090EF2FF0AC51B227AD51B323AB
:105F1800AE51B423AF51B523AC1DA66FAD1DA76F0D
:105F2800AE1DA86FAF1DA96FA651B217A751B31721
:105F3800A851B417A951B517E6EF2FF0B2C5A6F5C9
:105F4800B3C5A7F5B4C5A8F5B5C5A9F5200EB2EF38
:105F58002FF0D890A933A833A733A633E82EADEF96
:105F68002FF0A651A711A811A911D8A4BEEF2FF0A0
:105F7800C0EF2FF0CAEF2FF0000EB26F000EB36F14
:105F8800000EB46F000EB56FE6EF2FF0D890B23563
:105F9800A66FB335A76FB435A86FB535A96FA651ED
:105FA800A711A811A911D8B4DCEF2FF0DEEF2FF05C
:105FB800E6EF2FF0000EB26F000EB36F800EB46FD5
:105FC800BF0EB56FB2C5A2F5B3C5A3F5B4C5A4F5A8
:105FD800B5C5A5F512000501686F05016851D8B46B
:105FE800F8EF2FF0FAEF2FF01CEF30F063BF01EF5E
:105FF80030F0FFEF2FF01CEF30F060C564F561C59D
:1060080065F562C566F563C567F5641F651F661F9C
:10601800671F642B000E65236623672364C56AF532
:1060280065C56BF566C56CF567C56DF524EF30F091
:1060380060C56AF561C56BF562C56CF563C56DF53C
:106048006051611162116311D8A42DEF30F02FEF68
:1060580030F039EF30F0000E606F000E616F000E07
:10606800626F000E636FCAEF30F0960E696F43EFF0
:1060780030F0692BD8906D336C336B336A33000E74
:106088006A15646F000E6B15656F000E6C15666FF0
:10609800FE0E6D15676F6451651166116711D8A4FE
:1060A80058EF30F05AEF30F03DEF30F068EF30F055
:1060B800692B010E6A27000E6B236C236D23D89081
:1060C8006D336C336B336A33000E6A15646F000EE0
:1060D8006B15656F000E6C15666FFF0E6D15676F9B
:1060E8006451651166116711D8A47DEF30F07FEF18
:1060F80030F05CEF30F087EF30F06907D8906A37FE
:106108006B376C376D376CBF8CEF30F08EEF30F03B
:1061180096EF30F0020E696194EF30F096EF30F0B0
:1061280081EF30F069B19BEF30F09DEF30F09EEFDA
:1061380030F06C9FD890693369C564F5656B666B00
:10614800676B64C567F5666B656B646B64516A134E
:1061580065516B1366516C1367516D136851D8B450
:10616800B8EF30F0BAEF30F0C2EF30F063BFC1EFF4
:1061780030F0BFEF30F0C2EF30F06D8F6AC560F5D8
:106188006BC561F56CC562F56DC563F51200096EE6
:106198000950D8B4D2EF30F0D4EF30F0F6EF30F049
:1061A80004BEDBEF30F0D9EF30F0F6EF30F001C588
:1061B80005F502C506F503C507F504C508F5051E6E
:1061C800061E071E081E052A000E062207220822A0
:1061D80005C50BF506C50CF507C50DF508C50EF583
:1061E800FEEF30F001C50BF502C50CF503C50DF542
:1061F80004C50EF50150021003100410D8A407EFCF
:1062080031F009EF31F013EF31F0000E016E000E9E
:10621800026E000E036E000E046EA4EF31F0960EAF
:106228000A6E1DEF31F00A2AD8900E320D320C3268
:106238000B32000E0B14056E000E0C14066E000EC9
:106248000D14076EFE0E0E14086E0550061007108A
:106258000810D8A432EF31F034EF31F017EF31F0F5
:1062680042EF31F00A2A010E0B26000E0C220D22F5
:106278000E22D8900E320D320C320B32000E0B1457
:10628800056E000E0C14066E000E0D14076EFF0E40
:106298000E14086E0550061007100810D8A457EF02
:1062A80031F059EF31F036EF31F061EF31F00A0695
:1062B800D8900B360C360D360E360DBE66EF31F023
:1062C80068EF31F070EF31F0020E0A606EEF31F0D6
:1062D80070EF31F05BEF31F00AB075EF31F077EF26
:1062E80031F078EF31F00D9ED8900A320AC505F5E5
:1062F800066A076A086A05C508F5076A066A056A2C
:1063080005500B1206500C1207500D1208500E12B1
:106318000950D8B492EF31F094EF31F09CEF31F09E
:1063280004BE9BEF31F099EF31F09CEF31F00E8E07
:106338000BC501F50CC502F50DC503F50EC504F531
:106348001200FAC433F5FBC434F5F6C435F5F7C4C6
:1063580036F5F8C437F5F5C438F5A2A0B6EF31F034
:10636800B8EF31F01DEF32F0B2A0BDEF31F0BFEF62
:1063780031F01DEF32F002D8CCEF31F00500FA6EA3
:106388005D50FD6E5E50FE6E5F50FF6EFA5012005B
:10639800A1C25CF5440E5C18D8A4D5EF31F0D7EF54
:1063A80031F0DBEF31F0C280C2921DEF32F0490EBE
:1063B8005C18D8A4E2EF31F0E4EF31F0E8EF31F007
:1063C800C282C2901DEF32F0780E5C18D8A4EFEFAD
:1063D80031F0F1EF31F014EF32F0000E1A6E070EC3
:1063E8001B6E000E1C6E000E1D6E14EC13F01AC509
:1063F8000CF61BC50DF61CC50EF61DC50FF6000ED6
:10640800016E070E026E000E046E000E036E5BC571
:1064180005F5066AFFEC39F0000E5B6E1DEF32F0F1
:10642800000E5B24D96EDA6A070EDA225CC5DFF447
:106438005B2A38C5F5F437C5F8F436C5F7F435C521
:10644800F6F434C5FBF433C5FAF4110005016235DE
:106458006335696F6951D8A434EF32F036EF32F002
:1064680040EF32F0000E606F000E616F000E626F39
:10647800000E636FADEF32F060C564F561C565F578
:1064880062C566F563C567F5200E50EF32F0D89007
:106498006733663365336433E82E4BEF32F064516B
:1064A800686F628FFF0E6017FF0E6117FF0E62178D
:1064B800000E6317960E695F69BF67EF32F065EFEC
:1064C80032F07DEF32F06951800A970FD8B06FEF44
:1064D80032F071EF32F073EF32F036EF32F0D890DD
:1064E8006333623361336033693F73EF32F095EFA2
:1064F80032F01F0E696583EF32F085EF32F08DEFD1
:1065080032F036EF32F0D890603761376237633750
:1065180069076951D8A493EF32F095EF32F087EF0D
:1065280032F06851D8B49BEF32F09DEF32F0A5EF0E
:1065380032F0631F621F611F606D000E61236223CA
:10654800632360C560F561C561F562C562F563C521
:1065580063F51200000E05018915916F000E8A156A
:10656800926F800E8B15936F7F0E8C15946F9151DF
:10657800921193119411D8A4C4EF32F0C6EF32F0FF
:10658800CEEF32F0000E896F000E8A6F000E8B6F0F
:10659800000E8C6F000E8D15916F000E8E15926F88
:1065A800800E8F15936F7F0E9015946F91519211F5
:1065B80093119411D8A4E3EF32F0E5EF32F0EDEF48
:1065C80032F0000E8D6F000E8E6F000E8F6F000E72
:1065D800906F8CAFF2EF32F0F4EF32F0FDEF32F063
:1065E800896D8A1FD8B08A2B8B1FD8B08B2B800E51
:1065F8008C5790AF02EF33F004EF33F00DEF33F028
:106608008D6D8E1FD8B08E2B8F1FD8B08F2B800E1C
:106618009057000E891B000E8A1B000E8B1B800EE4
:106628008C1B000E8D1B000E8E1B000E8F1B800E08
:10663800901B8D51895D8E518A598F518B5990517C
:106648008C59D8B02AEF33F02CEF33F02FEF33F01A
:10665800D89030EF33F0D8801200000E0114096E84
:10666800000E02140A6E800E03140B6E7F0E0414C3
:106678000C6E09500A100B100C10D8A446EF33F01A
:1066880048EF33F050EF33F0000E016E000E026E4B
:10669800000E036E000E046E000E0514096E000E47
:1066A80006140A6E800E07140B6E7F0E08140C6E0B
:1066B80009500A100B100C10D8A465EF33F067EFDF
:1066C80033F06FEF33F0000E056E000E066E000E0D
:1066D800076E000E086E04AE74EF33F076EF33F0F9
:1066E8007FEF33F0016C021ED8B0022A031ED8B027
:1066F800032A800E045608AE84EF33F086EF33F099
:106708008FEF33F0056C061ED8B0062A071ED8B0E6
:10671800072A800E0856000E011A000E021A000EF3
:10672800031A800E041A000E051A000E061A000E2F
:10673800071A800E081A0550015C065002580750C7
:10674800035808500458D8B0ACEF33F0AEEF33F02C
:10675800B1EF33F0D890B2EF33F0D88012004DC5C6
:106768006AF54EC56BF54FC56CF550C56DF560C53E
:106778006AF561C56BF562C56CF563C56DF56AC5EB
:1067880064F56BC565F56CC566F56DC567F5180EDE
:10679800D4EF33F00501D89067336633653364333B
:1067A800E82ECEEF33F06451686F696B6851691158
:1067B800D8A4E1EF33F0E3EF33F003EF34F0D890EF
:1067C8006A35646F6B35656F6C35666F6D35676FED
:1067D8006451651166116711D8A4F5EF33F0F7EF2E
:1067E80033F0FDEF33F0000E616F020E606F32EF91
:1067F80034F0000E616F030E606F32EF34F06829D9
:106808006911D8A40AEF34F00CEF34F02EEF34F00D
:106818006AC564F56BC565F56CC566F56DC567F544
:10682800090ED8906437653766376737E82E15EF55
:1068380034F06451651166116711D8B426EF34F04D
:1068480029EF34F0010E2AEF34F0000E606F616B0F
:1068580032EF34F0000E616F040E606F1200050114
:1068680062516311D8B43BEF34F03DEF34F046EF9A
:1068780034F062516311D8A444EF34F046EF34F099
:106888004BEF34F060515CEC3BF098EF34F020EEC5
:106898000AF06251D9266351DA22DE50DE10D8B4EC
:1068A80058EF34F05AEF34F075EF34F020EE0AF078
:1068B8006251D9266351DA2210EE03F06251E126C3
:1068C8006351E222DE50E65CE650800A686FDE50D3
:1068D800800A6859D8B073EF34F075EF34F098EF48
:1068E80034F020EE03F06251D9266351DA22DEC477
:1068F80064F5DDC465F562C5D9F463C5DAF4DEC4B0
:1069080066F5DDC467F564516625D96E6551672162
:10691800DA6E60C5DFF420EE03F06251D9266351C8
:10692800DA22DE2A000EDD221200000E05016E6F4B
:10693800000E6D6F66C5D9F467C5DAF4DFC4F6F4E6
:10694800260EF76E000EF86E0800F5502A0AD8A435
:10695800B0EF34F0B2EF34F0E3EF34F066C5D9F4B9
:1069680067C5DAF4DF2A68C5D9F469C5DAF4DFC483
:106978006AF5020EDE26DFC46BF5000EDD226AC55D
:10698800D9F46BC5DAF4DEC46DF5DDC46EF5F9EF44
:1069980034F06DC560F56EC561F5000E636F0A0EC3
:1069A800626F94EC3AF005016C5160256D6F000E32
:1069B80061216E6F66C5D9F467C5DAF4DF2A66C54A
:1069C800D9F467C5DAF4DFC4F6F4260EF76E000EC4
:1069D800F86E0800F550D00F6C6F090E6C65F7EF74
:1069E80034F0F9EF34F0CDEF34F06DC566F56EC5CF
:1069F80067F51200390E06011925D96EDA6A050EF7
:106A0800DA22DF6A0201B2A70CEF35F00EEF35F09B
:106A180023EF35F0390E06011925D96EDA6A050E0D
:106A2800DA22DF8202D823EF35F00500FA6ED5515D
:106A3800FD6ED651FE6ED751FF6EFA50120002015C
:106A4800B2A329EF35F02BEF35F040EF35F0390ED2
:106A580006011925D96EDA6A050EDA22DF8402D812
:106A680040EF35F00500FA6ED251FD6ED351FE6E3F
:106A7800D451FF6EFA501200390E06011925D96E4D
:106A8800DA6A050EDA22DF50D8B44DEF35F04FEF51
:106A980035F05EEF35F002D85CEF35F00500FA6EA0
:106AA800CF51FD6ED051FE6ED151FF6EFA501200DB
:106AB80060EF35F07EEC3AF01200A290FC0E060171
:106AC800C76F690EC86F000EC96F30EC3BF0A29219
:106AD800D80E0601C76F710EC86F000EC96F29EC7A
:106AE8003BF0000E0201A56F000EA66F000EA76F07
:106AF800000EA86F000EA96F000EAA6FB00EAB6F44
:106B0800800EAC6F000EAD6F8A0EAE6F000EAF6FC9
:106B1800000EB06F000EB16F000EB26F000EB36FB3
:106B2800BE0E0601C76F760EC86F000EC96F3EEC29
:106B38003BF0BC0E0601C76F760EC86F000EC96F1A
:106B480037EC3BF0B20E0601C76F760EC86F000E29
:106B5800C96F45EC3BF0000E0601186F000E1C6F64
:106B6800000E1B6F080E1A6F000E196F000E5A6E7A
:106B7800000E596EA2801200000EC26E000EC16E89
:106B8800000EBE6E000EC36E000EBF6E000EC06E0D
:106B9800040ECA6EF20ECB6EC668C768C868C968AC
:106BA80004011869FE0E106F0869040E206FF00EBC
:106BB800286F0069000E196F000E296F000E216FF3
:106BC800000E096F000E016F000E116F000E02011A
:106BD800896F000E886F000E876F000E866F000E9B
:106BE8000401226F000E2A6F000E026F000E0A6F5A
:106BF800000E126F000E1A6F03690B6913691B6987
:106C0800070E236F2B6904690C6914691C690F0E40
:106C1800246F2C69100E0201426F200E296F290E75
:106C2800726F150E2B6F1200000E05016015686F4C
:106C3800000E6115696F800E62156A6F7F0E63150D
:106C48006B6F685169116A116B11D8A42EEF36F079
:106C580030EF36F038EF36F0000E606F000E616FDF
:106C6800000E626F000E636F000E6415686F000EF1
:106C78006515696F800E66156A6F7F0E67156B6FF5
:106C8800685169116A116B11D8A44DEF36F04FEFB6
:106C980036F057EF36F0000E646F000E656F000E89
:106CA800666F000E676F645160190FE165516119D5
:106CB8000CE16651621909E167516319D8B467EFAD
:106CC80036F069EF36F06CEF36F0D8906DEF36F0AD
:106CD800D8801200000E0114096E000E02140A6E0C
:106CE800800E03140B6E7F0E04140C6E09500A10EC
:106CF8000B100C10D8A483EF36F085EF36F08DEF2B
:106D080036F0000E016E000E026E000E036E000ECD
:106D1800046E000E0514096E000E06140A6E800E2D
:106D280007140B6E7F0E08140C6E09500A100B1016
:106D38000C10D8A4A2EF36F0A4EF36F0ACEF36F082
:106D4800000E056E000E066E000E076E000E086E31
:106D5800055001180FE1065002180CE107500318FE
:106D680009E108500418D8B4BCEF36F0BEEF36F08D
:106D7800C1EF36F0D890C2EF36F0D8801200060185
:106D880020EE1CF0C751D926C851DA22000EDE6E5B
:106D9800000EDE6E000EDE6E000EDD6E20EE20F0C0
:106DA800C751D926C851DA22000EDE6E000EDE6EFB
:106DB800000EDE6E000EDD6E20EE28F0C751D926DB
:106DC800C851DA22000EDE6E000EDE6E000EDE6E98
:106DD800000EDD6E20EE2CF0C751D926C851DA22FC
:106DE800000EDE6E000EDE6E000EDE6E000EDD6E34
:106DF80020EE30F0C751D926C851DA22000EDE6ED7
:106E0800000EDE6E000EDE6E000EDD6E1200050155
:106E180075BF13EF37F011EF37F017EF37F0000EAB
:106E2800756F000E746F000E786F000E776F2AEF83
:106E380037F0000E616F200E606F70C562F571C586
:106E480063F533EC34F00501774B782B7451775D9B
:106E58007851800A766F7551800A7659D8A037EF35
:106E680037F039EF37F01DEF37F072C569F573C5A4
:106E78006AF570C56BF571C56CF5A4EC38F01200B5
:106E8800000E096E000E0A6E000E0B6E000E0C6EE0
:106E980001A051EF37F053EF37F05BEF37F00550B3
:106EA800092606500A2207500B2208500C22D890B7
:106EB8000536063607360836D890043203320232D1
:106EC80001320150021003100410D8A46EEF37F0FD
:106ED80070EF37F04CEF37F009C501F50AC502F538
:106EE8000BC503F50CC504F512006E0EF66E740E94
:106EF800F76E000EF86E01EE71F210EE34F0090034
:106F0800F5C4EEF4E550E150FAE101EE00F3640E49
:106F1800EE6AE806FDE101EE00F2710EEE6AE8069F
:106F2800FDE10501FF6B01EE39F1240EEE6AE8067A
:106F3800FDE10401080E5D6F000E5E6F000E5F6FCD
:106F48000001F1EF3AF00501606F06011A51D8B45B
:106F5800B0EF37F0B2EF37F0A9EF37F0A2B2B7EFE2
:106F680037F0B9EF37F0BDEF37F060C5A3F2D2EFD5
:106F780037F0A292410E1C25D96EDA6A050EDA2284
:106F880060C5DFF41C2B070E1C65CDEF37F0CFEF83
:106F980037F0D1EF37F0000E1C6F1A07A2821200EB
:106FA800050163BFDAEF37F0DCEF37F0E6EF37F0D3
:106FB80060C560F561C561F562C562F563C563F5D5
:106FC800FFEF37F060C564F561C565F562C566F524
:106FD80063C567F5641F651F661F671F642B000E76
:106FE80065236623672364C560F565C561F566C5D5
:106FF80062F567C563F51200010E076E01C503F55A
:10700800D00E0326090E03640CEF38F00EEF38F0AB
:1070180027EF38F0200E0110036E000E0210046EE8
:107028009F0E0324056EFF0E0420066E065009E12C
:10703800060E055CD8A023EF38F025EF38F027EFCF
:1070480038F0000E076E07C501F5026A1200FBC58D
:10705800FEF53EEF38F0F9C5EBF5FAC5ECF5FE0E96
:107068000501ED6F050EEE6FFCC5EFF5FDC5F0F5FA
:10707800D1EC2DF0FEC5F6F4260EF76E000EF86E74
:107088000800F5500009D8A44CEF38F04EEF38F05E
:107098002FEF38F0000E0501FA6F000EF96F12009D
:1070A80062C568F563C569F560C566F561C567F5CC
:1070B8006EEF38F068C5D9F469C5DAF4DF506A6F45
:1070C800684B692B66C5D9F467C5DAF46AC5DFF47D
:1070D800664B672B05016407D8A06507642906E19C
:1070E8006529D8A47AEF38F07CEF38F05EEF38F0F5
:1070F8001200A80E0601AC6F060EAD6FA5C6AEF65F
:10710800A6C6AFF6000EB26F000EB16F000EB96FD3
:10711800000EB86FAE0E0501F96F060EFA6FA7C61E
:10712800FBF5AC0EFC6F060EFD6F2BEC38F006017C
:10713800B151A525D96EB251A621DA6EDF6A1200C7
:10714800000E05016F6F000E6E6FB7EF38F06DC55A
:1071580060F5616B6BC562F56CC563F533EC34F0B3
:1071680005016E4B6F2B6E516925D96E6F516A21DF
:10717800DA6EDF506D6F6D51D8A4C5EF38F0C7EFE8
:1071880038F0ABEF38F01200000E05018D1B000E31
:107198008E1B000E8F1B800E901B89C560F58AC55B
:1071A80061F58BC562F58CC563F58DC564F58EC533
:1071B80065F58FC566F590C567F540EC20F060C5AC
:1071C80089F561C58AF562C58BF563C58CF5120032
:1071D800080E06011A61F3EF38F0F5EF38F00DEFFD
:1071E80039F0410E1B25D96EDA6A050EDA22DF5016
:1071F8000201A36F06011B2B070E1B6506EF39F072
:1072080008EF39F00AEF39F0000E1B6F1A2B0EEF5A
:1072180039F0A2921200520E03011B6F630E196F10
:10722800C00E186F185119C3CAF60601CB6BCAC62F
:10723800CBF6CA6BCA11146FCB51156FB19EA18ED4
:10724800BA0EC76F760EC86F000EC96F4CEC3BF0D4
:10725800900E03011A6F120060C564F561C565F5EB
:107268000501622B6205636F63C5F6F4260EF76E9F
:10727800000EF86E64C5D9F465C5DAF4644B652B65
:107288000800F5C4DFF4DF50D8A44DEF39F04FEF14
:1072980039F034EF39F01200B19E0601155103019F
:1072A800196F14C618F30601CC51CD11CE11D8B4FC
:1072B80060EF39F062EF39F06FEF39F002D86FEF15
:1072C80039F00500FA6ECC51FD6ECD51FE6ECE51EF
:1072D800FF6EFA501200120005016051611162112F
:1072E8006311D8B47AEF39F07CEF39F084EF39F0D4
:1072F800000E601B000E611B000E621B800E631BDC
:1073080060C560F561C561F562C562F563C563F581
:10731800120060C566F561C567F59BEF39F066C573
:10732800D9F467C5DAF462C5DFF4664B672B05014B
:107338006407D8A06507642906E16529D8A4A7EFE2
:1073480039F0A9EF39F093EF39F0120061C563F510
:1073580062C564F5BAEF39F063C5D9F464C5DAF4E7
:10736800DF50A7EC37F00501634B642B63C5D9F4F4
:1073780064C5DAF4DF50D8A4C4EF39F0C6EF39F0A9
:10738800B0EF39F01200000E03011F6F000E206FDE
:10739800000E216F000E1D6F000E1C6FB1981C515E
:1073A8001DC3C7F60601C86BC7C6C8F6C76BC711A9
:1073B800576EC851586E010E03011E6F1200050169
:1073C800FF0E6A17030E6B17030142A9EEEF39F09F
:1073D800F0EF39F0F8EF39F00501060ED8906A376A
:1073E8006B37E82EF2EF39F005016B510301416F5D
:1073F8006AC540F3120001C507F502C508F50DEF8F
:107408003AF007C5D9F408C5DAF403C5DFF4074A2A
:10741800082A0506D8A00606052806E10628D8A4E5
:1074280018EF3AF01AEF3AF005EF3AF0120001506F
:10743800021003100410D8B424EF3AF026EF3AF003
:107448002EEF3AF0000E011A000E021A000E031A6F
:10745800800E041A01C501F502C502F503C503F53E
:1074680004C504F512009D499B3CA6D5F03E7D4419
:1074780048390000000000004041000000000AD721
:10748800233C000000000000000000000000000095
:107498000000000000000000000001C503F59F0E79
:1074A80003261A0E03605BEF3AF05DEF3AF063EFE4
:1074B8003AF05F0E0114016E026A67EF3AF001C5F7
:1074C80001F502C502F51200D00E0124036EFF0E6D
:1074D8000220046E04500AE10A0E035CD8A077EF7C
:1074E8003AF07AEF3AF0010E7BEF3AF0000E016EB7
:1074F800026A1200000E06011925D96EDA6A060E14
:10750800DA22A1C2DFF4192B070E19658EEF3AF0C3
:1075180090EF3AF092EF3AF0000E196F592A1200E4
:10752800050160516203F3C464F5F4C465F5605164
:107538006303F350652761516203F350652764C5FF
:1075480060F565C561F5120053EC3BF0CEEC3AF0FE
:10755800C0EC35F00FEC3BF01DEC3BF000EC3BF0E1
:10756800C7EC39F00FEC39F061EC35F0120001503E
:107578000302F3C405F5F4C406F501500402F35000
:10758800062602500302F350062605C501F506C576
:1075980002F51200000E0001606F000E616F000E10
:1075A800636F000E646F000E656F000E666F000E4D
:1075B800676F000E686F1200FF0E056EFF0E066EF5
:1075C800FF0E076E7F0E086E05C501F506C502F5AC
:1075D80007C503F508C504F51200A8EC3AF0D68EE5
:1075E800D68C710E0601C76F060EC86FC3EC36F055
:1075F800FCEF3AF00EEF00F0010E0301266F000ECB
:10760800256F000E276FC70E236F000E226FB196ED
:10761800B00E246F1200600E0001AD6F000EAF6F48
:10762800000EB36F080EB16F000EB06F000EAC6F96
:1076380012008C0E0301426F030E416F1F0E406F44
:107648004C51FC0B01094C6F1200C7C6D8F6C8C6CE
:10765800D9F6C9C6DAF61200C7C65DF5C8C65EF522
:10766800C9C65FF51200C7C6D2F6C8C6D3F6C9C6E2
:10767800D4F61200C7C6D5F6C8C6D6F6C9C6D7F618
:107688001200C7C6CFF6C8C6D0F6C9C6D1F61200D2
:10769800C7C6CCF6C8C6CDF6C9C6CEF61200D68A7D
:1076A80003016681659F669312007EEC3AF0120032
:0876B800120012001200120082
:020000040020DA
:10000000FF0FFF0FFF0FFF0FFF0FFF0FFF0FFF0F80
:10001000FF0FFF0FFF0FFF0FFF0FFF0FFF0FFF0F70
:020000040030CA
:0A0000008CFFF7FF9FFFFFFFFFFFDB
:00000001FF
