:04000000FEEFFFF020
:1025000000562900000000000000C02D000000005F
:102510001C2C000000000000000000000000000073
:1025200000000000000000000000000000000000AB
:1025300000000000000000000000000000AC2C00C3
:102540008A2C00682C0000000056616C6F722041DC
:102550004443202575202D2056616C6F7220505702
:102560004D2025750A0D00000EC5D9F40FC5DAF40B
:10257000DFC4F6F4250EF76E000EF86E0800F55075
:10258000250AD8A4C6EF12F0C8EF12F070EF13F0CE
:102590000EC5D9F40FC5DAF4DF2A000E3E6E000E28
:1025A0003D6E3DC543F53F6840680EC5D9F40FC583
:1025B000DAF4DF50186E18C5F6F4250EF76E000E2B
:1025C000F86E0800F550750AD8A4E9EF12F0EBEFA9
:1025D00012F069EF13F010C5D9F411C5DAF4DFC4B5
:1025E00012F5020EDE26DFC413F5000EDD2212C541
:1025F000D9F413C5DAF4DEC414F5DDC415F51828D2
:102600000EC5D9F40FC5DAF4DF6E5BEF13F0200EC0
:10261000196E1906600E1924D96EDA6A050EDA22CF
:1026200014C501F515C502F5000E046E0A0E036E01
:1026300065EC15F00150300FDF6E14C501F515C5BE
:1026400002F5000E046E0A0E036E2BEC15F001C5A8
:1026500014F502C515F514501510D8B432EF13F067
:1026600034EF13F050EF13F01950D8A43AEF13F0F1
:102670003CEF13F009EF13F050EF13F0600E192444
:10268000D96EDA6A050EDA22DF50126E1250036E2E
:10269000046A0CC505F50DC506F5F3EC13F0192A0F
:1026A000200E1918D8A457EF13F059EF13F03EEF8E
:1026B00013F086EF13F018C5F6F4250EF76E000E32
:1026C000F86E0800F550750AD8B407EF13F069EFFB
:1026D00013F00EC5D9F40FC5DAF4DF2A86EF13F034
:1026E0000EC5D9F40FC5DAF4DFC4F6F4250EF76E83
:1026F000000EF86E0800F550036E046A0CC505F56F
:102700000DC506F5F3EC13F069EF13F01200000E9F
:10271000BE6E000EBF6E000EC06E000EC16E000ECB
:10272000C26E000EC36EC668C768C868C9680F0E5F
:10273000CA6EF60ECB6E040100690869106918694B
:10274000070E206FFC0E286F000E016F000E096F40
:10275000000E116F000E196F000E216F000E296F11
:10276000000E026F000E0A6F000E126F000E1A6F3D
:10277000000E226F000E2A6F03690B6913691B6933
:10278000070E236F2B6904690C6914691C690F0E0D
:10279000246F2C69000E0201896F000E886F000EF5
:1027A000876F000E866F290E726F200E296F180E2C
:1027B0002C6F000E0401056F000E066F000E076FF0
:1027C000000E0D6F000E0E6F000E0F6F000E156FD6
:1027D000000E166F000E176F000E256F000E266F8D
:1027E000000E276F120005500610D8B4FAEF13F050
:1027F000FCEF13F005EF14F005500610D8A403EF1A
:1028000014F005EF14F00AEF14F0035076EC16F014
:1028100057EF14F020EE0AF00550D9260650DA22C0
:10282000DE50DE10D8B417EF14F019EF14F034EFC7
:1028300014F020EE0AF00550D9260650DA2210EEE8
:1028400003F00550E1260650E222DE50E65CE65039
:10285000800A0B6EDE50800A0B58D8B032EF14F0AD
:1028600034EF14F057EF14F020EE03F00550D926A2
:102870000650DA22DEC407F5DDC408F505C5D9F433
:1028800006C5DAF4DEC409F5DDC40AF507500924EB
:10289000D96E08500A20DA6E03C5DFF420EE03F08B
:1028A0000550D9260650DA22DE2A000EDD2212005B
:1028B00093EC16F0000ED5EC16F0150E276EC60E32
:1028C000E82EFED7272EFCD700D0A0EC16F001C5CD
:1028D00029F502C52AF5E4EC16F0E7EC16F029C557
:1028E00027F52AC528F5273A283AF00E281627504A
:1028F0000F0B2812F00E271627C501F528C502F583
:10290000DBEC16F0490E206E29C521F52AC522F50B
:1029100029C527F52AC528F5273A283AF00E2816A2
:1029200027500F0B2812F00E271627C523F528C5B0
:1029300024F523EC16F0110E286E3C0E276ECB0EFC
:10294000E82EFED7272EFCD7282EFAD700005AEF04
:1029500014F0FEEFFFF0000E0201A16F000EA26F57
:10296000000EA36F000EA46F000EA56F000EA66FE1
:10297000000EA76F000EA86F000EA96F000EAA6FC1
:10298000B00EAB6F800EAC6F080EAD6F8A0EAE6FDF
:10299000000EAF6F2E0EB06F000EB16F800EB26FD3
:1029A000000EB36F000E016E000E026E000E036E7D
:1029B00056EC16F0000E016E000E026E000E036E55
:1029C00045EC16F0000E016E000E026E000E036E56
:1029D00034EC16F0000E426E000E416E1200000E36
:1029E000606E030E616E000E626E6368F90E646EB7
:1029F000000E656E000E666E000E676E000E686E4D
:102A0000000E6A6E800E6B6E020E6C6E000E6D6EA6
:102A10007D0E6E6EB29CB29E67906792A29EA29C43
:102A2000000E016E000E026E000E036EB2EC16F088
:102A3000000E016E000E026E000E036EABEC16F07F
:102A4000000E016E000E026E000E036EB9EC16F061
:102A5000800E696E1200000E066E000E056E0350A9
:102A60000410D8B436EF15F038EF15F060EF15F01C
:102A7000010E076E40EF15F0D89003360436072A92
:102A800004AE45EF15F047EF15F03CEF15F0D89088
:102A9000053606360350015C04500258D8A053EFA7
:102AA00015F055EF15F05AEF15F00350015E045084
:102AB000025A0580D89004320332072E47EF15F0F2
:102AC00005C501F506C502F5120003500410D8B47F
:102AD0006CEF15F06EEF15F092EF15F0010E056E2C
:102AE00076EF15F0D89003360436052A04AE7BEF56
:102AF00015F07DEF15F072EF15F00350015C0450F6
:102B00000258D8A086EF15F088EF15F08CEF15F07D
:102B10000350015E0450025AD89004320332052E4D
:102B20007DEF15F001C501F502C502F51200000E9A
:102B30000301D96F000EDA6F000EDB6F000EDC6F41
:102B4000000EDF6F000EE06F000EE56F000EE76F06
:102B5000000EEC6F010EEE6F000EEF6F000EF06FC7
:102B6000000EF16F000EF26F000EF46F100EF56F95
:102B7000000EF66F000EF76F000EF86F000EF96F83
:102B80001F0EFA6F840EF36FAF94B09012001CC545
:102B90001FF5D9EF15F01AC50CF51BC50DF51F0E65
:102BA0000E6E050E0F6E1DC510F51EC511F5B4ECA9
:102BB00012F01FC5F6F4250EF76E000EF86E080031
:102BC000F5500009D8A4E7EF15F0E9EF15F0CBEFC9
:102BD00015F0000E1B6E000E1A6E1200D69AAF9002
:102BE000D680000E016E000E026E000E036ECEEC5B
:102BF00016F0B490D682000E016E000E026E000E2A
:102C0000036EC7EC16F0B890D684000E016E000E6D
:102C1000026E000E036EC0EC16F01200000E016E84
:102C20000201B0AB16EF16F018EF16F021EF16F018
:102C3000ABAB1DEF16F01FEF16F021EF16F0010EF3
:102C4000016E01501200210E256E050E266E000E3B
:102C50001A6E000E1B6E20C51CF5250E1D6E050E8E
:102C60001E6EC7EC15F01200015002100310D8B40C
:102C70003CEF16F03EEF16F044EF16F001C52BF5D1
:102C800002C52CF503C52DF51200015002100310EA
:102C9000D8B44DEF16F04FEF16F055EF16F001C512
:102CA0002EF502C52FF503C530F5120001500210B4
:102CB0000310D8B45EEF16F060EF16F066EF16F072
:102CC00001C531F502C532F503C533F5120001EE39
:102CD00060F1200EEE6AE806FDE101EE2BF1190E1F
:102CE000EE6AE806FDE1000158EF14F0026E0EEC0A
:102CF00016F00009D8B47FEF16F081EF16F077EFE9
:102D000016F00250E0EC16F01200600E0001AD6FFC
:102D1000000EAF6F000EB36F080EB16F000EB06FF4
:102D2000000EAC6F120085EC16F087EC13F097ECF8
:102D300015F0EFEC14F0ABEC14F0EEEC15F0120023
:102D40000301EB51046E036AEA510324016E000E85
:102D50000420026E120001C547F502C548F503C5FF
:102D600049F5120001C54AF502C54BF503C54CF5FE
:102D7000120001C544F502C545F503C546F512002C
:102D800001C534F502C535F503C536F5120001C598
:102D900037F502C538F503C539F5120001C53AF516
:102DA00002C53BF503C53CF51200016E01C5ECF30D
:102DB0000301F381120001C56BF402506C6E120026
:102DC000016E01C5A3F212000301F39112006984A0
:022DD0001200EF
:020000040001F9
:04FFFC0067EF16F0A5
:020000040030CA
:08000000FFFFF7FF9FFFFFFF68
:01000900FFF7
:00000001FF
