:04000000FEEFFFF020
:10250000008E4A00000000000000AA4F00000000FA
:102510003A4E000000000000000000000000000033
:1025200000000000000000000000000000000000AB
:1025300000000000000000000000000000F04E005D
:10254000CE4E00AC4E00000000304F0000000054A2
:102550004800B24F00000000DC4B0000000000000B
:10256000000000000000000000000000000000006B
:102570000000000200000F00024000000054454D22
:102580005045524154555241203A2025302E326652
:102590000A0D00696E66006E616E0000000E050196
:1025A000816F36C582F537C583F538C584F539C5E1
:1025B00085F585BFE0EF12F0DEEF12F0F4EF12F0D8
:1025C000010E816F82C501F583C502F584C503F54F
:1025D00085C504F5ECEC26F001C582F502C583F54E
:1025E00003C584F504C585F5000E0501876F000E4F
:1025F000866FAEC571F5AFC572F58151D8B403EFE2
:1026000013F005EF13F019EF13F08151D8A40BEF7D
:1026100013F00DEF13F013EF13F0000E676F2B0E96
:10262000666F17EF13F0000E676F2D0E666F66C5AD
:1026300081F582C501F583C502F584C503F585C51D
:1026400004F562EC22F001040210D8A42AEF13F082
:102650002CEF13F05DEF13F005018151D8B433EF87
:1026600013F035EF13F03EEF13F081C500F671075C
:10267000D8A07207000E876F010E866F000E8625A8
:10268000016E060E8721026E930E036ECDEC26F0CE
:102690000501FD0E7127FF0E722334C513F535C5F4
:1026A00014F5000E156E060E166E71C517F572C57F
:1026B00018F58CEC25F0FBEF17F082C501F583C50A
:1026C00002F584C503F585C504F562EC22F00150DE
:1026D0000210D8A46EEF13F070EF13F08EEF13F02A
:1026E00005018151D8B477EF13F079EF13F082EF41
:1026F00013F081C500F67107D8A07207000E876F2E
:10270000010E866F000E8625016E060E8721026E71
:10271000970E036ECDEC26F048EF13F0000E050186
:10272000886F000E896F800E8A6F3F0E8B6F000ED0
:10273000706F000E6F6F82C501F583C502F584C509
:1027400003F585C504F5000E056E000E066E000E3D
:10275000076E000E086EF2EC24F0D8B0B2EF13F062
:10276000B4EF13F093EF14F0C1EF13F073C588F5D5
:1027700074C589F575C58AF576C58BF505016F4B6E
:10278000702B88C50FF589C510F58AC511F58BC565
:1027900012F5000E136E000E146E200E156E410E13
:1027A000166E5CEC1AF00FC573F510C574F511C503
:1027B00075F512C576F505017351825D016E745190
:1027C0008359026E75518459036E76518559046E92
:1027D000C3EC25F004BEF8EF13F004500310021010
:1027E00009E1020E015CD8A0F8EF13F0FAEF13F044
:1027F000B6EF13F073C528F574C529F575C52AF52C
:1028000076C52BF582C52CF583C52DF584C52EF52F
:1028100085C52FF5E0EC21F0D8A011EF14F013EFEF
:1028200014F0B6EF13F005018851825D016E8951F5
:102830008359026E8A518459036E8B518559046EF7
:10284000C3EC25F004BE32EF14F004500310021064
:1028500007E1020E015CD8B030EF14F032EF14F053
:102860007AEF14F088C582F589C583F58AC584F5A9
:102870008BC585F593EF14F088C501F589C502F580
:102880008AC503F58BC504F5000E056E000E066EB5
:10289000200E076E410E086E71EC1CF001C588F524
:1028A00002C589F503C58AF504C58BF505016F07D7
:1028B000D8A070078851825D016E89518359026EDC
:1028C0008A518459036E8B518559046EC3EC25F0EF
:1028D00004BE78EF14F004500310021007E1020E5A
:1028E000015CD8B076EF14F078EF14F07AEF14F0C2
:1028F00032EF14F082C528F583C529F584C52AF581
:1029000085C52BF588C52CF589C52DF58AC52EF50D
:102910008BC52FF5E0EC21F0D8A091EF14F093EFE8
:1029200014F03CEF14F03AC569F569C56AF55EBE6E
:102930009CEF14F09EEF14F0A4EF14F05DC562F567
:102940005EC563F5A9EF14F0000E0501636F060E76
:10295000626F62C56DF563C56EF505016D4B6E2B3B
:10296000660E6A19D8A4B7EF14F0B9EF14F0D9EFD6
:1029700014F070BFC0EF14F0BEEF14F0CCEF14F001
:10298000000E886F000E896F800E8A6F3F0E8B6F6E
:10299000000E706F000E6F6F670E6919D8B4D3EF19
:1029A00014F0D5EF14F0D9EF14F06F516D2770517A
:1029B0006E23000E806F000E7F6F82C577F583C592
:1029C00078F584C579F585C57AF588C573F589C527
:1029D00074F58AC575F58BC576F56AEF15F077C580
:1029E00001F578C502F579C503F57AC504F588C502
:1029F00005F589C506F58AC507F58BC508F571EC9F
:102A00001CF001C51AF502C51BF503C51CF504C56C
:102A10001DF57AEC1FF01AC57BF51BC57CF51CC5AE
:102A20007DF51DC57EF57BC501F57CC502F57DC52F
:102A300003F57EC504F55DEC21F001C56BF502C51B
:102A40006CF577C528F578C529F579C52AF57AC5D5
:102A50002BF57BC513F57CC514F57DC515F57EC535
:102A600016F588C50FF589C510F58AC511F58BC512
:102A700012F55CEC1AF00FC52CF510C52DF511C53B
:102A80002EF512C52FF568EC26F028C577F529C577
:102A900078F52AC579F52BC57AF588C501F589C57C
:102AA00002F58AC503F58BC504F5000E056E000E10
:102AB000066E200E076E410E086E71EC1CF001C50B
:102AC00088F502C589F503C58AF504C58BF50501AE
:102AD0007F4B802B6D517F5D8051800A3B6E6E5124
:102AE000800A3B58D8A077EF15F079EF15F0EFEF9B
:102AF00014F088C50FF589C510F58AC511F58BC589
:102B000012F5000E136E000E146EA00E156E400E20
:102B1000166E5CEC1AF00FC57BF510C57CF511C57F
:102B20007DF512C57EF577C528F578C529F579C5F7
:102B30002AF57AC52BF57BC52CF57CC52DF57DC511
:102B40002EF57EC52FF5E0EC21F0D8B0AAEF15F0F8
:102B5000ACEF15F0B7EF15F0000E05017B6F000E1E
:102B60007C6F000E7D6F000E7E6FE0EF15F077C575
:102B700001F578C502F579C503F57AC504F57BC57D
:102B800005F57CC506F57DC507F57EC508F5F2ECB3
:102B900024F0D8A0CEEF15F0D0EF15F0E0EF15F04F
:102BA00005016BB1D6EF15F0D8EF15F0E0EF15F099
:102BB000000E7B6F000E7C6F000E7D6F000E7E6F2F
:102BC00082C501F583C502F584C503F585C504F505
:102BD0007BC505F57CC506F57DC507F57EC508F501
:102BE000FCEC17F001C577F502C578F503C579F55A
:102BF00004C57AF577C528F578C529F579C52AF58C
:102C00007AC52BF5000E136E000E146E200E156E95
:102C1000410E166E73C50FF574C510F575C511F527
:102C200076C512F55CEC1AF00FC52CF510C52DF524
:102C300011C52EF512C52FF5E0EC21F0D8A023EF39
:102C400016F025EF16F04EEF16F005016F4B702BC6
:102C500073C50FF574C510F575C511F576C512F578
:102C6000000E136E000E146E200E156E410E166EC1
:102C70005CEC1AF00FC573F510C574F511C575F548
:102C800012C576F5660E05016A19D8A44AEF16F04A
:102C90004CEF16F04EEF16F06D4B6E2B73C588F5AA
:102CA00074C589F575C58AF576C58BF56FC560F570
:102CB00070C561F5000E0501686F000E656F000EAE
:102CC000646F000E806F000E7F6F4CEF17F077C5BA
:102CD00001F578C502F579C503F57AC504F588C50F
:102CE00005F589C506F58AC507F58BC508F571ECAC
:102CF0001CF001C51AF502C51BF503C51CF504C57A
:102D00001DF57AEC1FF01AC57BF51BC57CF51CC5BB
:102D10007DF51DC57EF57BC501F57CC502F57DC53C
:102D200003F57EC504F55DEC21F002BEA3EF16F0BD
:102D3000025007E10A0E015CD8B0A1EF16F0A3EF34
:102D400016F0B3EF16F07BC501F57CC502F57DC525
:102D500003F57EC504F55DEC21F001C56BF502C5F8
:102D60006CF5B8EF16F0000E05016C6F090E6B6F75
:102D700005016851D8A4BFEF16F0C1EF16F0E9EFD6
:102D800016F061BFC8EF16F0C6EF16F0E9EF16F0C7
:102D9000000E8625D96E060E8721DA6E2E0EDF6EA6
:102DA000864B872B7107D8A07207010E686FE9EF79
:102DB00016F0000E8625D96E060E8721DA6E300ECB
:102DC000DF6E864B872B7107D8A072076407D8A0E7
:102DD000650764516511D8A4F0EF16F0F2EF16F014
:102DE000D9EF16F0000E8625D96E060E8721DA6E11
:102DF0006B51300FDF6E864B872B7107D8A072079F
:102E000077C528F578C529F579C52AF57AC52BF552
:102E10007BC513F57CC514F57DC515F57EC516F586
:102E200088C50FF589C510F58AC511F58BC512F552
:102E30005CEC1AF00FC52CF510C52DF511C52EF55B
:102E400012C52FF568EC26F028C577F529C578F569
:102E50002AC579F52BC57AF588C501F589C502F52E
:102E60008AC503F58BC504F5000E056E000E066ECF
:102E7000200E076E410E086E71EC1CF001C588F53E
:102E800002C589F503C58AF504C58BF50501600700
:102E9000D8A061077F4B802B6D517F5D8051800AE8
:102EA0003B6E6E51800A3B58D8B059EF17F05BEF7C
:102EB00017F069EF17F087BF67EF17F0875109E147
:102EC0004B0E865DD8A067EF17F069EF17F067EF3C
:102ED00016F0000E806F4F0E7F6F000E7F25D96EAB
:102EE000060E8021DA6EDF6A000E3B6E060E3C6E27
:102EF00086513B5E87513C5A7F513B24016E805185
:102F00003C20026E000E036E060E046E86C505F5AB
:102F100087C506F540EC26F0050186517F5D866F7A
:102F200087518059876F8151D8A499EF17F09CEF92
:102F300017F0010E9DEF17F0000E7F6F806B5FA200
:102F4000A4EF17F0A6EF17F0D4EF17F0B6EF17F0D5
:102F50008607D8A08707000E8625D96E060E872122
:102F6000DA6E300EDF6E7107D8A0720771517F5D87
:102F70008051800A3B6E7251800A3B58D8B0C3EF33
:102F800017F0C5EF17F0D4EF17F086517F5D805131
:102F9000800A3B6E8751800A3B58D8A0D2EF17F0C9
:102FA000D4EF17F0A8EF17F08151D8B4DAEF17F08B
:102FB000DCEF17F0E7EF17F08607D8A08707000EC1
:102FC0008625D96E060E8721DA6E81C5DFF47F5122
:102FD000715F8051725B34C513F535C514F5000E71
:102FE0008625156E060E8721166E71C517F572C5FA
:102FF00018F58CEC25F012000450800B0D6E045077
:1030000004240F6E03AE07EF18F009EF18F00AEF73
:1030100018F00F800F50D8B410EF18F012EF18F01E
:1030200027EF18F00F28D8A418EF18F01AEF18F0AF
:1030300022EF18F0000E016E000E026E000E036EFD
:10304000000E046E038E000E046E2FEF18F0000EBB
:10305000016E000E026E000E036E000E046E08502C
:10306000800B0E6E0D500E18D8B439EF18F03BEFF0
:1030700018F03CEF18F00D8C085008240E6E07AEC7
:1030800044EF18F046EF18F047EF18F00E800E509E
:10309000D8B44DEF18F04FEF18F064EF18F00E2889
:1030A000D8A455EF18F057EF18F05FEF18F0000EA6
:1030B000056E000E066E000E076E000E086E078E7F
:1030C000000E086E6CEF18F0000E056E000E066E16
:1030D000000E076E000E086E0F500E5CD8B073EF36
:1030E00018F075EF18F09CEF18F00DAC7AEF18F0AF
:1030F0007CEF18F07EEF18F0800E0D1A0FC510F55A
:103100000EC50FF510C50EF501C510F505C501F585
:1031100010C505F502C510F506C502F510C506F582
:1031200003C510F507C503F510C507F504C510F56F
:1031300008C504F510C508F5000E106E0F500EC539
:1031400009F50A6A095E000E0A5A0ABEB1EF18F0C4
:103150000A5009E11A0E095CD8A0B1EF18F0B3EFDC
:1031600018F0EAEF18F00150021003100410D8A470
:10317000BCEF18F0BFEF18F0010EC0EF18F0000E12
:10318000106E000E016E000E026E000E036E000E39
:10319000046E0EC50FF5F3EF18F010A0D2EF18F083
:1031A000D4EF18F0DAEF18F0D89010300109106E53
:1031B000DCEF18F0D890103201A0E1EF18F0E3EF47
:1031C00018F0E4EF18F0108E0434043203320232A7
:1031D00001320F2A0E500F5CD8A0F1EF18F0F3EF78
:1031E00018F0CDEF18F00DBCF8EF18F0FAEF18F06A
:1031F0003AEF19F00F50D8A400EF19F002EF19F0D0
:103200000CEF19F0000E016E000E026E000E036E40
:10321000000E046E5BEF1AF00550012606500222E4
:10322000075003220850042204A019EF19F01BEFE5
:1032300019F0C7EF19F010A020EF19F022EF19F0E4
:1032400028EF19F0D89010300109106E2AEF19F00C
:10325000D890103201A02FEF19F031EF19F032EFB2
:1032600019F0108E043404320332023201320F2A74
:10327000C7EF19F00550015C06500258075003587B
:103280000450800A096E0850800A0958D8B04BEFE4
:1032900019F04DEF19F078EF19F00150055C096E47
:1032A000025006580A6E035007580B6E0450085817
:1032B0000C6EFF0E0924016EFF0E0A20026EFF0E37
:1032C0000B20036EFF0E0C20046E800E0D1A106C86
:1032D0001050D8A46EEF19F070EF19F080EF19F0CC
:1032E000010E0126000E02220322042280EF19F0B3
:1032F0000550015E0650025A0750035A0850045AFE
:103300000150021003100410D8A489EF19F08BEFBC
:1033100019F0C0EF19F01050D8A491EF19F093EF05
:1033200019F0C0EF19F0000E016E000E026E000ED3
:10333000036E000E046E5BEF1AF0D8900136023671
:103340000336043610AEA7EF19F0A9EF19F0AAEF73
:1033500019F0018010A0AFEF19F0B1EF19F0B5EF3F
:1033600019F0D8801036B7EF19F0D89010360F50FA
:10337000D8B4BDEF19F0BFEF19F0C0EF19F00F0688
:1033800003AEC5EF19F0C7EF19F09DEF19F0000E6D
:103390000E6E10AECEEF19F0D0EF19F0E8EF19F085
:1033A00010C509F57F0E0916D8B4D9EF19F0DBEF77
:1033B00019F0DFEF19F0010E0E6EE8EF19F001A021
:1033C000E4EF19F0E6EF19F0E8EF19F0DBEF19F090
:1033D0000E50D8B4EEEF19F0F0EF19F01BEF1AF021
:1033E000010E0126000E02220322042204A0FBEF9C
:1033F00019F0FDEF19F01BEF1AF001C509F502C530
:103400000AF503C50BF504C50CF50C340C320B3270
:103410000A32093209C501F50AC502F50BC503F5E3
:103420000CC504F50F28D8B418EF1AF01AEF1AF0EB
:103430001BEF1AF00F2A0F28D8B421EF1AF023EF50
:103440001AF02BEF1AF00F50D8A429EF1AF02BEF37
:103450001AF03DEF1AF0000E016E000E026E000E23
:10346000036E000E046E0F50D8A439EF1AF03BEF34
:103470001AF03DEF1AF0000E0D6E0FA042EF1AF099
:1034800044EF1AF047EF1AF0038E48EF1AF0039E4C
:10349000D8900F30046E0DAE50EF1AF052EF1AF0C4
:1034A00053EF1AF0048E01C501F502C502F503C5FC
:1034B00003F504C504F512001250800B1B6E125068
:1034C0001224216E11AE67EF1AF069EF1AF06AEF5D
:1034D0001AF021802150D8B470EF1AF072EF1AF070
:1034E00085EF1AF02128D8A478EF1AF07AEF1AF0B5
:1034F00082EF1AF0000E0F6E000E106E000E116EAD
:10350000000E126E118E8DEF1AF0000E0F6E000E6F
:10351000106E000E116E000E126E1650800B1B1AEC
:1035200016501624206E15AE98EF1AF09AEF1AF086
:103530009BEF1AF020802050D8B4A1EF1AF0A3EF2F
:103540001AF0B6EF1AF02028D8A4A9EF1AF0ABEFC2
:103550001AF0B3EF1AF0000E136E000E146E000E88
:10356000156E000E166E158EBEEF1AF0000E136E5D
:10357000000E146E000E156E000E166E2050D8B49C
:10358000C4EF1AF0C6EF1AF0CEEF1AF02150D8A40B
:10359000CCEF1AF0CEEF1AF0D8EF1AF0000E0F6E43
:1035A000000E106E000E116E000E126E70EF1CF009
:1035B00015500F02F3C426F5F4C427F526501C6EEF
:1035C0001D6A1E6A1F6A2750226E236A246A256AB2
:1035D00014501002F3C426F5F4C427F526501C2617
:1035E000000E1D221E221F2227502226000E2322FB
:1035F0002422252213501102F3C426F5F4C427F522
:1036000026501C26000E1D221E221F222750222675
:10361000000E2322242225221EC51FF51DC51EF5DE
:103620001CC51DF51C6A13501002F3C426F5F4C422
:1036300027F526501C2627501D22000E1E22000EA4
:103640001F2214500F02F3C426F5F4C427F52650A8
:103650001C2627501D22000E1E22000E1F221EC5F2
:103660001FF51DC51EF51CC51DF51C6A13500F0264
:10367000F3C426F5F4C427F526501C2627501D2236
:10368000000E1E22000E1F2215501002F3C426F554
:10369000F4C427F52650222627502322000E242288
:1036A000000E252214501102F3C426F5F4C427F5A8
:1036B0002650222627502322000E2422000E2522E7
:1036C00015501102F3C426F5F4C427F52650176EE1
:1036D0002750186E196A1A6A19C51AF518C519F50E
:1036E00017C518F5176A17502226185023221950AB
:1036F00024221A5025221CC517F51DC518F51EC514
:1037000019F51FC51AF5190E8BEF1BF0D8901A3258
:10371000193218321732E82E86EF1BF01750222686
:1037200018502322195024221A5025221EC51FF595
:103730001DC51EF51CC51DF51C6A205021C517F5B9
:10374000186A1726000E1822820E1724266EFF0E06
:103750001820276EC1EF1BF0D8902236233624366E
:1037600025361FAEB6EF1BF0B8EF1BF0B9EF1BF01C
:103770002280D8901C361D361E361F362606D8A04D
:10378000270624AEC6EF1BF0C8EF1BF0ACEF1BF012
:10379000000E206E1FAECFEF1BF0D1EF1BF0F5EF48
:1037A0001BF0FF0E1C14176EFF0E1D14186EFF0E7B
:1037B0001E14196E7F0E1F141A6E17501810191050
:1037C0001A10D8B4E6EF1BF0E8EF1BF0ECEF1BF09B
:1037D000010E206EF5EF1BF022A0F1EF1BF0F3EFCE
:1037E0001BF0F5EF1BF0E8EF1BF02050D8B4FBEF17
:1037F0001BF0FDEF1BF021EF1CF0010E2226000E46
:1038000023222422252225A008EF1CF00AEF1CF019
:1038100021EF1CF022C517F523C518F524C519F5AD
:1038200025C51AF51A341A3219321832173217C54B
:1038300022F518C523F519C524F51AC525F5264A1C
:10384000272A27BE2CEF1CF0275008E12628D8A0F5
:103850002CEF1CF02EEF1CF038EF1CF0000E226E47
:10386000000E236E800E246E7F0E256E66EF1CF018
:1038700027BE45EF1CF0275006E12604D8B043EFE1
:103880001CF045EF1CF051EF1CF0000E226E000EF4
:10389000236E000E246E000E256E000E1B6E66EF6A
:1038A0001CF026C521F5FF0E2216FF0E23167F0EF3
:1038B0002416000E251621A060EF1CF062EF1CF00C
:1038C00063EF1CF0248ED8902130256E1B502512FA
:1038D00022C50FF523C510F524C511F525C512F530
:1038E00012000450800B116E04500424186E03AEB5
:1038F0007CEF1CF07EEF1CF07FEF1CF0188018505E
:10390000D8B485EF1CF087EF1CF09CEF1CF0182852
:10391000D8A48DEF1CF08FEF1CF097EF1CF0000E79
:10392000016E000E026E000E036E000E046E038E1A
:10393000000E046EA4EF1CF0000E016E000E026E6D
:10394000000E036E000E046E0850800B111A085012
:103950000824196E07AEAFEF1CF0B1EF1CF0B2EF08
:103960001CF019801950D8B4B8EF1CF0BAEF1CF055
:10397000CFEF1CF01928D8A4C0EF1CF0C2EF1CF048
:10398000CAEF1CF0000E056E000E066E000E076EEC
:10399000000E086E078E000E086ED7EF1CF0000EAA
:1039A000056E000E066E000E076E000E086E0550C6
:1039B000061007100810D8A4E0EF1CF0E2EF1CF08E
:1039C000FAEF1CF0000E016E000E026E000E036E88
:1039D000000E046E800E03127F0E041211500412AA
:1039E00001C501F502C502F503C503F504C504F5DB
:1039F0003DEF1EF01850D8A400EF1DF002EF1DF0AF
:103A00000CEF1DF0000E016E000E026E000E036E34
:103A1000000E046E3DEF1EF0195018C509F50A6A34
:103A2000095E000E0A5A7F0E0924126E000E0A204B
:103A3000136E01C50DF502C50EF503C50FF504C5DE
:103A400010F5000E016E000E026E000E036E000EE9
:103A5000046E000E146E000E156E000E166E000E33
:103A6000176E000E196E6DEF1DF01950D8B43BEFB4
:103A70001DF03DEF1DF054EF1DF0D8900D360E36C1
:103A80000F361036D890013602360336043617AE9C
:103A90004CEF1DF04EEF1DF04FEF1DF00180D89060
:103AA000143615361636173605500D5C06500E586E
:103AB00007500F5808501058D8A061EF1DF063EF61
:103AC0001DF06CEF1DF0178C05500D5E06500E5A60
:103AD00007500F5A0850105A192A190E196473EF1B
:103AE0001DF075EF1DF035EF1DF00D500E100F108D
:103AF0001010D8B47EEF1DF080EF1DF098EF1DF090
:103B0000148098EF1DF0D890013602360336043643
:103B100017AE8DEF1DF08FEF1DF090EF1DF00180BF
:103B2000D89014361536163617361206D8A0130656
:103B300003AE9DEF1DF09FEF1DF083EF1DF0000E13
:103B4000196E17AEA6EF1DF0A8EF1DF0CCEF1DF01B
:103B5000FF0E1414096EFF0E15140A6EFF0E1614D4
:103B60000B6E7F0E17140C6E09500A100B100C1000
:103B7000D8B4BDEF1DF0BFEF1DF0C3EF1DF0010E77
:103B8000196ECCEF1DF001A0C8EF1DF0CAEF1DF0BB
:103B9000CCEF1DF0BFEF1DF01950D8B4D2EF1DF0DF
:103BA000D4EF1DF0F8EF1DF0010E0126000E0222E9
:103BB0000322042204A0DFEF1DF0E1EF1DF0F8EF77
:103BC0001DF001C509F502C50AF503C50BF504C5CD
:103BD0000CF50C340C320B320A32093209C501F5EE
:103BE0000AC502F50BC503F50CC504F5124A132AE4
:103BF00013BE03EF1EF0135008E11228D8A003EF04
:103C00001EF005EF1EF010EF1EF0000E136E12688E
:103C1000000E016E000E026E000E036E000E046EAA
:103C200013BE1DEF1EF0135006E11204D8B01BEFB7
:103C30001EF01DEF1EF02BEF1EF0000E136E000E97
:103C4000126E000E016E000E026E000E036E000E6C
:103C5000046E000E116E12C518F518A032EF1EF09A
:103C600034EF1EF037EF1EF0038E38EF1EF0039E88
:103C7000D8901830046EEEEF1CF012008EC5D9F407
:103C80008FC5DAF4DFC4F6F4250EF76E000EF86E79
:103C90000800F550250AD8A450EF1EF052EF1EF090
:103CA00063EF1FF08EC5D9F48FC5DAF4DF2A000E5A
:103CB0000501AF6F000EAE6FAEC55FF55D685E6863
:103CC000000E436E82EF1EF05F828EC5D9F48FC561
:103CD000DAF4DF2A82EF1EF0010E436E82EF1EF04F
:103CE0008EC5D9F48FC5DAF4DFC4F6F4250EF76E6D
:103CF000000EF86E0800F550300AD8B464EF1EF0DC
:103D00006CEF1EF04350D8B488EF1EF08AEF1EF01F
:103D100070EF1EF08EC5D9F48FC5DAF4DFC4F6F467
:103D2000250EF76E000EF86E0800F5502E0AD8A486
:103D30009CEF1EF09EEF1EF0B1EF1EF08EC5D9F481
:103D40008FC5DAF4DF2A8EC507F58FC508F590C553
:103D500009F591C50AF58FEC24F007C55DF508C596
:103D60005EF58EC5D9F48FC5DAF4DF50456E45C5D2
:103D7000F6F4250EF76E000EF86E0800F5C444F553
:103D8000CDEF1EF0452ADCEF1EF06C0E446EDCEF2A
:103D90001EF0000E446EDCEF1EF044504C0AD8B406
:103DA000C2EF1EF02A0AD8B4C5EF1EF00A0AD8B432
:103DB000C2EF1EF0C9EF1EF045C5F6F4250EF76EF2
:103DC000000EF86E0800F550660AD8A4EAEF1EF05F
:103DD000ECEF1EF05CEF1FF022EF1FF090C5D9F45E
:103DE00091C5DAF4DFC43DF5040EDE26DFC43EF5EE
:103DF000000EDD223DC5D9F43EC5DAF4DEC43FF540
:103E0000DEC440F5DEC441F5DEC442F52DEF1FF0FF
:103E100090C5D9F491C5DAF4DFC43DF5040EDE2671
:103E2000DFC43EF5000EDD223DC5D9F43EC5DAF40F
:103E3000DEC43FF5DEC440F5DEC441F5DEC442F524
:103E40002DEF1FF044504C0AD8B408EF1FF0200AA1
:103E5000D8B4EEEF1EF02DEF1FF045288EC5D9F433
:103E60008FC5DAF4DF6E4EEF1FF08CC534F58DC5CB
:103E700035F53FC536F540C537F541C538F542C57E
:103E800039F545C5F6F4250EF76E000EF86E0800FC
:103E9000F5C43AF5CEEC12F079EF1FF045C5F6F413
:103EA000250EF76E000EF86E0800F550660AD8B4BD
:103EB00035EF1FF05CEF1FF08EC5D9F48FC5DAF433
:103EC000DF2A79EF1FF08EC5D9F48FC5DAF4DFC48D
:103ED000F6F4250EF76E000EF86E0800F550036E2E
:103EE000046A8CC505F58DC506F5C5EC23F05CEFBD
:103EF0001FF0120097C52AF598C52BF599C52CF52A
:103F00009AC52DF51AC52AF51BC52BF51CC52CF530
:103F10001DC52DF5810E1E6EFF0E1F6E2AC520F5E4
:103F20002BC521F52CC522F52DC523F5180E9EEFC6
:103F30001FF0D8902332223221322032E82E99EF1E
:103F40001FF020501E24286E000E1F20296E29BE4F
:103F5000B3EF1FF0295009E1170E285CD8A0B3EF8A
:103F60001FF0B5EF1FF0BFEF1FF01AC51AF51BC504
:103F70001BF51CC51CF51DC51DF582EF20F029BEE3
:103F8000C4EF1FF0C6EF1FF036EF20F028C51EF576
:103F9000FF0E1F6EFF0E206E7F0E216E000E226E32
:103FA0001E66D5EF1FF0DDEF1FF0223422322132E2
:103FB00020321F321E2ED0EF1FF01FC524F520C562
:103FC00025F521C526F522C527F524502A141E6E95
:103FD00025502B141F6E26502C14206E27502D14A4
:103FE000216E1E501F1020102110D8A4FAEF1FF0D0
:103FF000FCEF1FF0FEEF1FF0B5EF1FF02AC51EF516
:104000002BC51FF52CC520F52DC521F5200E0EEF73
:1040100020F0D890213220321F321E32E82E09EFD4
:1040200020F01E501F1020102110D8B41AEF20F0DD
:104030001CEF20F024EF20F024502A2625502B22BC
:1040400026502C2227502D22241C1E6E251C1F6E4C
:10405000261C206E271C216E1E502A161F502B1660
:1040600020502C1621502D167AEF20F02AC51EF56F
:104070002BC51FF52CC520F52DC521F5200E46EFCB
:1040800020F0D890213220321F321E32E82E41EF2C
:1040900020F01E501F1020102110D8A452EF20F045
:1040A00054EF20F05EEF20F0000E2A6E000E2B6E13
:1040B000000E2C6E000E2D6E7AEF20F0D8902A3470
:1040C0001E6E2B341F6E2C34206E2D34216E1E502C
:1040D0001F1020102110D8B470EF20F072EF20F0E4
:1040E0007AEF20F0000E2A6E000E2B6E800E2C6EE2
:1040F000BF0E2D6E2AC51AF52BC51BF52CC51CF558
:104100002DC51DF51200096E0950D8B48AEF20F0B4
:104110008CEF20F0AEEF20F004BE93EF20F091EF93
:1041200020F0AEEF20F001C505F502C506F503C588
:1041300007F504C508F5051E061E071E081E052AFC
:10414000000E06220722082205C50BF506C50CF550
:1041500007C50DF508C50EF5B6EF20F001C50BF546
:1041600002C50CF503C50DF504C50EF5015002108E
:1041700003100410D8A4BFEF20F0C1EF20F0CBEF64
:1041800020F0000E016E000E026E000E036E000E97
:10419000046E5CEF21F0960E0A6ED5EF20F00A2A2D
:1041A000D8900E320D320C320B32000E0B14056E0D
:1041B000000E0C14066E000E0D14076EFE0E0E148B
:1041C000086E0550061007100810D8A4EAEF20F07A
:1041D000ECEF20F0CFEF20F0FAEF20F00A2A010EEA
:1041E0000B26000E0C220D220E22D8900E320D321C
:1041F0000C320B32000E0B14056E000E0C14066E02
:10420000000E0D14076EFF0E0E14086E05500610FA
:1042100007100810D8A40FEF21F011EF21F0EEEFF6
:1042200020F019EF21F00A06D8900B360C360D3627
:104230000E360DBE1EEF21F020EF21F028EF21F009
:10424000020E0A6026EF21F028EF21F013EF21F093
:104250000AB02DEF21F02FEF21F030EF21F00D9E6D
:10426000D8900A320AC505F5066A076A086A05C5C4
:1042700008F5076A066A056A05500B1206500C120B
:1042800007500D1208500E120950D8B44AEF21F011
:104290004CEF21F054EF21F004BE53EF21F051EF29
:1042A00021F054EF21F00E8E0BC501F50CC502F57F
:1042B0000DC503F50EC504F51200033404340A6E6F
:1042C0000A50D8A466EF21F068EF21F072EF21F0D8
:1042D000000E016E000E026E000E036E000E046EE4
:1042E000DFEF21F001C505F502C506F503C507F5A9
:1042F00004C508F5200E82EF21F0D890083207326D
:1043000006320532E82E7DEF21F00550096E038E4E
:10431000FF0E0116FF0E0216FF0E0316000E041606
:10432000960E0A5E0ABE99EF21F097EF21F0AFEFEB
:1043300021F00A50800A970FD8B0A1EF21F0A3EF27
:1043400021F0A5EF21F068EF21F0D890043203327C
:10435000023201320A3EA5EF21F0C7EF21F01F0E15
:104360000A64B5EF21F0B7EF21F0BFEF21F068EF5D
:1043700021F0D89001360236033604360A060A5078
:10438000D8A4C5EF21F0C7EF21F0B9EF21F0095013
:10439000D8B4CDEF21F0CFEF21F0D7EF21F0041EFC
:1043A000031E021E016C000E02220322042201C51C
:1043B00001F502C502F503C503F504C504F51200B5
:1043C000000E2814306E000E2914316E800E2A144F
:1043D000326E7F0E2B14336E30503110321033108A
:1043E000D8A4F5EF21F0F7EF21F0FFEF21F0000E58
:1043F000286E000E296E000E2A6E000E2B6E000E27
:104400002C14306E000E2D14316E800E2E14326E70
:104410007F0E2F14336E3050311032103310D8A469
:1044200014EF22F016EF22F01EEF22F0000E2C6E99
:10443000000E2D6E000E2E6E000E2F6E2BAE23EF93
:1044400022F025EF22F02EEF22F0286C291ED8B0A2
:10445000292A2A1ED8B02A2A800E2B562FAE33EFD7
:1044600022F035EF22F03EEF22F02C6C2D1ED8B05A
:104470002D2A2E1ED8B02E2A800E2F56000E281A56
:10448000000E291A000E2A1A800E2B1A000E2C1A62
:10449000000E2D1A000E2E1A800E2F1A2C50285C9A
:1044A0002D5029582E502A582F502B58D8B05BEF3A
:1044B00022F05DEF22F060EF22F0D89061EF22F061
:1044C000D88012009BC50BF59CC50CF59DC50DF55C
:1044D0009EC50EF501C50BF502C50CF503C50DF51E
:1044E00004C50EF50BC505F50CC506F50DC507F59C
:1044F0000EC508F5180E82EF22F0D8900832073268
:1045000006320532E82E7DEF22F00550096E0A6A68
:1045100009500A10D8A48FEF22F091EF22F0B1EFEA
:1045200022F0D8900B34056E0C34066E0D34076EF5
:104530000E34086E0550061007100810D8A4A3EF1B
:1045400022F0A5EF22F0ABEF22F0000E026E020E79
:10455000016EE0EF22F0000E026E030E016EE0EF3E
:1045600022F009280A10D8A4B8EF22F0BAEF22F0FE
:10457000DCEF22F00BC505F50CC506F50DC507F5FA
:104580000EC508F5090ED8900536063607360836EA
:10459000E82EC3EF22F00550061007100810D8B41B
:1045A000D4EF22F0D7EF22F0010ED8EF22F0000E68
:1045B000016E026AE0EF22F0000E026E040E016E40
:1045C0001200080EBE6E000EBF6E000EC06E000E12
:1045D000C16E000EC26E080EC36EF70EC66EC768BF
:1045E000EF0EC86EC9680F0ECA6EF60ECB6EF70ED0
:1045F0000401006F08698F0E106F1869070E206F95
:10460000F40E286F000E016F000E096F000E116F7F
:10461000000E196F000E216F000E296F000E026F41
:10462000000E0A6F000E126F000E1A6F000E226F3E
:10463000000E2A6F03690B6913691B69070E236F4C
:104640002B6904690C6914691C690F0E246F2C69AD
:10465000000E0201896F000E886F000E876F000E3A
:10466000866F290E726F150E6B6F200E296F320E3A
:10467000156F160E6A6F310E176F000E0401056F6D
:10468000000E066F000E076F000E0D6F000E0E6F0E
:10469000000E0F6F000E156F000E166F000E176FD5
:1046A000000E256F000E266F000E276F1200B5EC6E
:1046B00027F0BE96000E2AEC24F0580E016E050E6F
:1046C000026E000E046E020E036EEEEC25F0D9ECC5
:1046D00027F0BE8658C556F559C557F5575056C5EB
:1046E0004EF54F6A4EC54FF54E6A4E26000E4F22CC
:1046F0004F344F324E324F344F324E324F344F32AE
:104700004E324EC554F54FC555F554C501F555C546
:1047100002F5036A046A000E83EC20F001C50FF570
:1047200002C510F503C511F504C512F5000E136E90
:10473000000E146E800E156E3E0E166E5CEC1AF0B6
:104740000FC550F510C551F511C552F512C553F5F9
:104750007D0E0501926F50C593F551C594F552C574
:1047600095F553C596F545EC27F0290E4F6E960E3C
:104770004E6E7F0EE82EFED74E2EFCD74F2EFAD768
:10478000000059EF23F0FEEFFFF005500610D8B4FB
:10479000CCEF23F0CEEF23F0D7EF23F00550061037
:1047A000D8A4D5EF23F0D7EF23F0DCEF23F00350AC
:1047B00089EC27F029EF24F020EE0AF00550D926E5
:1047C0000650DA22DE50DE10D8B4E9EF23F0EBEF2A
:1047D00023F006EF24F020EE0AF00550D92606500B
:1047E000DA2210EE03F00550E1260650E222DE50F8
:1047F000E65CE650800A0B6EDE50800A0B58D8B09B
:1048000004EF24F006EF24F029EF24F020EE03F06B
:104810000550D9260650DA22DEC407F5DDC408F5B6
:1048200005C5D9F406C5DAF4DEC409F5DDC40AF518
:1048300007500924D96E08500A20DA6E03C5DFF448
:1048400020EE03F00550D9260650DA22DE2A000EAB
:10485000DD221200036E000184BF31EF24F033EF3C
:1048600024F08EEF24F00350050DF350730F016E0A
:1048700001C5F6F4250EF76E000EF86E0800F5C4BB
:1048800084F00350050DF3C401F5010E012601501B
:10489000730F026E02C5F6F4250EF76E000EF86E69
:1048A0000800F5C485F00350050DF3C401F5020EB0
:1048B00001260150730F026E02C5F6F4250EF76E45
:1048C000000EF86E0800F550FC0B866F0350050DC6
:1048D000F3C401F5030E01260150730F026E02C5E9
:1048E000F6F4250EF76E000EF86E0800F5C489F098
:1048F0000350050DF3C401F5040E01260150730F9A
:10490000026E02C5F6F4250EF76E000EF86E080072
:10491000F5C48CF0C89C848F8EEF24F01200000E3A
:104920000F6E000E0E6E07C5D9F408C5DAF4DFC4A9
:10493000F6F4250EF76E000EF86E0800F5502A0A00
:10494000D8A4A5EF24F0A7EF24F0D7EF24F007C5F3
:10495000D9F408C5DAF4DF2A09C5D9F40AC5DAF4AE
:10496000DFC40BF5020EDE26DFC40CF5000EDD22DF
:104970000BC5D9F40CC5DAF4DEC40EF5DDC40FF5B1
:10498000EDEF24F00EC501F50FC502F5000E046E23
:104990000A0E036E32EC27F00D5001240E6E000E4D
:1049A00002200F6E07C5D9F408C5DAF4DF2A07C55F
:1049B000D9F408C5DAF4DFC4F6F4250EF76E000E5C
:1049C000F86E0800F550D00F0D6E090E0D64EBEF78
:1049D00024F0EDEF24F0C2EF24F00EC507F50FC56B
:1049E00008F51200000E0114096E000E02140A6E82
:1049F000800E03140B6E7F0E04140C6E09500A1007
:104A00000B100C10D8A407EF25F009EF25F011EFDB
:104A100025F0000E016E000E026E000E036E000EF9
:104A2000046E000E0514096E000E06140A6E800E48
:104A300007140B6E7F0E08140C6E09500A100B1031
:104A40000C10D8A426EF25F028EF25F030EF25F044
:104A5000000E056E000E066E000E076E000E086E4C
:104A6000055001180FE1065002180CE10750031819
:104A700009E108500418D8B440EF25F042EF25F0C2
:104A800045EF25F0D89046EF25F0D8801200000EB3
:104A90000201A16F000EA26F000EA36F000EA46FA3
:104AA000000EA56F000EA66F000EA76F000EA86F78
:104AB000000EA96F000EAA6FB00EAB6F800EAC6F28
:104AC000080EAD6F8A0EAE6F000EAF6F2E0EB06F78
:104AD000000EB16F800EB26F000EB36F000E016E4C
:104AE000000E026E000E036E78EC27F0000E016ED1
:104AF000000E026E000E036E67EC27F0000E016ED2
:104B0000000E026E000E036E56EC27F0000E05013B
:104B1000B16F000EB06F120018BE93EF25F091EF49
:104B200025F097EF25F0000E186E000E176E000EA0
:104B30001B6E000E1A6EA9EF25F0000E046E200EFB
:104B4000036E13C505F514C506F5C5EC23F01A4A26
:104B50001B2A17501A5C1B50800A196E1850800AC5
:104B60001958D8A0B6EF25F0B8EF25F09DEF25F045
:104B700015C50CF516C50DF513C50EF514C50FF5C5
:104B80008BEC26F0120004BEC8EF25F0CAEF25F02A
:104B9000D4EF25F001C501F502C502F503C503F503
:104BA00004C504F5EDEF25F001C505F502C506F5D0
:104BB00003C507F504C508F5051E061E071E081ED9
:104BC000052A000E06220722082205C501F506C5A2
:104BD00002F507C503F508C504F5120001C505F582
:104BE00002C506F504500001836F03C582F08651AB
:104BF0000109FD0B866F0EEF26F0000E816FB1A04C
:104C000004EF26F006EF26F0FFEF25F005C5D9F4F6
:104C100006C5DAF480C0DFF4054A062A00018AAD31
:104C200014EF26F016EF26F0FDEF25F08A9D120016
:104C300048C54BF52BEF26F046C58CF547C58DF5DD
:104C40004B0E05018E6F050E8F6F49C590F54AC555
:104C500091F53EEC1EF04BC5F6F4250EF76E000EF6
:104C6000F86E0800F5500009D8A439EF26F03BEFA4
:104C700026F01CEF26F0000E476E000E466E120066
:104C800003C509F504C50AF501C507F502C508F510
:104C90005AEF26F009C5D9F40AC5DAF4DF500B6ED5
:104CA000094A0A2A07C5D9F408C5DAF40BC5DFF4A6
:104CB000074A082A0506D8A00606052806E10628A0
:104CC000D8A465EF26F067EF26F04AEF26F0120031
:104CD000000E2C1A000E2D1A000E2E1A800E2F1AFE
:104CE00028C501F529C502F52AC503F52BC504F52C
:104CF0002CC505F52DC506F52EC507F52FC508F5FC
:104D0000FCEC17F001C528F502C529F503C52AF505
:104D100004C52BF51200000E126E000E116E9CEFF2
:104D200026F010C503F5046A0EC505F50FC506F596
:104D3000C5EC23F0114A122A11500C24D96E1250DE
:104D40000D20DA6EDF50106E1050D8A4AAEF26F0B6
:104D5000ACEF26F091EF26F01200D69AAF90D680F5
:104D6000000E016E000E026E000E036ECEEC27F0F8
:104D7000B490D682000E016E000E026E000E036E1D
:104D8000C7EC27F0B890D684000E016E000E026EBC
:104D9000000E036EC0EC27F0120001C505F502C538
:104DA00006F5032A0304046E04C5F6F4250EF76E17
:104DB000000EF86E05C5D9F406C5DAF4054A062AD0
:104DC0000800F5C4DFF4DF50D8A4E9EF26F0EBEFDC
:104DD00026F0D1EF26F0120001500210031004104B
:104DE000D8B4F5EF26F0F7EF26F0FFEF26F0000E2F
:104DF000011A000E021A000E031A800E041A01C5D1
:104E000001F502C502F503C503F504C504F512005A
:104E100001EE00F2500EEE6AE806FDE101EE97F1B8
:104E20001B0EEE6AE806FDE15F6A5E6A5D6A5C6A17
:104E30005B6A5A6A000157EF23F0000E016E02010F
:104E4000B0AB25EF27F027EF27F030EF27F0ABAB23
:104E50002CEF27F02EEF27F030EF27F0010E016E38
:104E60000150120001500302F3C405F5F4C406F525
:104E700001500402F350062602500302F3500626A6
:104E800005C501F506C502F51200930E4C6E050E20
:104E90004D6E000E466E000E476E92C548F54C0EE4
:104EA000496E050E4A6E18EC26F0120001500210F1
:104EB0000310D8B45EEF27F060EF27F066EF27F01D
:104EC00001C59FF502C5A0F503C5A1F5120001506B
:104ED00002100310D8B46FEF27F071EF27F077EFCF
:104EE00027F001C5A2F502C5A3F503C5A4F512007C
:104EF000015002100310D8B480EF27F082EF27F0A2
:104F000088EF27F001C5A5F502C5A6F503C5A7F5ED
:104F10001200026E1DEC27F00009D8B492EF27F0C2
:104F200094EF27F08AEF27F00250D5EC27F012001B
:104F3000A194A192A190000E0001846F000E856FD4
:104F4000000E866F000E896F000E8C6F1200600ECF
:104F50000001AD6F000EAF6F000EB36F080EB16FA2
:104F6000000EB06F000EAC6F1200A7EC27F0E1EC62
:104F700022F098EC27F047EC25F0ADEC26F012007B
:104F800001C5A8F502C5A9F503C5AAF5120001C51A
:104F9000ABF502C5ACF503C5ADF5120001C55AF578
:104FA00002C55BF503C55CF51200016E01C5A3F2F5
:084FB00012000001849F1200B1
:020000040001F9
:04FFFC0008EF27F0F3
:020000040030CA
:08000000FFFFF7FF9FFFFFFF68
:01000900FFF7
:00000001FF
