:040000000EEF00F00F
:040008002CEF13F0D6
:08001800FCEF12F00DEF14F0F3
:1025000000AA26000000000000000000007A280059
:10251000000000BA27000000000000000000009644
:10252000280000000000000EBE6E000EBF6E000E00
:10253000C06E000EC16E000EC26E000EC36EC66885
:10254000C768C868C9680F0ECA6EF60ECB6E040164
:1025500000690869EF0E106F1869070E206FF60EFC
:10256000286F000E016F000E096F100E116F000E24
:10257000196F000E216F000E296F000E026F000E02
:102580000A6F000E126F000E1A6F000E226F000EFF
:102590002A6F03690B6913691B69070E236F2B6987
:1025A00004690C6914691C690F0E246F2C69000EF4
:1025B0000201896F000E886F000E876F000E866F14
:1025C000140E426F000E0401056F000E066F000E20
:1025D000076F000E0D6F000E0E6F000E0F6F000ED6
:1025E000156F000E166F000E176F000E256F000E90
:1025F000266F000E276F1200D8C419F5FAC41AF519
:10260000FBC41BF5A1AE07EF13F009EF13F025EFA4
:1026100013F0B1AE0EEF13F010EF13F025EF13F03F
:10262000C3B615EF13F018EF13F0010E19EF13F006
:10263000000EFF0A186E184618461846C3501818A0
:10264000F70B1818C36EBFEC13F01BC5FBF41AC5CB
:10265000FAF419C5D8F41100FAC416F5FBC417F53D
:10266000A1A835EF13F037EF13F050EF13F0B1A836
:102670003CEF13F03EEF13F050EF13F0C3B043EF15
:1026800013F046EF13F0010E47EF13F0000EFF0AB0
:10269000156EC3501518FE0B1518C36EA0EC13F081
:1026A00017C5FBF416C5FAF4110003011E91000EC4
:1026B0001F6F000E206F000E216F000E1D6F050EA4
:1026C0001C6F1D511F6E1C51246E1FC525F5DA0E9F
:1026D0001C6E280E1D6E000E1E6E3DEC14F0000EDA
:1026E0001C6E000E1D6E000E1E6E44EC14F0B198B0
:1026F000A188050E03011E6F1200D68A03016589A9
:10270000659FAF90D680000E1C6E000E1D6E000EF1
:102710001E6E60EC14F0B490D682000E1C6E000E9B
:102720001D6E000E1E6E59EC14F0B890D684000E8B
:102730001C6E000E1D6E000E1E6E52EC14F0120088
:10274000B19824C513F525C514F5F8EC13F0045021
:1027500005100610D8B4AFEF13F0B1EF13F0BEEFD1
:1027600013F002D8BEEF13F00500FA6E0450FD6EB0
:102770000550FE6E0650FF6EFA5012001200B19E18
:1027800027500301196F26C518F3075008100910C8
:10279000D8B4CDEF13F0CFEF13F0DCEF13F002D885
:1027A000DCEF13F00500FA6E0750FD6E0850FE6E68
:1027B0000950FF6EFA5012001200B90E0301196F92
:1027C000B00E186F550E1B6F19511F6E1851266EE3
:1027D0001FC527F5CE0E1C6E280E1D6E000E1E6E38
:1027E0004BEC14F0B19EA18E900E03011A6F1200F3
:1027F00003011EA5FEEF13F000EF14F008EF14F034
:102800001E9114501D6F13C51CF31E810CEF14F0A4
:1028100014501D6F13C51CF3120001EE21F1070EB9
:10282000EE6AE806FDE10401080E5D6F000E5E6FC2
:10283000000E5F6F000136EF14F0600E0001AD6F07
:10284000000EAF6F000EB36F080EB16F000EB06FC9
:10285000000EAC6F12001DEC14F093EC12F0DDECE6
:1028600013F055EC13F07DEC13F012002BEC14F088
:10287000D68E39EF14F00EEF00F01CC504F51DC51F
:1028800005F51EC506F512001CC501F51DC502F5AE
:102890001EC503F512001CC507F51DC508F51EC5AC
:1028A00009F512001CC50AF51DC50BF51EC50CF572
:1028B00012001CC50DF51DC50EF51EC50FF5120045
:1028C0001CC510F51DC511F51EC512F51200D7AEB9
:1028D0006CEF14F073EF14F01200D7AE72EF14F037
:0A28E00074EF14F012001200120051
:020000040030CA
:08000000FFFFF7FF9FFFFFFF68
:01000900FFF7
:00000001FF
