:04000000FEEFFFF020
:10D7C0000000000000000000000000000000000059
:10D7D0000000000000000000000000000000000049
:10D7E0000000000000000000000000000000000039
:10D7F0000000000000E003E003E003E003E003E0DA
:10D8000003E003E003C003C003C001C001C001C0C6
:10D8100001C001000000000000E003E003E003009D
:10D820000000000000000000003C1E3C1E3C1E3CAE
:10D830001E3C1E3C1E3C1E000000000000000000BC
:10D8400000000000000000000000000000000000D8
:10D8500000000000000000000000000000CE01CE2B
:10D8600003DE039E039C039C07FF3FFF7F380738BE
:10D870000F780F780F780EFFFFFFFFF01EF01CE00F
:10D880001CE03CE03DE0390000000000000000002A
:10D8900000FC03FE0FEE1FE01EE01EE01EE01EE097
:10D8A0001FE00FE007F003FC01FE01FE01FE01FE98
:10D8B00001FE01FE01FE3DFC3FF00FE001E0010032
:10D8C0000000000000033E07F78FE78EE79EE3BCF1
:10D8D000E3B8E7F8E7F0F7E03FC001FF03FF07F325
:10D8E00007F30FF31EF33CF338F3787FF03FE000CB
:10D8F000000000000000000000E007F80F780F783B
:10D900001F781F781F780FF00FE00F801FC37FC3B1
:10D91000FBE7F3F7F1F7F0FFF07FF03EF87F7CFFD5
:10D920003FEF1F00000000000000000000E003E0E7
:10D9300003E003E003E003C003C0010000000000B7
:10D9400000000000000000000000000000000000D7
:10D9500000000000000000000000000000000000C7
:10D96000003F007C00F001E001C003C00780078099
:10D9700007800F000F000F000F000F000F000F8037
:10D980000F80078007C007C003E001F0017C003F63
:10D99000000F000000007E001FC007C003E001F080
:10D9A00001F000F000F80078007800780078007846
:10D9B000007800F800F000F000F001E001C003C0C2
:10D9C00007001F007E00780000E003C003C001CE06
:10D9D00039FF3F7F3F20037003F807780F3C1F3863
:10D9E0000600000000000000000000000000000031
:10D9F0000000000000000000000000000000000027
:10DA0000000000000000000000C001C001C001C013
:10DA100001C001C001C001FFFFFFFFC001C001C084
:10DA200001C001C001C001000000000000000000B2
:10DA300000000000000000000000000000000000E6
:10DA400000000000000000000000000000000000D6
:10DA5000000000E003E003E003E003E001E001E098
:10DA600001C0018003000000000000000000000071
:10DA70000000000000000000000000FE3FFE3F002C
:10DA80000000000000000000000000000000000096
:10DA90000000000000000000000000000000000086
:10DAA0000000000000000000000000000000000076
:10DAB0000000000000000000000000E003E003E0C0
:10DAC00003E003000000000000000000000F000F52
:10DAD000001E001E003C003C0078007800F000F0C2
:10DAE00000E001E001C003C00380078007000F00D1
:10DAF0000F001E001E003C003C0078007800F00083
:10DB000000F007F80F7C1F3E3E1E3C1F7C1F7C0F61
:10DB1000780F780F780F780F780F780F781F7C1FA9
:10DB20007C1E3C3E3E7C1FF80FF00700000000000A
:10DB30000000000000F000F007F03FF03FF001F0BF
:10DB400001F001F001F001F001F001F001F001F04D
:10DB500001F001F001F001F001F001FF3FFF3F0093
:10DB6000000000000000000000E00FF83F7C3C3C9B
:10DB7000003E003E003E003C003C007C00F800F00F
:10DB800001E003C0078007000F001E003E003CFEBE
:10DB90003FFE3F00000000000000000000F00FF812
:10DBA0001F7C1C3E003E003E003C003C00F800F0A4
:10DBB0000FF80F7C003E001E001E001E001E003EDF
:10DBC000007C1CF81FE01F000000000000000000A7
:10DBD000007800F800F800F801F803F807F8077873
:10DBE0000F781E781E783C78787878FFFFFFFF78F2
:10DBF00000780078007800780078000000000000CD
:10DC00000000000000FC1FFC1FFC1F001E001E0087
:10DC10001E001E001EE01FF81FFC007C003E003EA0
:10DC2000001E003E003E003C007C1CF81FE01F0070
:10DC3000000000000000000000FC01FE078E0F0045
:10DC40001F001E003E003C003CF83DFC3F3E7F1F95
:10DC50007E0F3C0F3C0F3C0F3C0F3E1F1E3E1FFC37
:10DC60000FF00300000000000000000000FF3FFF75
:10DC70003FFF3F0F001E001E003C0038007800F000
:10DC800000F000E001E001C003C0038007800F80C6
:10DC90000F000F001F001F00000000000000000028
:10DCA00000F807FC0F3E1F1E1E1E3E1E3E1E1E3CA1
:10DCB0001FF80FF007F80FFC1E3E3E1F3C1F7C0FA5
:10DCC0007C0F7C1F3C3E3FFC1FF007000000000063
:10DCD0000000000000F007F80F7C1E3E3C1E3C1FB9
:10DCE0007C1F7C1F7C1F7C1F3C3F3EFF1FEF071FDC
:10DCF000001E001E003E003C00F838F03FE01F0010
:10DD00000000000000000000000000000000000013
:10DD10000000000000E003E003E003E00300000077
:10DD20000000000000000000000000E003E003E04D
:10DD300003E00300000000000000000000000000FD
:10DD4000000000000000000000E003E003E003E04A
:10DD5000030000000000000000000000000000E0E0
:10DD600003E003E003E003E001E001E001C0038021
:10DD70000300000000000000000000000003000F8E
:10DD8000003F00FC00F003C00F003F00FE003FC05A
:10DD90000FF003FC003F000F000300000000000034
:10DDA0000000000000000000000000000000000073
:10DDB000000000000000000000FFFFFFFF00000067
:10DDC000000000FFFFFFFF00000000000000000057
:10DDD0000000000000000000000000000000000043
:10DDE000000000000000E000F8007E801FE007F85F
:10DDF000017E001F007E00F801E007801F007E000A
:10DE0000F800E000000000000000000000F01FFC2F
:10DE10003F3E381F381F381E001E003C007800F0BF
:10DE200000E001C003C003C007C0070000000000FD
:10DE300000C007C007C0070000000000000000008D
:10DE400000F803FE0F1E1F0F3E7F3CFF78EF79C7DF
:10DE500073C7F38FF38FF38FF39FF39FF3FF73FF7A
:10DE60007BF779003C1C1FFC0FF80300000000004A
:10DE70000000000000000000000000E003E003F0EC
:10DE800007F007F007780F780F7C0E3C1E3C1E3E13
:10DE90003CFE3FFF3F1F780F780FF007F007F000C0
:10DEA000000000000000000000000000000000F87A
:10DEB0003FFC3F3E3C1E3C1E3C1E3C3E3C7C3CF03E
:10DEC0003FF83F7E3C1F3C1F3C0F3C0F3C1F3CFE7D
:10DED0003FF83F00000000000000000000000000CC
:10DEE000000000FF01FF07871F003E003C007C0090
:10DEF000780078007800780078007C007C003E0094
:10DF00003F831FFF07FF010000000000000000002A
:10DF100000000000000000F07FFC7F7E781F781F6B
:10DF2000780F780F780F780F780F780F780F780FB9
:10DF3000781F781E787E78F87FE07F000000000070
:10DF40000000000000000000000000FF3FFF3F0055
:10DF50003E003E003E003E003E003EFE3FFE3F00D3
:10DF60003E003E003E003E003E003EFF3FFF3F00C1
:10DF7000000000000000000000000000000000FFA2
:10DF80001FFF1F001E001E001E001E001E001EFFA1
:10DF90001FFF1F001E001E001E001E001E001E0090
:10DFA0001E001E0000000000000000000000000035
:10DFB000000000FE03FF0F871F003E007C007C0076
:10DFC0007800F800F87FF87FF80F780F7C0F7C0F4F
:10DFD0003E8F1FFF0FFE0300000000000000000046
:10DFE000000000000000001F7C1F7C1F7C1F7C1FA6
:10DFF0007C1F7C1F7C1F7CFF7FFF7F1F7C1F7C1F83
:10E000007C1F7C1F7C1F7C1F7C1F7C00000000008D
:10E010000000000000000000000000FF3FFF3FE0A4
:10E0200003E003E003E003E003E003E003E003E0D8
:10E0300003E003E003E003E003E003FF3FFF3F00F2
:10E04000000000000000000000000000000000FCD4
:10E050001FFC1F7C007C007C007C007C007C007C22
:10E06000007C007C007C007C0078007800F838F0B0
:10E070003FC03F0000000000000000000000000062
:10E080000000001F3C1E3C3C3C783CF03CE03DE086
:10E090003FC03F803FC03FE03FF03DF03C783C7CDC
:10E0A0003C3E3C1F3C0F3C00000000000000000014
:10E0B00000000000000000003E003E003E003E0068
:10E0C0003E003E003E003E003E003E003E003E0060
:10E0D0003E003E003E003EFF3FFF3F0000000000CC
:10E0E00000000000000000000000001FF81FFC1FDF
:10E0F000FC3FFE3FFE3FFE7FFF77FF77FFF7F7E72E
:10E10000F7E7F3E7F3C7F307F007F007F007F000CE
:10E110000000000000000000000000000000000FF0
:10E120007C0F7C0F7E0F7F0F7F8F7F8F7FCF7FEFE6
:10E130007BEF79FF79FF78FF787F783F783F781F12
:10E14000781F7800000000000000000000000000C0
:10E15000000000F007FC1F3E3E1F7C0F780F780F79
:10E16000F80FF80FF80FF80FF80FF80F780F781F67
:10E170007C3E3EFC1FF00700000000000000000095
:10E1800000000000000000FC3FFF3F1F3E0F3E0F5D
:10E190003E0F3E0F3E1F3E3F3EFC3FF03F003E0025
:10E1A0003E003E003E003E003E003E0000000000FB
:10E1B0000000000000000000000000F007FC1F3E0F
:10E1C0003E1F7C0F780F780FF80FF80FF80FF80F3D
:10E1D000F80FF80F780F781F7C3E3EFC1FF8077C85
:10E1E000003F000F0003000000000000000000F0EE
:10E1F0003FFC3F7E3C3E3C1E3C1E3C3E3C3C3CFCCF
:10E200003CF03FE03FF03DF83C7C3C3E3C1E3C1F78
:10E210003C0F3C0000000000000000000000000077
:10E22000000000FC07FE1F0E3E003C003C003C00CE
:10E230003EC01FF80FFE037F001F000F000F001FDE
:10E24000203E3CFC3FF01F000000000000000000EA
:10E2500000000000000000FFFFFFFFE003E003E01C
:10E2600003E003E003E003E003E003E003E003E096
:10E2700003E003E003E003E003E00300000000002C
:10E2800000000000000000000000000F7C0F7C0F69
:10E290007C0F7C0F7C0F7C0F7C0F7C0F7C0F7C0F26
:10E2A0007C0F7C0F7C1E3C1E3C3E3EFC1FF007009A
:10E2B0000000000000000000000000000000000757
:10E2C000F007F007F80F780F7C1E3C1E3C1E3E3C0A
:10E2D0001E3C1F781F780FF80FF007F007F007E0DB
:10E2E00003E0030000000000000000000000000048
:10E2F00000000003E003F003F007F0E7F3E7F3E7C3
:10E30000F3E773F77BF77FFF7F7F7F7F7F7E7F7EE3
:10E310003F3E3E3E3E3E3E0000000000000000004A
:10E320000000000000000007F80F7C1E3E3E3E3C4F
:10E330001FF80FF007E007E003E003F007F80F7C99
:10E340000F7C1E3E3C1F780F780FF000000000008D
:10E35000000000000000000000000007F807780F30
:10E360007C1E3C1E3E3C1F780FF80FF007E003E0D8
:10E3700003E003E003E003E003E003E003E0030065
:10E38000000000000000000000000000000000FF8E
:10E390007FFF7F0F001F003E007C00F800F000E0D0
:10E3A00001E003C007800F000F001E003E007CFF4D
:10E3B0007FFF7F00000000000000000000FF0780DA
:10E3C0000780078007800780078007800780078015
:10E3D0000780078007800780078007800780078005
:10E3E0000780078007800780078007FF07FF070077
:10E3F0000000780078003C003C001E001E000F006A
:10E400000F80078007C003C003E001E001F000F0C7
:10E4100000780078003C003C001E001E000F000F3A
:10E420000007000000F07FF000F000F000F000F0C6
:10E4300000F000F000F000F000F000F000F000F05C
:10E4400000F000F000F000F000F000F000F000F04C
:10E4500000F000F07FF07F0000C000C001C001E0CC
:10E4600003E003F007F0077807780F380F3C1E3CF5
:10E470001E1E3C1E3C0F380F78077800000000007D
:10E48000000000000000000000000000000000008C
:10E49000000000000000000000000000000000007C
:10E4A000000000000000000000000000000000006C
:10E4B00000000000000000FFFFFFFF000000000060
:10E4C00000F000000000000000000000000000005C
:10E4D000000000000000000000000000000000003C
:10E4E000000000000000000000000000000000002C
:10E4F000000000000000000000000000000000001C
:10E5000000F80FFC3F7C3C3E003E003E00FE07FE54
:10E510001F3E3E3E7C3E783E7C7E7CFF3FCF1F0010
:10E52000000000000000000000003C003C003C0037
:10E530003C003C003CF83DFE3F3E3F1F3E0F3C0F81
:10E540003C0F3C0F3C0F3C0F3C1F3C1E3C3E3FFC35
:10E550003FF03B0000000000000000000000000051
:10E56000000000000000000000FE03FF0F871F00F6
:10E570003E003E003C007C007C007C003C003E00F5
:10E580003E871FFF0FFE0300000000000000000098
:10E59000001F001F001F001F001F001F00FF07FFBC
:10E5A0001F3F3E1F3C1F7C1F7C1F7C1F781F781F56
:10E5B0007C1F7C3F3C7F3EFF1FDF0F000000000000
:10E5C000000000000000000000000000000000004B
:10E5D00000F803FC0F3E1F1E3E1F3C1F7CFF7FFF09
:10E5E0007F007C007C003C003E071FFF0FFE030005
:10E5F000000000000000000000FF01E103C003C0B4
:10E6000007C007C007FF7FFF7FC007C007C007C064
:10E6100007C007C007C007C007C007C007C007C0C2
:10E6200007C007000000000000000000000000001C
:10E63000000000000000000000EF07FF1F7F3E1FEA
:10E640003C1F7C1F7C1F781F781F781F7C1F7C3F1E
:10E650003C7F3EFF1FDF0F1E001E001E007C38F8AF
:10E660003F003C003C003C003C003C003CFC3DFECC
:10E670003F9E3F1F3F1F3E1F3C1F3C1F3C1F3C1F38
:10E680003C1F3C1F3C1F3C1F3C1F3C000000000087
:10E690000000000000F001F0010000000000000098
:10E6A00000E07FE07FE001E001E001E001E001E067
:10E6B00001E001E001E001E001E001E001E0010032
:10E6C000000000000000000000F800F8000000005A
:10E6D0000000000000F83FF83FF800F800F800F8EC
:10E6E00000F800F800F800F800F800F800F800F86A
:10E6F00000F800F800F800F000F071E07F003C0046
:10E700003C003C003C003C003C1F3C3E3C7C3CF858
:10E710003CF03DE03DC03FC03FE03FF03DF83C7C79
:10E720003C3E3C1F3C1F3C0000000000000000007D
:10E7300000F07FF001F001F001F001F001F001F0D4
:10E7400001F001F001F001F001F001F001F001F041
:10E7500001F001F001F001F001F001000000000003
:10E7600000000000000000000000000000000000A9
:10E77000009EF7FFFFFFFFFFFFE7FBE7F9C7F1C7C9
:10E78000F1C7F1C7F1C7F1C7F1C7F1C7F1C7F10090
:10E790000000000000000000000000000000000079
:10E7A0000000000000FC3DFE3F9E3F1F3F1F3E1F3C
:10E7B0003C1F3C1F3C1F3C1F3C1F3C1F3C1F3C1F81
:10E7C0003C1F3C00000000000000000000000000B2
:10E7D000000000000000000000F007FC1F3E3E1F8C
:10E7E0003C1F7C0F780F780F780F780F781F7C1FF5
:10E7F0003C3E3EFC1FF0070000000000000000004F
:10E8000000000000000000000000000000F83DFED5
:10E810003F3E3F1F3E0F3C0F3C0F3C0F3C0F3C0F59
:10E820003C1F3C1E3E3E3FFC3FF83F003C003C008E
:10E830003C003C003C000000000000000000000024
:10E8400000EE07FE1F7E3E1E3C1E7C1E781E781EBC
:10E85000781E781E781E7C3E7C7E3EFE1FDE0F1EDC
:10E86000001E001E001E001E000000000000000030
:10E8700000000000007F1FFF1FE71FC71F871F004A
:10E880001F001F001F001F001F001F001F001F0090
:10E890001F001F000000000000000000000000003A
:10E8A000000000000000000000FC07FE1F0E1E001C
:10E8B0003E003E003FE01FFC07FE003E001E001E23
:10E8C000003E3CFC3FF01F00000000000000000084
:10E8D00000000000000000800780078007FF7FFF26
:10E8E0007F80078007800780078007800780078078
:10E8F0000780078007C007FF03FF0100000000003A
:10E900000000000000000000000000000000000007
:10E91000001E3C1E3C1E3C1E3C1E3C1E3C1E3C1E63
:10E920003C1E3C1E3C3E3C7E3CFE3EFE1FDE0F007D
:10E9300000000000000000000000000000000000D7
:10E94000000000000007F00F780F781E3C1E3C1EF0
:10E950003E3C1E3C1E780F780FF00FF007F007E0EA
:10E9600003E00300000000000000000000000000C1
:10E9700000000000000000000003F0E3F1E3F3E713
:10E98000F3F7F3F7F3F77F777F7F7F7F7F7F7F3E1C
:10E990003E3E3E3E3E3E3E000000000000000000C5
:10E9A000000000000000000000000000000F7C1EBE
:10E9B0003E3C3E3C1FF80FF007F007E003F007F87D
:10E9C00007F80F7C1E3E3E1F3C1F78000000000031
:10E9D0000000000000000000000000000000000037
:10E9E0000007F80F780F7C1E3C1E3C3C1E3C1E3C72
:10E9F0001F780FF80FF007F007E003E003C003C033
:10EA000003C0038007800F007F00000000000000AB
:10EA10000000000000FF3FFF3F1F003E007C00F8A9
:10EA200000F001E003C007800F001F001E003CFF44
:10EA30007FFF7F00000000000000000000FE01E0FA
:10EA400003C003C003C003C003E001E001E001C054
:10EA500001C003803F803FC003C001E001E001E04E
:10EA600001C003C003C003C003E003FE017E000039
:10EA700000C001C001C001C001C001C001C001C08F
:10EA800001C001C001C001C001C001C001C001C07E
:10EA900001C001C001C001C001C001C001C001C06E
:10EAA00001C0010000C03FE003E001E001E001E03F
:10EAB00001C001C003C003C001E001FE00FE00E090
:10EAC00001C001C003C003C001E001E001E001E0BA
:10EAD00001E003C03F003F00000000000000000014
:10EAE000000000000000000000000000000000071F
:10EAF0003FC77FE773FFF17EF000000000000000D9
:10EB00000000000000000000000000000000000005
:10EB100000000000000000000000000000000000F5
:10EB200000000000000000000000000000000000E5
:10EB3000000000000C000C000C000C000C000C008D
:10EB40000C000C000C000C000C0000000C000C0071
:10EB500000000000000000001B001B001B001B0049
:10EB60001B0000000000000000000000000000008A
:10EB700000000000000000000000008019801980E3
:10EB8000198019C07FC07F80190033C07FC07F000B
:10EB900033003300330033000000000000000000A9
:10EBA0001E003F807580650074003C001E000780D9
:10EBB00005806580658075003F001E00040004002C
:10EBC000000000007000D840D8C0D880D900730081
:10EBD00006000C801BC036C066C046C0068003001D
:10EBE00000000000000000001E003F003300330062
:10EBF00033001E000CC03CC066806380618063C02F
:10EC00003E801C0000000000000000000C000C0012
:10EC10000C000C000C0000000000000000000000D0
:10EC20000000000000000000000000000080000064
:10EC3000010003000600060004000C000C000C009C
:10EC40000C000C000C00040006000600030001800C
:10EC500000002000100018000C000C00040006004A
:10EC60000600060006000600060004000C000C006A
:10EC700018001000200000000C002D003F001E00B6
:10EC80003300000000000000000000000000000051
:10EC90000000000000000000000000000000000074
:10ECA0000C000C000C000CC0FFC0FF000C000C009E
:10ECB0000C000C000000000000000000000000003C
:10ECC0000000000000000000000000000000000044
:10ECD00000000000000000000C000C000400040014
:10ECE000080000000000000000000000000000001C
:10ECF000000000001E001E000000000000000000D8
:10ED00000000000000000000000000000000000003
:10ED100000000000000000000000000000000000F3
:10ED20000C000C00000000000000000003000300C5
:10ED3000030006000600060006000C000C000C0094
:10ED40000C0018001800180000000000000000006F
:10ED50001E003F0033806180618061806D806D8026
:10ED600061806180610033003F001E0000000000F0
:10ED70000000000006000E001E00360026000600FF
:10ED80000600060006000600060006000600060053
:10ED900000000000000000001E003F8073806180C2
:10EDA00061800100030006000C0018003000608044
:10EDB0007F807F0000000000000000001C003E007B
:10EDC0006300630003000E000E00038001800180D9
:10EDD000618073003F001E00000000000000000082
:10EDE00006000E000E001E001E0016003600360043
:10EDF00066807F807F00060006000600000000009D
:10EE0000000000007F007F006000600060006E0076
:10EE10007F80638001800180618073003F001E005D
:10EE200000000000000000001E003F8033806100F1
:10EE300060006E007F80738061806180618033003C
:10EE40003F001E0000000000000000807F807F80E7
:10EE5000010003000300060006000C000C000C007B
:10EE60000800180018001800000000000000000052
:10EE70001E003F8063806180610021001E003F8092
:10EE800061806180618061003F001E000000000021
:10EE9000000000001E003F0073806180618061807F
:10EEA00073803F801D800180610073003F001E0061
:10EEB0000000000000000000000000000000000052
:10EEC0000C000C000000000000000000000000002A
:10EED0000C000C000000000000000000000000001A
:10EEE0000000000000000C000C000000000000000A
:10EEF000000000000C000C000400040008000000EA
:10EF0000000000000080008003000E003800600058
:10EF100038000E80038000000000000000000000A8
:10EF20000000000000000000000000807F807F00E3
:10EF3000000000807F807F000000000000000000D3
:10EF40000000000000000000000000000000400081
:10EF500070001C000780010007001C0070004000CA
:10EF60000000000000000000000000001F803FC003
:10EF700071C060C000C00180030007000E000C00DB
:10EF80000C0000000C000C0000000000000000005D
:10EF90001E003F803180718063806F806D806D8046
:10EFA0006F806700600032003E001C00000000001F
:10EFB000000000000E000E001B001B001B001B8049
:10EFC000318031803F803F8031C060C060C06000D0
:10EFD00000000000000000007C007E006300630071
:10EFE000630063007E007E00638061806180630057
:10EFF0007F007E0000000000000000001E003F8037
:10F00000318061006000600060006000600060802E
:10F01000618031003F001E00000000000000000081
:10F020007C007F006380638061806180618061809B
:10F0300061806100630063007E007C0000000000CE
:10F04000000000807F807F00600060006000600042
:10F050007F007F0060006000600060807F807F0034
:10F0600000000000000000807F807F0060006000E2
:10F07000600060007F007F00600060006000600052
:10F080006000600000000000000000001E003F80E3
:10F090003180610060006000608063806380618017
:10F0A000618031803F001E000000000000000080F1
:10F0B0006180618061806180618061807F807F800C
:10F0C000618061806180618061806100000000007A
:10F0D000000000003F003F000C000C000C000C0082
:10F0E0000C000C000C000C000C000C003F003F005A
:10F0F000000000000000008001800180018001808C
:10F100000180018001800180018061806180730045
:10F110003F001E0000000000000000C06080610091
:10F120006300660066006C0078007C006600660084
:10F130006380618061C0600000000000000000008A
:10F1400060006000600060006000600060006000BF
:10F1500060006000600060807F807F000000000031
:10F16000000000C071C071C07BC07AC06AC06AC0B4
:10F170006EC064C060C060C060C060C060C060003D
:10F18000000000000000008071807180798079802B
:10F1900079806D806D806D80658067806780678015
:10F1A0006380630000000000000000001E003F00BC
:10F1B0003380618061806180618061806180618075
:10F1C000610033003F001E0000000000000000004E
:10F1D0007E007F80638061806180618063007F004A
:10F1E0007E006000600060006000600000000000C1
:10F1F000000000001E003F0033806180618061805C
:10F200006180618061806580670033803F401E00BF
:10F2100000000000000000007E007F8063806180AD
:10F22000618063007F007E00660063006380618010
:10F2300061C0600000000000000000000E001F80A0
:10F2400031803100300038001E000780038061806B
:10F25000618031003F001E0000000000000000C07F
:10F26000FFC0FF000C000C000C000C000C000C0098
:10F270000C000C000C000C000C000C000000000046
:10F2800000000080618061806180618061806180B8
:10F290006180618061806180618073003F001E0039
:10F2A00000000000000000C060C060C060803180CD
:10F2B000318031001B001B001B001B000E000E00E4
:10F2C0000E00040000000000000000C0C0C0C0C06C
:10F2D000C0C0C0C0C0C0CC804C804C805E8052801A
:10F2E000528073806180610000000000000000C057
:10F2F000C0806080610033003B001E000C000C00E9
:10F300001E001F003B80718061C0C0000000000033
:10F31000000000C0C08061806100330033001E0027
:10F320001E000C000C000C000C000C000C000C006B
:10F3300000000000000000803F803F8001000300CB
:10F34000030006000C000C0018001800300060805C
:10F350007F807F000000000000000F000F000C0005
:10F360000C000C000C000C000C000C000C000C003D
:10F370000C000C000C000C000C000F000F00000033
:10F380001800180018000C000C000C000C000600FF
:10F390000600060006000300030003000000000052
:10F3A00000001E001E000600060006000600060003
:10F3B000060006000600060006000600060006001D
:10F3C00006001E001E0000000C000C001E001200B3
:10F3D0003300338061806100000000000000000005
:10F3E000000000000000000000000000000000001D
:10F3F000000000000000000000000000000000000D
:10F40000000000000000000000E0FF00000000001D
:10F41000380018000C000000000000000000000090
:10F4200000000000000000000000000000000000DC
:10F430000000000000000000000000001F803F806E
:10F44000618001801F803F80618063807FC03800C1
:10F45000000000000000000060006000600060002C
:10F460006E007F8073806180618061806180730045
:10F470007F006E000000000000000000000000009F
:10F48000000000001E003F8073806100600060800B
:10F49000618073003F001E0000000000000000803B
:10F4A00001800180018001801D803F807380618028
:10F4B00061806180618073803F801D0000000000DA
:10F4C0000000000000000000000000001E003F00DF
:10F4D000738061807F807F00608071003F001E002C
:10F4E00000000000000000C007C00F000C000C80EE
:10F4F0007F807F000C000C000C000C000C000C0046
:10F500000C000C00000000000000000000000000E3
:10F5100000801D803F807380618061806180618098
:10F5200073803F801D80018063007F003E000000EB
:10F5300060006000600060006F807F80718061808B
:10F5400061806180618061806180610000000000F5
:10F550000000000006000600000000003E003E0023
:10F56000060006000600060006000600060006006B
:10F5700000000000000006000600000000003E0041
:10F580003E00060006000600060006000600060013
:10F590000600060046007E003C000000600060009F
:10F5A000600060806100630066006C007C00760093
:10F5B0006300638061C06000000000000000000084
:10F5C0003E003E000600060006000600060006009B
:10F5D0000600060006000600060006000000000007
:10F5E000000000000000000000000080DDC0FFC03F
:10F5F000CEC0CCC0CCC0CCC0CCC0CCC0CCC0CC0069
:10F6000000000000000000000000000000000000FA
:10F610006F807F80718061806180618061806180A6
:10F620006180610000000000000000000000000098
:10F63000000000001E003F80738061806180618057
:10F64000618073003F001E00000000000000000009
:10F650000000000000006E007F8073806180618088
:10F660006180618073007F006E0060006000600058
:10F67000600000000000000000801D803F8073805B
:10F68000618061806180618073803F801D80018026
:10F690000180018001000000000000000000000067
:10F6A00067803F003900300030003000300030000B
:10F6B00030003000000000000000000000000000EA
:10F6C000000000001E803F80610060007F803F805E
:10F6D000018061007F001E000000000000000000AB
:10F6E00000000800180018007F007F0018001800B4
:10F6F00018001800180018801F800F00000000007C
:10F7000000000000000000000000008061806180B7
:10F710006180618061806180618063807F803D0065
:10F72000000000000000000000000000000000C019
:10F7300060803180318031001B001B001B000E00F7
:10F740000E000600000000000000000000000000A5
:10F7500000000080DD80DD80DD0055005500550093
:10F760007700770022002200000000000000000067
:10F7700000000000000000806100330033001E0024
:10F780000C000C001E0033003380610000000000FC
:10F7900000000000000000000080618061803100F6
:10F7A000330033001B001B001B000E000E000E0078
:10F7B0001C007C007000000000000000000000C081
:10F7C0007FC07F800100030006000C00180030C0DD
:10F7D0007FC07F000000000000800380070006005B
:10F7E00006000600060006000E001C001C000E00AD
:10F7F00006000600060006000680078003000600DB
:10F8000006000600060006000600060006000600C8
:10F8100006000600060006000600060006000600B8
:10F82000060038003C000C000C000C000C000C0022
:10F830000E00070007000E000C000C000C000C006E
:10F840000C003C0038000000000000000000000038
:10F850000000008038807F004700000000000000AA
:10F860000000000000000000000000000000000098
:10F870000000000000000000000000000000100078
:10F880001000100010001000100000001000000018
:10F8900000002800280028000000000000000000F0
:10F8A000000000000000240024007C002400480028
:10F8B0007C00480048000000000038005400500060
:10F8C00038001400540054003800100000002000DC
:10F8D00054005800300028005400140008000000B4
:10F8E00000001000280028001000340048004800E4
:10F8F00034000000000010001000100000000000A4
:10F9000000000000000000000000080010002000BF
:10F91000200020002000200020001000080020000F
:10F920001000080008000800080008000800100087
:10F930002000100038001000280000000000000027
:10F9400000000000000000000000100010007C001B
:10F950001000100000000000000000000000000087
:10F960000000000000000000100010001000000067
:10F97000000000000000000038000000000000004F
:10F980000000000000000000000000000000000077
:10F990001000000000000800080010001000100017
:10F9A0001000200020000000000038004400440047
:10F9B00054004400440044003800000000001000DF
:10F9C0003000500010001000100010001000000067
:10F9D000000038004400440004000800100020002B
:10F9E0007C000000000038004400040018000400FF
:10F9F000040044003800000000000800180028003F
:10FA0000280048007C0008000800000000007C007E
:10FA1000400040007800040004004400380000006A
:10FA200000003800440040007800440044004400D6
:10FA30003800000000007C000400080010001000E6
:10FA40002000200020000000000038004400440096
:10FA50003800440044004400380000000000380032
:10FA60004400440044003C0004004400380000000E
:10FA70000000000000001000000000000000000076
:10FA80001000000000000000000000001000000056
:10FA900000000000100010001000000000000C002A
:10FAA0003000400030000C000000000000000000AA
:10FAB000000000007C0000007C000000000000004E
:10FAC0000000000000006000180004001800600042
:10FAD000000000000000380044000400080010008E
:10FAE00010000000100000000000380044004C002E
:10FAF00054005C004000400038000000000010008E
:10FB000028002800280028007C0044004400000051
:10FB100000007800440044007800440044004400A1
:10FB20007800000000003800440040004000400021
:10FB3000400044003800000000007000480044000D
:10FB400044004400440048007000000000007C00B5
:10FB5000400040007C004000400040007C0000006D
:10FB600000007C0040004000780040004000400061
:10FB700040000000000038004400400040005C00ED
:10FB800044004400380000000000440044004400E9
:10FB90007C004400440044004400000000003800A1
:10FBA00010001000100010001000100038000000BD
:10FBB00000000400040004000400040004004400E9
:10FBC0003800000000004400480050006000500071
:10FBD0004800480044000000000040004000400091
:10FBE00040004000400040007C0000000000440055
:10FBF0006C006C00540044004400440044000000C9
:10FC00000000440064006400540054004C004C00A8
:10FC10004400000000003800440044004400440058
:10FC20004400440038000000000078004400440014
:10FC30004400780040004000400000000000380010
:10FC400044004400440044004400540038000400D0
:10FC50000000780044004400440078004800480058
:10FC6000440000000000380044004000300008005C
:10FC7000040044003800000000007C001000100068
:10FC800010001000100010001000000000004400E0
:10FC90004400440044004400440044003800000094
:10FCA0000000440044004400280028002800100000
:10FCB00010000000000044004400540054005400B0
:10FCC0006C002800280000000000440028002800E4
:10FCD000100010002800280044000000000044002C
:10FCE0004400280028001000100010001000000040
:10FCF00000007C00040008001000100020004000FC
:10FD00007C0000000000180010001000100010001F
:10FD1000100010001000100018002000200010003B
:10FD20001000100010000800080000000000300063
:10FD30001000100010001000100010001000100043
:10FD400030001000280028004400000000000000DF
:10FD500000000000000000000000000000000000A3
:10FD60000000000000000000FE0020001000000065
:10FD70000000000000000000000000000000000083
:10FD80000000380044003C0044004C0034000000F7
:10FD9000000040004000580064004400440064003B
:10FDA000580000000000000000003800440040003F
:10FDB000400044003800000000000400040034004B
:10FDC0004C00440044004C003400000000000000DF
:10FDD0000000380044007C0040004400380000006F
:10FDE00000000C0010007C0010001000100010003B
:10FDF0001000000000000000000034004C0044002F
:10FE000044004C00340004007800400040005800DA
:10FE1000640044004400440044000000000010005E
:10FE20000000700010001000100010001000000012
:10FE30000000100000007000100010001000100002
:10FE400010001000E000400040004800500060003A
:10FE50005000480044000000000070001000100036
:10FE60001000100010001000100000000000000042
:10FE70000000780054005400540054005400000066
:10FE800000000000000058006400440044004400EA
:10FE9000440000000000000000003800440044005E
:10FEA000440044003800000000000000000058003A
:10FEB000640044004400640058004000400000001A
:10FEC000000034004C00440044004C0034000400A6
:10FED00004000000000058006400400040004000A2
:10FEE0004000000000000000000038004400300026
:10FEF00008004400380000000000200020007800C6
:10FF00002000200020002000180000000000000059
:10FF1000000044004400440044004C003400000051
:10FF200000000000000044004400280028002800D1
:10FF300010000000000000000000540054005400B5
:10FF40006C002800280000000000000000004400B1
:10FF500028001000100028004400000000000000ED
:10FF60000000440044002800280010001000100089
:10FF70006000000000007C0008001000200040002D
:10FF80007C0000000000180010001000100020008D
:10FF900020001000100010001800100010001000C9
:10FFA00010001000100010001000100010003000B1
:10FFB00010001000100008000800100010001000D1
:10FFC000300000000000000074004C000000000041
:10FFD0000000000000C81F010000002020010000F8
:10FFE000000000000000000E2401042201CA2201CA
:10FFF000F00C0153544D3332005148495041000038
:020000040001F9
:100000000E5009E1800E0D5CD8A009EF80F00BEFD7
:1000100080F00FEF80F0000E0E6E7F0E0D6E12500E
:1000200009E1800E115CD8A018EF80F01AEF80F083
:100030001EEF80F0000E126E7F0E116E105009E15F
:10004000400E0F5CD8A027EF80F029EF80F02DEF55
:1000500080F0000E106E3F0E0F6E145009E1400E3E
:10006000135CD8A036EF80F038EF80F03CEF80F0E2
:10007000000E146E3F0E136E11500D5C12500E5890
:10008000D8A045EF80F047EF80F04FEF80F011509F
:100090000D5C276E12500E58286E55EF80F00D50F3
:1000A000115C276E0E501258286E13500F5C1450BE
:1000B0001058D8A05EEF80F060EF80F068EF80F01D
:1000C00013500F5C296E145010582A6E6EEF80F09A
:1000D0000F50135C296E105014582A6E11500D5C8D
:1000E00012500E58D8A077EF80F079EF80F07DEFB6
:1000F00080F019681A6881EF80F0000E1A6E010E08
:10010000196E13500F5C14501058D8A08AEF80F06D
:100110008CEF80F090EF80F01B681C6894EF80F00B
:10012000000E1C6E010E1B6E2750295C2A50800A9F
:10013000166E2850800A1658D8A0A1EF80F0A3EFC1
:1001400080F0B1EF80F029C516F52AC517F5161E07
:10015000171E164A172A16C51DF517C51EF5B5EF49
:1001600080F027C51DF528C51EF51DC501F51EC566
:1001700002F5000E046E020E036EA6EC8CF001C5B3
:100180001FF502C520F527502810D8A4CAEF80F02B
:10019000CCEF80F01BEF81F00F50135C105014581F
:1001A000D8B0D5EF80F0D7EF80F0E3EF80F013C543
:1001B00025F514C526F50FC513F510C514F525C58D
:1001C0000FF526C510F50D50115C0E501258D8B021
:1001D000ECEF80F0EEEF80F0FAEF80F011C525F53E
:1001E00012C526F50DC511F50EC512F525C50DF57F
:1001F00026C50EF50FC523F510C524F50EEF81F0C9
:100200000DC501F50EC502F523C503F524C504F59A
:1002100015C505F51BEC8AF0234A242A2350135CEC
:1002200024501458D8B017EF81F019EF81F000EF87
:1002300081F0D5EF81F029502A10D8A422EF81F067
:1002400024EF81F073EF81F00F50135C10501458BD
:10025000D8B02DEF81F02FEF81F03BEF81F013C587
:1002600025F514C526F50FC513F510C514F525C5DC
:100270000FF526C510F50D50115C0E501258D8B070
:1002800044EF81F046EF81F052EF81F011C525F582
:1002900012C526F50DC511F50EC512F525C50DF5CE
:1002A00026C50EF50DC523F50EC524F566EF81F0C4
:1002B00023C501F524C502F50FC503F510C504F5E6
:1002C00015C505F51BEC8AF0234A242A2350115C3E
:1002D00024501258D8B06FEF81F071EF81F058EFD1
:1002E00081F0D5EF81F00DC501F50EC502F50FC502
:1002F00003F510C504F515C505F51BEC8AF0115082
:100300000D1807E112500E18D8A489EF81F08BEF79
:1003100081F099EF81F013500F1807E11450101875
:10032000D8A495EF81F097EF81F099EF81F0D5EFA8
:1003300081F01FC521F520C522F527C516F528C572
:1003400017F5161E171E164A172A2150165C17504D
:10035000800A186E2250800A1858D8B0B2EF81F087
:10036000B4EF81F0BCEF81F029501F5E2A50205A73
:1003700019500D261A500E222950215C2250800A55
:10038000166E2A50800A1658D8B0C9EF81F0CBEF0C
:1003900081F073EF81F027501F26285020221B5038
:1003A0000F261C50102273EF81F012002C6E01EC0E
:1003B00092F0000E2E6E2EC52DF53F0E306E000E03
:1003C0002F6E2DC50DF50E6A2EC50FF5106A2FC5BF
:1003D00011F5126A30C513F5146A2CC515F500EC39
:1003E00080F0150E2B6EC60EE82EFED72B2EFCD7F6
:1003F00000D08CEC8EF0060E2F267F0E2F6403EFBC
:1004000082F005EF82F0E1EF81F07F0E2F6E000E9B
:10041000306E2DC50DF50E6A2EC50FF5106A2FC56D
:1004200011F5126A30C513F5146A2CC515F500ECE8
:1004300080F0150E2B6EC60EE82EFED72B2EFCD7A5
:1004400000D08CEC8EF0060E30263F0E30642BEF81
:1004500082F02DEF82F009EF82F0D00E2B6ECA0EE3
:10046000E82EFED72B2EFCD701EC92F07F0E2D6EDE
:10047000000E2E6E3F0E306E000E2F6E2DC50DF548
:100480000E6A2EC50FF5106A2FC511F5126A30C518
:1004900013F5146A2CC515F500EC80F08CEC8EF089
:1004A000150E2B6EC60EE82EFED72B2EFCD700D0D5
:1004B000060E2F267F0E2F6460EF82F062EF82F02F
:1004C0003EEF82F0000E2F6E000E306E2DC50DF542
:1004D0000E6A2EC50FF5106A2FC511F5126A30C5C8
:1004E00013F5146A2CC515F500EC80F08CEC8EF039
:1004F000150E2B6EC60EE82EFED72B2EFCD700D085
:10050000060E30263F0E306488EF82F08AEF82F0CC
:1005100066EF82F0D00E2B6ECA0EE82EFED72B2E81
:10052000FCD701EC92F0000E2D6E3F0E2E6E000EE9
:10053000306E000E2F6E2DC50DF50E6A2EC50FF50F
:10054000106A2FC511F5126A30C513F5146A2CC54F
:1005500015F500EC80F0150E2B6EC60EE82EFED7BA
:100560002B2EFCD700D08CEC8EF0060E2F267F0EA3
:100570002F64BDEF82F0BFEF82F09BEF82F07F0E21
:100580002F6E000E306E2DC50DF50E6A2EC50FF5BF
:10059000106A2FC511F5126A30C513F5146A2CC5FF
:1005A00015F500EC80F0150E2B6EC60EE82EFED76A
:1005B0002B2EFCD700D08CEC8EF0060E30263F0E92
:1005C0003064E5EF82F0E7EF82F0C3EF82F0D00E07
:1005D0002B6ECA0EE82EFED72B2EFCD701EC92F024
:1005E0007F0E2D6E3F0E2E6E000E306E000E2F6EA3
:1005F0002DC50DF50E6A2EC50FF5106A2FC511F524
:10060000126A30C513F5146A2CC515F500EC80F09C
:10061000150E2B6EC60EE82EFED72B2EFCD700D063
:100620008CEC8EF0060E2F267F0E2F641AEF83F0CF
:100630001CEF83F0F8EF82F0000E2F6E000E306E8C
:100640002DC50DF50E6A2EC50FF5106A2FC511F5D3
:10065000126A30C513F5146A2CC515F500EC80F04C
:10066000150E2B6EC60EE82EFED72B2EFCD700D013
:100670008CEC8EF0060E30263F0E306442EF83F095
:1006800044EF83F020EF83F012001B6E0DC5D9F408
:100690000EC5DAF4DF50106E10505624116E000EA5
:1006A0005720126E125007E1800E115CD8B05BEF3C
:1006B00083F05DEF83F076EF83F020EE01F00D50D4
:1006C000D9260E50DA22DF50106E10505824116EC9
:1006D000000E5920126E125009E1400E115CD8A094
:1006E00074EF83F076EF83F079EF83F0000E5DEF27
:1006F00084F0000E1C6E000E1D6E000E1E6E000EAD
:100700001F6E36EF84F0E00E1B24016E026AFF0EAE
:10071000022220EE01F00D50D9260E50DA22DF50D1
:10072000106E1050036E046A2CEC91F01C500126E0
:100730001D500222D8900136023620EE02F00D50F4
:10074000D9260E50DA22DEC411F5DDC412F50150AF
:100750001124136E02501220146E13C5F6F414C542
:10076000F7F4000EF86E0900F5C415F50900F5C49C
:1007700016F515C517F516C518F5196A1A6A000E8B
:10078000206E000E216E000E226E000E236E16EFFC
:1007900084F020C510F517C511F518C512F519C557
:1007A00013F51AC514F5102ADBEF83F0D890113633
:1007B000123613361436102ED6EF83F012AEE3EF56
:1007C00083F0E5EF83F0F7EF83F020505624016EBD
:1007D00021505720026E1C505824036E1D50592082
:1007E000046E0FC505F51BEC8AF010EF84F0205065
:1007F0005624016E21505720026E1C505824036E5F
:100800001D505920046E0F50D8B409EF84F00CEF3E
:1008100084F0010E0DEF84F0000E056E1BEC8AF0E3
:10082000010E2026000E2122222223220DC5D9F4FA
:100830000EC5DAF4DF50106E10C511F5126A136A96
:10084000146A1150205C1250215813502258145031
:100850002358D8A02EEF84F030EF84F0C9EF83F056
:10086000010E1C26000E1D221E221F2220EE01F06A
:100870000D50D9260E50DA22DF50106E10C511F53A
:10088000126A136A146A11501C5C12501D581350DE
:100890001E5814501F58D8A050EF84F052EF84F027
:1008A00083EF83F00DC5D9F40EC5DAF4DF50106E76
:1008B00010505626000E57221B5012002F500108D0
:1008C000386E3050D8A0E82A0008396E000E356E18
:1008D000010E346E2FC532F530C533F5D89032365F
:1008E0003336321E331E324A332A32C536F533C50B
:1008F00037F5000E3B6E000E3A6E2FC53CF530C545
:100900003DF52BC501F52CC502F52F502D24036EA6
:1009100030502E20046E31C505F51BEC8AF02BC536
:1009200001F52CC502F52F502D5C036E30502E586A
:10093000046E31C505F51BEC8AF02F502B24016E97
:1009400030502C20026E2DC503F52EC504F531C59F
:1009500005F51BEC8AF02F502B5C016E30502C58A3
:10096000026E2DC503F52EC504F531C505F51BEC4A
:100970008AF02F502B5C0D6E30502C580E6E2DC50A
:100980000FF52EC510F52F502B24116E30502C2052
:10099000126E2DC513F52EC514F531C515F500ECF5
:1009A00080F05FEF85F039BED8EF84F0DAEF84F0A5
:1009B000E5EF84F03C06D8A03D06020E3626000E78
:1009C000372236503826375039223A4A3B2A020E0F
:1009D0003426000E352234503826355039223A500C
:1009E0002B5C0D6E3B502C580E6E3C502D240F6E20
:1009F0003D502E20106E3A502B24116E3B502C206F
:100A0000126E3C502D24136E3D502E20146E31C5B5
:100A100015F500EC80F03A502B240D6E3B502C2045
:100A20000E6E3C502D5C0F6E3D502E58106E3A509D
:100A30002B5C116E3B502C58126E3C502D5C136E8B
:100A40003D502E58146E31C515F500EC80F03C5029
:100A50002B240D6E3D502C200E6E3A502D240F6E1F
:100A60003B502E20106E3C502B5C116E3D502C588C
:100A7000126E3A502D24136E3B502E20146E31C549
:100A800015F500EC80F03C502B240D6E3D502C20D1
:100A90000E6E3A502D5C0F6E3B502E58106E3C502F
:100AA0002B5C116E3D502C58126E3A502D5C136E1B
:100AB0003B502E58146E31C515F500EC80F03C50BB
:100AC0003A5C3B50800A326E3D50800A3258D8A0C2
:100AD0006CEF85F06EEF85F0D3EF84F012001150CB
:100AE00001081A6E1250D8A0E82A00081B6E000EEA
:100AF000176E010E166E11C514F512C515F5D890B6
:100B000014361536141E151E144A152A14C518F568
:100B100015C519F5000E1D6E000E1C6E11C51EF5D3
:100B200012C51FF50DC501F50EC502F511500F24B4
:100B3000036E12501020046E13C505F51BEC8AF0ED
:100B40000DC501F50EC502F511500F5C036E125074
:100B50001058046E13C505F51BEC8AF011500D24D6
:100B6000016E12500E20026E0FC503F510C504F57C
:100B700013C505F51BEC8AF011500D5C016E125087
:100B80000E58026E0FC503F510C504F513C505F523
:100B90001BEC8AF068EF86F01BBED1EF85F0D3EF37
:100BA00085F0DEEF85F01E06D8A01F06020E18267F
:100BB000000E192218501A2619501B221C4A1D2AF1
:100BC000020E1626000E172216501A2617501B2248
:100BD0001C500D24016E1D500E20026E1E500F245D
:100BE000036E1F501020046E13C505F51BEC8AF030
:100BF0001C500D5C016E1D500E58026E1E500F24CD
:100C0000036E1F501020046E13C505F51BEC8AF00F
:100C10001C500D24016E1D500E20026E1E500F5CE4
:100C2000036E1F501058046E13C505F51BEC8AF0B7
:100C30001C500D5C016E1D500E58026E1E500F5C54
:100C4000036E1F501058046E13C505F51BEC8AF097
:100C50001E500D24016E1F500E20026E1C500F24DA
:100C6000036E1D501020046E13C505F51BEC8AF0B1
:100C70001E500D5C016E1F500E58026E1C500F244A
:100C8000036E1D501020046E13C505F51BEC8AF091
:100C90001E500D24016E1F500E20026E1C500F5C62
:100CA000036E1D501058046E13C505F51BEC8AF039
:100CB0001E500D5C016E1F500E58026E1C500F5CD2
:100CC000036E1D501058046E13C505F51BEC8AF019
:100CD0001E501C5C1D50800A146E1F50800A145850
:100CE000D8A075EF86F077EF86F0CCEF85F0120094
:100CF000020197B97EEF86F080EF86F08EEF86F0E6
:100D000097BB85EF86F087EF86F08EEF86F097AD84
:100D10008CEF86F08EEF86F004EF87F0B6EC91F062
:100D20000009D8B496EF86F098EF86F0A0EF86F031
:100D3000030E556E0201979BEBEC90F0EAEF86F004
:100D4000C1EC91F00009D8B4A8EF86F0AAEF86F0C4
:100D5000BCEF86F095EC91F00009D8B4B2EF86F0C4
:100D6000B4EF86F0BCEF86F0010E556E0201979944
:100D70003FEC91F0EAEF86F0A0EC91F00009D8B4D6
:100D8000C4EF86F0C6EF86F0D6EF86F095EC91F0D2
:100D90000009D8B4CEEF86F0D0EF86F0D6EF86F01B
:100DA000020E556E02019799B8EF86F0ABEC91F008
:100DB0000009D8B4DEEF86F0E0EF86F0E8EF86F0C9
:100DC000030E556E0201979D18EC91F0EAEF86F044
:100DD000020197995550D8B4F0EF86F0F2EF86F003
:100DE0007FEF87F002D800EF87F00500FA6E05016B
:100DF0006951FD6E6A51FE6E6B51FF6EFA50120022
:100E00007FEF87F07FEF87F09AB509EF87F00BEF60
:100E100087F019EF87F09ABF10EF87F012EF87F095
:100E200019EF87F09AA317EF87F019EF87F05DEFBE
:100E300087F0B5A01EEF87F020EF87F029EF87F04D
:100E40002DEC92F050C5D9F451C5DAF4DF6E504A5A
:100E5000512A02019AA52FEF87F031EF87F035EF85
:100E600087F018EC91F07FEF87F09AAF3AEF87F0B8
:100E70003CEF87F050EF87F05450D8B442EF87F042
:100E800044EF87F04CEF87F0000E546E9A919A9FD2
:100E900052EC91F07FEF87F03FEC91F031EF87F06B
:100EA0009AA355EF87F057EF87F002EF87F027EC12
:100EB00092F002019A937FEF87F0B5A062EF87F07E
:100EC00064EF87F06FEF87F02DEC92F050C5D9F406
:100ED00051C5DAF4DF6E504A512A7FEF87F0B5A290
:100EE00074EF87F076EF87F07FEF87F04CC5D9F489
:100EF0004DC5DAF44C4A4D2ADF5017EC92F012003F
:100F0000B6EC90F0780EB4EC8AF0E806D8B48BEF2B
:100F100087F08DEF87F08FEF87F083EF88F0C40EB6
:100F20001A6E090E1B6E000E1C6E000E1D6E9EEFDB
:100F300087F01A06000E1B5A1C5A1D5A1A501B1015
:100F40001C101D10D8A4A7EF87F0A9EF87F099EF28
:100F500087F0000E0E6EAE0E0F6E780E76EC91F0EE
:100F6000000E0E6E200E0F6E780E76EC91F0000ED5
:100F70000E6E100E0F6E780E76EC91F0000E0E6E67
:100F8000B00E0F6E780E76EC91F0000E0E6EC80E5D
:100F90000F6E780E76EC91F0000E0E6E000E0F6E56
:100FA000780E76EC91F0000E0E6E100E0F6E780E2D
:100FB00076EC91F0000E0E6E400E0F6E780E76EC11
:100FC00091F0000E0E6E810E0F6E780E76EC91F0A1
:100FD000000E0E6EFF0E0F6E780E76EC91F0000E86
:100FE0000E6EA10E0F6E780E76EC91F0000E0E6E66
:100FF000A60E0F6E780E76EC91F0000E0E6EA80E17
:101000000F6E780E76EC91F0000E0E6E3F0E0F6EA6
:10101000780E76EC91F0000E0E6EA40E0F6E780E28
:1010200076EC91F0000E0E6ED30E0F6E780E76EC0D
:1010300091F0000E0E6E000E0F6E780E76EC91F0B1
:10104000000E0E6ED50E0F6E780E76EC91F0000E3F
:101050000E6EF00E0F6E780E76EC91F0000E0E6EA6
:10106000D90E0F6E780E76EC91F0000E0E6E220EF9
:101070000F6E780E76EC91F0000E0E6EDA0E0F6E9B
:10108000780E76EC91F0000E0E6E120E0F6E780E4A
:1010900076EC91F0000E0E6EDB0E0F6E780E76EC95
:1010A00091F0000E0E6E200E0F6E780E76EC91F021
:1010B000000E0E6E8D0E0F6E780E76EC91F0000E17
:1010C0000E6E140E0F6E780E76EC91F0000E0E6E12
:1010D000AF0E0F6E780E76EC91F0000E0E6E2E0EA7
:1010E0000F6E780E76EC91F0000E3CEC90F08CECEC
:1010F0008EF0000E576E000E566E000E596E000EEA
:10110000586E010E5B6E1200CCEC91F080EC87F013
:10111000000E026E000E016E000E046E0A0E036ECB
:10112000D5EC91F0F30E246EFF0E256E740E266E34
:10113000050E276E010E286EACEC8FF0000E026ECD
:101140000A0E016E000E046E280E036ED5EC91F0AF
:10115000F90E246EFF0E256E740E266E050E276E98
:10116000010E286EACEC8FF08CEC8EF0A30E486E66
:10117000570E476E020EE82EFED7472EFCD7482E9C
:10118000FAD700D0080E136E000E01EC8FF0A30EFC
:10119000486E570E476E020EE82EFED7472EFCD73C
:1011A000482EFAD700D0080E136E000EC7EC8EF052
:1011B000A30E486E570E476E020EE82EFED7472E3E
:1011C000FCD7482EFAD700D0DEEC91F0A30E486E83
:1011D000570E476E020EE82EFED7472EFCD7482E3C
:1011E000FAD700D0000E146E010E136ED1EC90F001
:1011F000A30E486E570E476E020EE82EFED7472EFE
:10120000FCD7482EFAD700D0000E146E000E136ED5
:10121000D1EC90F0A30E486E570E476E020EE82EEA
:10122000FED7472EFCD7482EFAD700D0010ED6ECB9
:1012300081F0A30E486E570E476E020EE82EFED7C1
:10124000472EFCD7482EFAD700D0010E4CEC8DF07B
:10125000A30E486E570E476E020EE82EFED7472E9D
:10126000FCD7482EFAD700D0010E11EC8EF0A30E59
:10127000486E570E476E020EE82EFED7472EFCD75B
:10128000482EFAD700D0000E3F6E010E3E6E050EBE
:10129000D1EC8DF0A30E486E570E476E020EE82E6D
:1012A000FED7472EFCD7482EFAD700D0000E216E6D
:1012B000010E206E050E8FEC8DF0A30E486E570EBA
:1012C000476E020EE82EFED7472EFCD7482EFAD7DF
:1012D00000D0010E08EC8DF06CEF89F0FEEFFFF00E
:1012E0002C5007E1800E2B5CD8B079EF89F07BEFB2
:1012F00089F01AEF8AF02E5009E1400E2D5CD8A03B
:1013000084EF89F086EF89F088EF89F01AEF8AF090
:101310002F502B24346E30502C20356E355009E17F
:10132000800E345CD8A097EF89F099EF89F0A1EF97
:1013300089F02B5080082F6E2C50D8A0E82A000886
:10134000306E31502D24346E32502E20356E355093
:1013500009E1400E345CD8A0B0EF89F0B2EF89F01B
:10136000BAEF89F02D504008316E2E50D8A0E82AEF
:101370000008326E2BC50DF52CC50EF52DC50FF5E9
:101380002EC510F52F502B24116E30502C20126ECC
:101390002DC513F52EC514F533C515F500EC80F0F9
:1013A0002BC50DF52CC50EF531502D240F6E325086
:1013B0002E20106E2F502B24116E30502C20126EC8
:1013C00031502D24136E32502E20146E33C515F576
:1013D00000EC80F02BC50DF52CC50EF52DC50FF5D5
:1013E0002EC510F52BC511F52CC512F531502D2445
:1013F000136E32502E20146E33C515F500EC80F0BC
:101400002F502B240D6E30502C200E6E2DC50FF555
:101410002EC510F52F502B24116E30502C20126E3B
:1014200031502D24136E32502E20146E33C515F515
:1014300000EC80F01200025007E1800E015CD8B091
:1014400024EF8AF026EF8AF0B3EF8AF0045009E126
:10145000400E035CD8A02FEF8AF031EF8AF033EF13
:101460008AF0B3EF8AF05A50D8B439EF8AF03BEFE4
:101470008AF046EF8AF00550D8B441EF8AF044EF85
:101480008AF0010E45EF8AF0000E056E0504D8A41F
:101490004CEF8AF04EEF8AF080EF8AF003C506F534
:1014A000070E0616010E076E062A59EF8AF0D8902D
:1014B0000736062E57EF8AF003C508F504C509F56F
:1014C000D89009320832D89009320832D8900932BF
:1014D0000832070ED89008360936E82E6AEF8AF0EF
:1014E000000E08240A6E070E09200B6E01500A2414
:1014F000D96E02500B20DA6E0750DF12B3EF8AF07C
:1015000003C506F5070E0616010E076E062A8BEFB9
:101510008AF0D8900736062E89EF8AF00750FF0A26
:10152000086E03C509F504C50AF5D8900A320932D8
:10153000D8900A320932D8900A320932070ED89070
:1015400009360A36E82E9FEF8AF0000E09240B6E4A
:10155000070E0A200C6E01500B24D96E02500C208D
:10156000DA6E0850DF161200096E09C502F5036A2B
:10157000000E046E000E056E000E076E000E066E65
:10158000DB0EF66EFF0EF76E000EF86E02D8D6EF89
:101590008AF00500FA6E0900F550FD6E0900F5505D
:1015A000FE6E0900F550FF6EFA5012000009D8A433
:1015B000DCEF8AF0DEEF8AF0FCEF8AF0E70EF66EE1
:1015C000FF0EF76E000EF86E02D8F4EF8AF00500F9
:1015D000FA6E0900F550FD6E0900F550FE6E090027
:1015E000F550FF6EFA501200E806D8A4FAEF8AF020
:1015F000FCEF8AF01AEF8BF0EA0EF66EFF0EF76E34
:10160000000EF86E02D812EF8BF00500FA6E09009A
:10161000F550FD6E0900F550FE6E0900F550FF6EA5
:10162000FA5012000009D8A418EF8BF01AEF8BF0D3
:10163000FCEF8AF0E70EF66EFF0EF76E000EF86E06
:1016400002D830EF8BF00500FA6E0900F550FD6E00
:101650000900F550FE6E0900F550FF6EFA501200B9
:10166000E806D8A436EF8BF039EF8BF0010E3AEF95
:101670008BF0000E12000D6E0DC502F5036A09C550
:1016800004F50AC505F50BC506F50CC507F5DB0E17
:10169000F66EFF0EF76E000EF86E02D85DEF8BF05F
:1016A0000500FA6E0900F550FD6E0900F550FE6E5A
:1016B0000900F550FF6EFA5012000009D8B463EF2C
:1016C0008BF065EF8BF0C0EF8BF07DEF8BF0F00EC1
:1016D000F66EFF0EF76E000EF86E02D87DEF8BF0FF
:1016E0000500FA6E0900F550FD6E0900F550FE6E1A
:1016F0000900F550FF6EFA501200EA0EF66EFF0E6A
:10170000F76E000EF86E02D893EF8BF00500FA6EBC
:101710000900F550FD6E0900F550FE6E0900F55008
:10172000FF6EFA5012000009D8A499EF8BF09BEFDE
:101730008BF067EF8BF0E70EF66EFF0EF76E000E84
:10174000F86E02D8B1EF8BF00500FA6E0900F55083
:10175000FD6E0900F550FE6E0900F550FF6EFA505F
:1017600012005C6E5C50D8A4B8EF8BF0BAEF8BF02F
:10177000BEEF8BF0000E5F6EC0EF8BF05CC55FF5C7
:1017800012002C5007E1800E2B5CD8B0CAEF8BF012
:10179000CCEF8BF035EF8CF02E5009E1400E2D5C34
:1017A000D8A0D5EF8BF0D7EF8BF0D9EF8BF035EFDA
:1017B0008CF02F502B24346E30502C20356E355049
:1017C00009E1800E345CD8A0E8EF8BF0EAEF8BF0F3
:1017D000F2EF8BF02B5080082F6E2C50D8A0E82A07
:1017E0000008306E31502D24346E32502E20356E6C
:1017F000355009E1400E345CD8A001EF8CF003EFC6
:101800008CF00BEF8CF02D504008316E2E50D8A08C
:10181000E82A0008326E000E366E2AEF8CF02BC5D7
:101820000DF52CC50EF536502D240F6E000E2E2012
:10183000106E2F502B24116E30502C20126E36500B
:101840002D24136E000E2E20146E33C515F500ECFA
:1018500080F0362A3650315C000E3258D8B033EF63
:101860008CF035EF8CF00FEF8CF01200000EBE6E96
:10187000000EBF6E180EC06E000EC16E000EC26E5E
:10188000000EC36EC668C768E70EC86EC9680F0E43
:10189000CA6EF70ECB6E040100690869E70E106F7F
:1018A0001869070E206FF70E286F000E016F000EEB
:1018B000096F000E116F000E196F000E216F000EE0
:1018C000296F000E026F000E0A6F180E126F000EC5
:1018D0001A6F000E226F000E2A6F03690B691369DD
:1018E0001B69070E236F2B6904690C6914691C6955
:1018F0000F0E246F2C69000E0201896F000E886F95
:10190000000E876F000E866F130E716F370E146F07
:10191000140E706F380E156F000E0401056F000E67
:10192000066F000E076F000E0D6F000E0E6F000E9B
:101930000F6F000E156F000E166F000E176F000E62
:10194000256F000E266F000E276F1200000E066E28
:1019500004BEAFEF8CF0ADEF8CF0B5EF8CF0036C04
:10196000041ED8B0042A010E066E02BEBCEF8CF035
:10197000BAEF8CF0C2EF8CF0016C021ED8B0022AD4
:10198000010E061A000E086E000E076E03500410BA
:10199000D8B4CDEF8CF0CFEF8CF0F7EF8CF0010ED8
:1019A000056ED7EF8CF0D89003360436052A04AEC6
:1019B000DCEF8CF0DEEF8CF0D3EF8CF0D8900736B4
:1019C00008360350015C04500258D8A0EAEF8CF0AE
:1019D000ECEF8CF0F1EF8CF00350015E0450025AF2
:1019E0000780D89004320332052EDEEF8CF00650CB
:1019F000D8B4FDEF8CF0FFEF8CF003EF8DF0076CA7
:101A0000081ED8B0082A07C501F508C502F512005E
:101A1000396E3F0E3B6E1F0E3C6E01EC92F01F0EB6
:101A20003A6E000E3D6E42EF8DF03BC52BF52C6AF1
:101A30003D503C5C2D6E2E6AD8A02E063D503B5C7E
:101A40002F6E306AD8A030063C503D24316E326A89
:101A500032363B503D24336E346A34363C503D249C
:101A6000356E366A363639C537F54FEC8EF08CEC6C
:101A70008EF0D00E386ECA0EE82EFED7382EFCD768
:101A8000050E3D263A503D5CD8A049EF8DF04BEF56
:101A90008DF015EF8DF01200376E01EC92F0400ED4
:101AA000386E020E3A6E85EF8DF03AC501F5026A86
:101AB000000E046E020E036EA6EC8CF00150396E1F
:101AC000395040082B6E000ED8A0E82A00082C6E72
:101AD000395020082D6E000ED8A0E82A00082E6E7E
:101AE0003AC52FF5306A3AC531F5326A37C533F554
:101AF00070EC89F08CEC8EF0D00E366ECA0EE82EAB
:101B0000FED7362EFCD7060E3A2638503A5CD8A0BF
:101B10008CEF8DF08EEF8DF055EF8DF01200286E6A
:101B200001EC92F02850020DF3C425F52850800FE7
:101B3000236E2850400F246E000E266EC7EF8DF0E6
:101B4000000E276EBCEF8DF026C50DF50E6A27C579
:101B50000FF5106A28C511F5126A20C513F56FEC50
:101B600085F08CEC8EF0D00E226ECA0EE82EFED7D9
:101B7000222EFCD7255027262450275CD8A0C3EF5F
:101B80008DF0C5EF8DF0A4EF8DF025502626235063
:101B9000265CD8A0CEEF8DF0D0EF8DF0A0EF8DF0C9
:101BA0001200466E800E416E400E426E4650020D8F
:101BB000F3C443F501EC92F046C544F507EF8EF00F
:101BC00046C545F5FCEF8DF044C52BF52C6A45C59F
:101BD0002DF52E6A46C52FF5306A3EC531F55EEC0F
:101BE00084F08CEC8EF0D00E406ECA0EE82EFED73C
:101BF000402EFCD7435045264250455CD8A003EF09
:101C00008EF005EF8EF0E4EF8DF043504426415006
:101C1000445CD8A00EEF8EF010EF8EF0E0EF8DF068
:101C20001200386E3F0E396E1F0E3A6E01EC92F0C4
:101C3000400E3C6E3CC501F5026A000E046E020EB9
:101C4000036EA6EC8CF001503B6E3B50395C2B6E62
:101C50002C6AD8A02C063B503A5C2D6E2E6AD8A078
:101C60002E063CC52FF5306A3CC531F5326A38C5C1
:101C700033F5C1EC8BF08CEC8EF0D00E376ECA0EC3
:101C8000E82EFED7372EFCD7060E3C5E3C50D8A47B
:101C90004CEF8EF04EEF8EF01AEF8EF012002BC547
:101CA0000DF52CC50EF52DC50FF52EC510F52FC55C
:101CB00011F530C512F531C513F532C514F537C528
:101CC00015F500EC80F02FC50DF530C50EF531C5CA
:101CD0000FF532C510F533C511F534C512F535C50C
:101CE00013F536C514F537C515F500EC80F033C58E
:101CF0000DF534C50EF535C50FF536C510F52BC5F8
:101D000011F52CC512F52DC513F52EC514F537C5E3
:101D100015F500EC80F01200000E196E000E0E6E2C
:101D20001950B00F0F6E780E76EC91F0000E0E6E1B
:101D3000000E0F6E780E76EC91F0000E0E6E100E07
:101D40000F6E780E76EC91F0400E0E6E1950176EF5
:101D5000186A070ED89017361836E82EAAEF8EF0BC
:101D6000000E17240F6E070E1820106E000E126E54
:101D7000800E116E780E3BEC8FF0192A070E196455
:101D8000C4EF8EF0C6EF8EF08EEF8EF01200146E60
:101D9000000E0E6E260E0F6E780E76EC91F0000E91
:101DA0000E6E000E0F6E780E76EC91F0000E0E6E39
:101DB00014C50FF5780E76EC91F0000E0E6E000E45
:101DC0000F6E780E76EC91F0000E0E6E13C50FF5C7
:101DD000780E76EC91F0000E0E6E000E0F6E780EFF
:101DE00076EC91F0000E0E6EFF0E0F6E780E76EC14
:101DF00091F0000E0E6E2F0E0F6E780E76EC91F0B5
:101E00001200146E000E0E6E270E0F6E780E76EC1A
:101E100091F0000E0E6E000E0F6E780E76EC91F0C3
:101E2000000E0E6E14C50FF5780E76EC91F0000ED4
:101E30000E6E000E0F6E780E76EC91F0000E0E6EA8
:101E400013C50FF5780E76EC91F0000E0E6E000EB5
:101E50000F6E780E76EC91F0000E0E6EFF0E0F6E88
:101E6000780E76EC91F0000E0E6E2F0E0F6E780E3F
:101E700076EC91F01200156E0EC500F6000E166E8F
:101E800058EF8FF016500F24D96E000E1020DA6E26
:101E90001650136E146A010E1326000E1422000E43
:101EA0001324E16E060E1420E26EDFC4E7F4162A56
:101EB0001650136E146A1150135C12501458D8A0A7
:101EC00064EF8FF066EF8FF042EF8FF0000E096E37
:101ED000060E0A6E010E11240B6E000E12200C6EFF
:101EE00015503BEC8BF01200F60EF66E230EF76EDB
:101EF000010EF86E01EE6CF110EE0CF00900F5C465
:101F0000EEF4E550E150FAE16C0EF66E240EF76E39
:101F1000010EF86E0900F5C45DF50900F5C45EF523
:101F20000900F5C45FF501EE00F311EE00F0EE6A72
:101F3000E550E150FCE1E250FAE101EE60F10C0EF7
:101F4000EE6AE806FDE101EE49F1140EEE6AE806DC
:101F5000FDE1000184EF88F0D3EF8FF026C50DF589
:101F600027C50EF528C50FF524C5F6F425C5F7F4E9
:101F7000000EF86E0800F55045EC83F0296E24C57C
:101F8000F6F425C5F7F4000EF86E0800F550291890
:101F9000D8B4CDEF8FF0CFEF8FF0D1EF8FF0E3EF2C
:101FA0008FF0244A252A24C5F6F425C5F7F4000E3F
:101FB000F86E0800F5500009D8A4E1EF8FF0E3EFC8
:101FC0008FF0AEEF8FF01200040E0201946F800EBE
:101FD000956F080E966F030E9C6F000E9A6F000EA1
:101FE0009B6F000E976F000E8D6F510E876F510E15
:101FF000866F948F050EE82EFED7000000000000CB
:10200000000000000000000002019A919A95700EF5
:10201000016E240E026E010E036E65EC91F012004B
:10202000000E086E02EC91F00009D8A41AEF90F0AF
:102030001CEF90F03AEF90F0010E496E02C54AF5A0
:1020400003C54BF5000E546E04C54CF505C54DF5A2
:1020500006C54EF507C54FF5000E506E000E516EC9
:10206000000E536E000E526E000E556E7DEC90F019
:10207000010E086E08501200096E0950D8B443EFE3
:1020800090F045EF90F04AEF90F0000E0B6E0A686A
:102090004EEF90F0000E0B6E000E0A6E000E016EF9
:1020A000070E026E0AC503F50BC504F5040E066E95
:1020B000000E056E9AEC90F01200D69AAF90D68082
:1020C000000E016E000E026E000E036EF4EC91F035
:1020D000B490D682000E016E000E026E000E036EEA
:1020E000EDEC91F0B890D684000E016E000E026EF9
:1020F000000E036EE6EC91F012004E504F10D8B473
:1021000084EF90F086EF90F093EF90F04E501FEC3C
:1021100092F05450D8B48FEF90F091EF90F093EF8D
:1021200090F033EC92F04A504A2423EC92F030ECD9
:1021300092F0120001C507F502C508F5A8EF90F06E
:1021400007C5D9F408C5DAF403C5DFF4074A082A3D
:102150000506D8A00606052806E10628D8A4B3EF90
:1021600090F0B5EF90F0A0EF90F01200900E016E9D
:10217000D00E026E030E036E000E046EC5EF90F0DB
:102180000106000E025A035A045A015002100310AD
:102190000410D8A4CEEF90F0D0EF90F0C0EF90F004
:1021A000120013501410D8B4D8EF90F0DAEF90F07A
:1021B000E3EF90F0000E0E6EA70E0F6E780E76EC29
:1021C00091F0EAEF90F0000E0E6EA60E0F6E780EF4
:1021D00076EC91F012001BEC92F00DEC92F012EC08
:1021E00092F00201949F948F050EE82EFED7000016
:1021F00000000000000000000000000002019A91B1
:102200009A951200010E016E4950D8A40AEF91F080
:102210000CEF91F016EF91F0020198AF12EF91F0F0
:1022200014EF91F016EF91F0000E016E01501200C4
:10223000000E496E000E4B6E4A68000E4C6E000E8A
:102240004D6E000E506E000E516E1BEC92F00DECB8
:1022500092F012EC92F0120001500302F3C405F563
:10226000F4C406F501500402F3500626025003029E
:10227000F350062605C501F506C502F5120027EC48
:1022800092F02AEC92F00009D8B449EF91F04BEFAC
:1022900091F051EF91F0000E1FEC92F0000E17EC50
:1022A00092F0120052505310D8B459EF91F05BEFF6
:1022B00091F05EEF91F052501FEC92F0D8804A34CA
:1022C00023EC92F030EC92F0120001500210031057
:1022D000D8B46DEF91F06FEF91F075EF91F001C50B
:1022E00069F502C56AF503C56BF51200106E0EC5DF
:1022F00011F50FC512F5110E096E050E0A6E000ECE
:102300000C6E020E0B6E10503BEC8BF01200600E48
:102310000001AD6F000EAF6F000EB36F080EB16F0E
:10232000000EB06F000EAC6F1200020195BB9BEF68
:1023300091F09EEF91F0010E9FEF91F0000E1200D0
:10234000020198B7A6EF91F0A9EF91F0010EAAEF64
:1023500091F0000E1200020197BDB1EF91F0B4EFC1
:1023600091F0010EB5EF91F0000E1200020197BB43
:10237000BCEF91F0BFEF91F0010EC0EF91F0000EB5
:102380001200020198A7C7EF91F0CAEF91F0010E79
:10239000CBEF91F0000E120087EC91F036EC8CF050
:1023A000E4EC8FF05DEC90F0120001C556F502C52B
:1023B00057F503C558F504C559F51200000E0E6E09
:1023C0002E0E0F6E780E76EC91F0120001C560F5BE
:1023D00002C561F503C562F5120001C563F502C5CA
:1023E00064F503C565F5120001C566F502C567F51C
:1023F00003C568F51200101AC1D7070A69F80B1255
:102400000DEB000E3CEC90F08CEC8EF0120055C5FC
:1024100001F5000E556E015012000201979B979D29
:1024200097991200000E0201996F99851200016EB2
:1024300001C58CF21200000E02019A6F1200016EAB
:1024400001C58DF21200016E01C58FF2120002016A
:10245000949D120002018D51120002018B51120055
:0F2460000201948B12000201948D1200D5FF012E
:02247000120058
:04FFFC0074EF8FF01F
:020000040030CA
:08000000FFFFF7FF9FFFFFFF68
:01000900FFF7
:00000001FF
