:04000000FEEFFFF020
:10D6BE0000150A0D02060000000000000000000028
:10D6CE0000000000000000000000020000FE02004A
:10D6DE000000000000000000000000000000000339
:10D6EE000E0000000E000000000000000000000010
:10D6FE00000000000750005003F80056005003F8D9
:10D70E00005600000000000000059C012202FF07E9
:10D71E002202C401000000000000000000000A1CEC
:10D72E0000220022029C0140003000CC0122022087
:10D73E0002C001080000C0013C02220252028C010C
:10D74E00C003000200000000010E000000000000F7
:10D75E0000000000000000000000000000040000B7
:10D76E00F0030C0C0210000000000000000000008E
:10D77E0000000302100C0CF003000000000000007B
:10D78E00000000000000000314000E001400000052
:10D79E000000000000000000000000000720002034
:10D7AE00002000F8002000200020000000000000F3
:10D7BE00000200080006000000000000000000004B
:10D7CE000000000000000340004000400000000088
:10D7DE000000000000000000000000020000000237
:10D7EE00000000000000000000000000000000002B
:10D7FE00030003F0000E0000000000000000000017
:10D80E00000000000005F800040102020401F80007
:10D81E00000000000000000000000308000400FEED
:10D82E0003000000000000000000000000000005E2
:10D83E000C038202420224021802000000000000C3
:10D84E00000000000584010202220254018800003B
:10D85E0000000000000000000005C000B0008C00B9
:10D86E00FE0380000000000000000000000005B86C
:10D87E0001160212022201C2000000000000000088
:10D88E0000000005F800240112022201C40000006D
:10D89E000000000000000000050200820372000A72
:10D8AE0000060000000000000000000000058800D7
:10D8BE005401220254018800000000000000000004
:10D8CE000000051801240242022401F800000000A5
:10D8DE00000000000000000200000802000000002E
:10D8EE000000000000000000000000000200080818
:10D8FE000600000000000000000000000000000014
:10D90E0000052000500050008800040100000000B7
:10D91E00000000000000054800480048004800488C
:10D92E000000000000000000000000050401880057
:10D93E005000500020000000000000000000000019
:10D94E00050C000600C20222001C000000000000B0
:10D95E0000000000000AF0030804F4090A120A127B
:10D96E000A11F2131A12040AF805070003E0005C0C
:10D97E000042005C00E00000030000000000000612
:10D98E000000FE03220222022202DC01000000003F
:10D99E0000000000070000F800040102020202026B
:10D9AE00028C01000000000000070000FE030202CE
:10D9BE00020202020401F80000000000000006004E
:10D9CE0000FE0322022202220222020000000000B8
:10D9DE00000000060000FE032200220022000200CA
:10D9EE000000000000000000070000F80004010223
:10D9FE000222022202EC01000000000000070000DB
:10DA0E00FE032000200020002000FE030000000086
:10DA1E000000020000FE03000000000000000000F5
:10DA2E000000000000000004800100020002FE0160
:10DA3E00000000000000000000000000060000FED4
:10DA4E0003200078008401020200000000000000A4
:10DA5E0000060000FE0300020002000200020000A9
:10DA6E00000000000000080000FE031C00E00100A2
:10DA7E0002E0011C00FE0300000000070000FE0390
:10DA8E000C00300040008001FE030000000000008A
:10DA9E00070000F8000401020202020401F800006F
:10DAAE000000000000060000FE03220022002200FB
:10DABE001C000000000000000000070000F8000439
:10DACE0001020202030401F8060000000000000833
:10DADE000000FE03220022006200A2001C010002D0
:10DAEE00000000000600009C01220222022202CC4D
:10DAFE00010000000000000000060000020002000D
:10DB0E00FE030200020000000000000000000700FB
:10DB1E0000FE000001000200020001FE00000000F5
:10DB2E000000000706003800C0010002C0013800E6
:10DB3E000600000000000000090600F8010002FCCB
:10DB4E00010200FC010002F0010E000000070202BB
:10DB5E000401D8002000D8000401020200000000D9
:10DB6E0000000702000C001000E00310000C000281
:10DB7E000000000000000006020382026202120290
:10DB8E000A0206020000000000000000030000FE72
:10DB9E001F02100000000000000000000000000046
:10DBAE0000030600F8000003000000000000000063
:10DBBE00000000000000020210FE1F000000000026
:10DBCE0000000000000000000000000520001C0006
:10DBDE0002001C00200000000000000000000000F9
:10DBEE0006000800080008000800080008000000F1
:10DBFE000000000000020100020000000000000012
:10DC0E0000000000000000000000059001480248DE
:10DC1E00024802F0030000000000000000000005B2
:10DC2E00FE03100108020802F001000000000000CF
:10DC3E000000000004F001080208021001000000BC
:10DC4E0000000000000000000005F00108020802BC
:10DC5E001001FE030000000000000000000005F0AF
:10DC6E000148024802480270010000000000000056
:10DC7E0000000002FE030A00000000000000000089
:10DC8E00000000000000000005F009081208121044
:10DC9E0011F80F0000000000000000000005FE0358
:10DCAE00100008000800F003000000000000000053
:10DCBE00000001FA03000000000000000000000058
:10DCCE000000000000000001FA1F0000000000002C
:10DCDE0000000000000000000000000004FE032011
:10DCEE0000D000080300000000000000000000004B
:10DCFE000001FE0300000000000000000000000014
:10DD0E0000000000000007F80310000800F00310E8
:10DD1E00000800F00300000000000005F8031000EA
:10DD2E0008000800F00300000000000000000000E2
:10DD3E0005F001080208020802F0010000000000D0
:10DD4E00000000000005F81F100108020802F00193
:10DD5E000000000000000000000005F001080208AD
:10DD6E00021001F81F000000000000000000000378
:10DD7E00F803100008000000000000000000000082
:10DD8E00000000000430014802480290010000002B
:10DD9E0000000000000000000002FE030802000068
:10DDAE00000000000000000000000000000005F868
:10DDBE0001000200020001F8030000000000000054
:10DDCE00000000051800E0010002E001180000004C
:10DDDE00000000000000000007F8010002E001183A
:10DDEE0000E0010002F8010000000000000508023A
:10DDFE00B0014000B0010802000000000000000069
:10DE0E000000051810E010000FE0001800000000E0
:10DE1E0000000000000000040803C80228021802D7
:10DE2E00000000000000000000000000034000BCE5
:10DE3E000F021000000000000000000000000000B3
:10DE4E0000020000FE1F00000000000000000000A5
:10DE5E00000000000000030210BC0F400000000094
:10DE6E00000000000000000000000005300010005F
:10DE7E003000200010000000000000000000000034
:10DE8E0003FF030102FF030000000000000000007A
:10DE9E00000000000011080C020500000000000048
:10DEAE00000000000000000000000200007E0100E3
:10DEBE000000000000000000000000030E00000043
:10DECE000E000000000000000000000005E8015EEA
:10DEDE0000E8015E004800000000000000058C0014
:10DEEE001201FF031201E400000000000000070C05
:10DEFE000012008C017000CC002201C00000000551
:10DF0E00E0002C013201CC00E00000000000000017
:10DF1E00010E0000000000000000000000000000E4
:10DF2E000002FC03020400000000000000000000DC
:10DF3E000000020204FC03000000000000000000CC
:10DF4E000000000314000E0014000000000000008A
:10DF5E00000000000520002000F800200020000036
:10DF6E00000000000002000400030000000000009A
:10DF7E000000000000000240004000000000000011
:10DF8E000000000000000002000000010000000080
:10DF9E00000000000000000003C00130000E000071
:10DFAE0000000000000000000004FC00020102015D
:10DFBE00FC0000000000000000000308000400FE4A
:10DFCE000100000000000000000000048401420176
:10DFDE0022011C0100000000000000000484001259
:10DFEE00011201EC000000000000000000056000BE
:10DFFE0058004400FE01400000000000000004989C
:10E00E000016011201E200000000000000000004F2
:10E01E00FC0022011201E4000000000000000000DC
:10E02E00040200C2013A00060000000000000000D9
:10E03E000004EC0012011201EC00000000000000D0
:10E04E000000049C0022011201FC000000000000F0
:10E05E0000000002000008010000000000000000A7
:10E06E000000000002000408030000000000000091
:10E07E000000000000042000500050008800000046
:10E08E00000000000000045000500050005000003E
:10E09E000000000000000004880050005000200026
:10E0AE000000000000000000040400620112000CD9
:10E0BE0000000000000000000008F0010802F40457
:10E0CE000A090A09F2090C05F8020580017C0042D2
:10E0DE00007C00800100000000000005FE0112011E
:10E0EE0012011201EC00000000000000067800840E
:10E0FE0000020102010201CC000000000005FE0139
:10E10E00020102018400780000000000000005FEFC
:10E11E00011201120112011201000000000000059F
:10E12E000000FE01120012000200000000000000BC
:10E13E000678008400020122012201EC000000009A
:10E14E000005FE01100010001000FE01000000008E
:10E15E00000001FE010000000000000000000000B1
:10E16E0000000004C00000010001FE0000000000DD
:10E17E000000000005FE0110003800C4000201007E
:10E18E00000000000004FE0100010001000100007B
:10E19E0000000000000007FE010C00F0000001F07E
:10E1AE00000C00FE01000006FE01040018006000D5
:10E1BE008000FE01000000000678008400020102CB
:10E1CE0001840078000000000005FE0122002200FC
:10E1DE0022001C00000000000000067800840002EF
:10E1EE000182018400780300000000070000FE0198
:10E1FE001200320052008C000001000005CC00120B
:10E20E000112011201E400000000000000050200EE
:10E21E000200FE0102000200000000000000067E67
:10E22E000080000001000180007E0000000000055B
:10E23E000600F8000001F8000600000000000000D3
:10E24E0007FE000001FC000200FC000001FE0000C1
:10E25E0000060201CC0030003000CC0002010000AC
:10E26E0000000502000C00F0010C0002000000008E
:10E27E00000000058201420132010A010601000080
:10E28E000000000002FE0702040000000000000073
:10E29E00000000000003060078008001000000006E
:10E2AE00000000000000020204FE07000000000053
:10E2BE0000000000000000031C0002001C00000013
:10E2CE000000000000000000050002000200020035
:10E2DE000200020000000000000202000400000024
:10E2EE000000000000000000000004C80028012803
:10E2FE0001F001000000000000000004FE0190008B
:10E30E000801F000000000000000000004F000080A
:10E31E000108019000000000000000000004F00061
:10E32E0008019000FE01000000000000000004F053
:10E33E000028012801B000000000000000000002CB
:10E34E00FE010A00000000000000000000000000B6
:10E35E0004F00408059004F803000000000000001B
:10E36E000004FE0110000800F00100000000000093
:10E37E00000001FA01000000000000000000000093
:10E38E0000000001FA07000000000000000000007D
:10E39E000000000004FE0120005000880100000073
:10E3AE00000000000001FE0100000000000000005F
:10E3BE0000000000000007F80110000800F0011036
:10E3CE00000800F801000004F80110000800F00138
:10E3DE00000000000000000004F00008010801F039
:10E3EE0000000000000000000004F8079000080183
:10E3FE00F000000000000000000004F00008019092
:10E40E0000F807000000000000000003F8011000F3
:10E41E000800000000000000000000000498002822
:10E42E000148019000000000000000000002FE0103
:10E43E00080100000000000000000000000004F8C9
:10E44E000000018000F8010000000000000000053F
:10E45E001800E0000001E0001800000000000000BD
:10E46E0007F8000001F0000800F0000001F80000BD
:10E47E0000050801900060009000080100000000F7
:10E48E000000050800700480037000080000000002
:10E49E000000000488014801280118010000000056
:10E4AE000000000002DE0302040000000000000075
:10E4BE00000000000001FE07000000000000000048
:10E4CE00000000000000030204DE07200000000030
:10E4DE000000000000000005300010003000200099
:10E4EE00100000000000000003FF008100FF00008C
:10E4FE000000000000000000006A2001000000BEC5
:10E50E001701000000881D010000000000004420DB
:10E51E0001000000000000000000000000000000EC
:10E52E000000000240000F0102400000002E0F13F9
:10E53E0003080000000000000000000000000000C2
:10E54E0000000000000000000000000000000000BD
:10E55E0000000000000000000000000000000002AB
:10E56E00000000FE47000000000000000000000058
:10E57E00000000000000000000000000000000008D
:10E58E000000000000000000000000000004000079
:10E59E00003E00000000003E0000000000000000F1
:10E5AE00000000000000000000000000000000005D
:10E5BE000000000000000000000000082004002001
:10E5CE007400F00F002E0400207400F00F002E04D3
:10E5DE000020040000000000000000000000000009
:10E5EE000000000000000000000800000078180085
:10E5FE00C62000824000FFFF010241000623000CEE
:10E60E001E000000000000000000000000000000DE
:10E61E00000000000000000B0000007C00008200E3
:10E62E00008240007C3800000700E00000183E0029
:10E63E00064100004100003E000000000000000006
:10E64E0000000000000B000000001F00BC2100C6EF
:10E65E004000C241004242006664003C3C00002E75
:10E66E0000006300004000000000000000000000F9
:10E67E00000000020000003E00000000000000004C
:10E68E00000000000000000000000000000000007C
:10E69E00000000000000000000000000000000006C
:10E6AE000005000000000000E07F001CC003020017
:10E6BE000400000000000000000000000000000048
:10E6CE000000000000000000000000000000000339
:10E6DE000200041CC003E07F0000000000000000E8
:10E6EE00000000000000000000000000000000001C
:10E6FE000000000000000000000000000005040003
:10E70E00003400000E000034000004000000000081
:10E71E0000000000000000000000000000000000EB
:10E72E0000000000000000000000000A00000000D1
:10E73E000200000200000200000200C01F000002E2
:10E74E0000000200000200000200000000000000B5
:10E75E000000000000000000000200000200C001E6
:10E76E00000000000000000000000000000000009B
:10E77E00000000000000000000000000000000008B
:10E78E00000000000000000400040000040000046B
:10E79E000000040000000000000000000000000067
:10E7AE00000000000000000000000000000000005B
:10E7BE000000000000020000000040000000000009
:10E7CE00000000000000000000000000000000003B
:10E7DE00000000000000000000000000000000002B
:10E7EE0000000004004000003E00E001001E00009A
:10E7FE00000000000000000000000000000000000B
:10E80E0000000000000000000000000000000000FA
:10E81E000008F80F000630000360000140000140C0
:10E82E0000036000063000F80F000000000000003A
:10E83E0000000000000000000000000000000005C5
:10E84E00000000100000080000040000FF7F000020
:10E85E0000000000000000000000000000000000AA
:10E86E0000000000000000000000000000080C6026
:10E87E0000025000014800014400014200814100A5
:10E88E00C240003C400000000000000000000000FC
:10E89E000000000000000000000000080418000244
:10E8AE002000014000814000814000814000C221D3
:10E8BE00003C1F00000000000000000000000000EF
:10E8CE0000000000000000000008000600800500A7
:10E8DE004004003004000C0400FF7F000004000020
:10E8EE000400000000000000000000000000000016
:10E8FE000000000000000008F018006F200021400A
:10E90E0000214000214000616000C13000810F00F5
:10E91E0000000000000000000000000000000000E9
:10E92E00000000000008F80F008630004260004131
:10E93E004000414000414000822000041F000000C2
:10E94E0000000000000000000000000000000000B9
:10E95E00000000080100000100000178000107001E
:10E96E00E100003900000D0000030000000000006F
:10E97E000000000000000000000000000000000089
:10E98E0000083C1F00C221008140008140008140F0
:10E99E0000814000C221007C1F000000000000002A
:10E9AE000000000000000000000000000000000851
:10E9BE007C1000862000034100014100014100014E
:10E9CE002100863800F8070000000000000000005B
:10E9DE000000000000000000000000000002000027
:10E9EE0000204000000000000000000000000000B9
:10E9FE000000000000000000000000000000000009
:10EA0E0000000000000000000000000200000220D4
:10EA1E00C001000000000000000000000000000027
:10EA2E0000000000000000000000000000000000D8
:10EA3E0000000000000000000008000000000100BF
:10EA4E008002008002004004002008002008001010
:10EA5E001000000000000000000000000000000098
:10EA6E000000000000000008000000400400400408
:10EA7E000040040040040040040040040040040034
:10EA8E000000000000000000000000000000000078
:10EA9E0000000000000800000010100020080020F8
:10EAAE000800400400800200800200000100000007
:10EABE000000000000000000000000000000000048
:10EACE0000000007180000040000020000025C00B5
:10EADE000203008401007800000000000000000026
:10EAEE000000000000000000000000000000000018
:10EAFE00000F000000803F0060C0001800010C1FD6
:10EB0E0002C46002624004224004222004423804FF
:10EB1E00E247040440020C2002381801E087000B83
:10EB2E00004000003800000700E002001C02000256
:10EB3E0002001C0200E00200000700003800004046
:10EB4E0000000000000000000000000000090000AE
:10EB5E0000FE7F0082400082400082400082400022
:10EB6E00824000C42100781F000000000000000059
:10EB7E0000000000000000000000000A000000E09D
:10EB8E000700181800042000024000024000024056
:10EB9E0000024000042000181C00000000000000CD
:10EBAE000000000000000000000A000000FE7F00D0
:10EBBE0002400002400002400002400002400004F9
:10EBCE0020000C1800F00F000000000000000000F4
:10EBDE000000000000000009000000FE7F008240DF
:10EBEE00008240008240008240008240008240004D
:10EBFE008240000000000000000000000000000045
:10EC0E00000000000009000000FE7F00820000826C
:10EC1E0000008200008200008200008200000200DC
:10EC2E0000000000000000000000000000000000D6
:10EC3E000000000B000000E0070018180004200080
:10EC4E000240000240000241000241000261000445
:10EC5E002100183F0000000000000000000000002E
:10EC6E00000A000000FE7F0080000080000080008F
:10EC7E0000800000800000800000800000FE7F0009
:10EC8E000000000000000000000000000000000274
:10EC9E00000000FE7F0000000000000000000000E9
:10ECAE000000000000000000000000000000000056
:10ECBE00000000000000000000000000000700003F
:10ECCE0000003800004000004000004000004000FE
:10ECDE00FE3F0000000000000000000000000000E9
:10ECEE0000000000000000000000000A000000FE0E
:10ECFE007F00000300800000C0000020010010060D
:10ED0E00000818000620000040000000000000006F
:10ED1E0000000000000000000008000000FE7F0060
:10ED2E000040000040000040000040000040000095
:10ED3E004000000000000000000000000000000085
:10ED4E00000000000000000C000000FE7F00060026
:10ED5E0000380000C00300001C00006000001C0012
:10ED6E008003007000000E0000FE7F000000000017
:10ED7E0000000000000A000000FE7F0004000018E2
:10ED8E000000600000800100000600001800002056
:10ED9E0000FE7F00000000000000000000000000E8
:10EDAE000000000B000000E007001818000420000F
:10EDBE000240000240000240000240000420001801
:10EDCE001800E00700000000000000000000000036
:10EDDE000009000000FE7F00020100020100020196
:10EDEE000002010002010086000078000000000011
:10EDFE000000000000000000000000000000000BFA
:10EE0E00000000E007001818000420000240000275
:10EE1E004000025800027000042000187800E0CF75
:10EE2E00000000000000000000000000000B0000C9
:10EE3E0000FE7F000201000201000201000201003B
:10EE4E00020100020700860C00783000004000002E
:10EE5E000000000000000000000000090000003863
:10EE6E00180044200082400082400002410002410E
:10EE7E0000042200181C000000000000000000002A
:10EE8E000000000000000000000902000002000067
:10EE9E00020000020000FE7F0002000002000002DD
:10EEAE000000020000000000000000000000000052
:10EEBE00000000000000000A000000FE1F000020FD
:10EECE0000004000004000004000004000004000F4
:10EEDE00002000FE1F0000000000000000000000E7
:10EEEE0000000000000B0200001C0000E00000000B
:10EEFE000700003800004000003800000700E00066
:10EF0E00001C0000020000000000000000000000D5
:10EF1E000000000E0000003E0000C01F0000600058
:10EF2E00001C00C00300380000060000380000C0BE
:10EF3E000300001E00006000C01F003E0000000025
:10EF4E00000A024000042000181800200400C0032C
:10EF5E0000C0030020040018180004200002400026
:10EF6E00000000000000000000000000000000098A
:10EF7E000200000C0000300000C00000007F00C046
:10EF8E0000003000000C0000020000000000000035
:10EF9E0000000000000000000000000000090260F8
:10EFAE0000025000024C000242008241004240002A
:10EFBE003240000A40000640000000000000000041
:10EFCE00000000000000000000000004000000FE31
:10EFDE00FF07020004020004000000000000000011
:10EFEE000000000000000000000000000000000013
:10EFFE0000000000000000000004060000F8000001
:10F00E00001F000060000000000000000000000073
:10F01E0000000000000000000000000000000000E2
:10F02E000000000000000003020004020004FEFFC6
:10F03E0007000000000000000000000000000000BB
:10F04E0000000000000000000000000000000000B2
:10F05E00000000000007800000600000180000069D
:10F06E00000018000060000080000000000000009A
:10F07E000000000000000000000000000000000082
:10F08E000000000900000100000100000100000165
:10F09E00000001000001000001000001000001005D
:10F0AE000000000000000000000000000000000052
:10F0BE0000030000000200000C0000000000000031
:10F0CE000000000000000000000000000000000032
:10F0DE00000000000000000000000000000000081A
:10F0EE00000000803C0040660020420020420020CC
:10F0FE004200203100C07F00000000000000000030
:10F10E0000000000000000000000000000080000E9
:10F11E0000FE7F00402000204000204000204000E4
:10F12E00402000801F0000000000000000000000D2
:10F13E00000000000000000000000007801F0040DB
:10F14E002000204000204000204000602000801859
:10F15E0000000000000000000000000000000000A1
:10F16E0000000000000000000008000000801F00EA
:10F17E00402000204000204000204000402000FEA3
:10F18E007F000000000000000000000000000000F2
:10F19E000000000000000008000000801F00402258
:10F1AE000020420020420020420040220080130036
:10F1BE000000000000000000000000000000000041
:10F1CE00000000000005200000FC7F00220000224D
:10F1DE00000002000000000000000000000000001F
:10F1EE000000000000000000000000000000000011
:10F1FE0000000008000000801F034020042040048F
:10F20E00204004204004402002E0FF0100000000E6
:10F21E0000000000000000000000000000000000E0
:10F22E000008000000FE7F004000002000002000CB
:10F23E0000200000600000C07F0000000000000001
:10F24E0000000000000000000000000000000002AE
:10F25E00000000E27F00000000000000000000003F
:10F26E000000000000000000000000000000000090
:10F27E00000000000000000000000000000200007E
:10F28E0004E2FF0700000000000000000000000084
:10F29E000000000000000000000000000000000060
:10F2AE00000000000000000000000007000000FE4B
:10F2BE007F00000200000300800400401800206060
:10F2CE000000000000000000000000000000000030
:10F2DE0000000000000000000002000000FE7F00A1
:10F2EE000000000000000000000000000000000010
:10F2FE000000000000000000000000000000000000
:10F30E00000000000000000C000000E07F00400044
:10F31E0000200000200000200000C07F0040000000
:10F32E00200000200000200000C07F000000000030
:10F33E00000000000008000000E07F0040000020F8
:10F34E000000200000200000600000C07F000000D0
:10F35E00000000000000000000000000000000009F
:10F36E0000000008000000801F0040200020400028
:10F37E00204000204000402000801F0000000000C0
:10F38E00000000000000000000000000000000006F
:10F39E000008000000E0FF07402000204000204051
:10F3AE0000204000402000801F00000000000000F0
:10F3BE000000000000000000000000000000000837
:10F3CE00000000801F004020002040002040002050
:10F3DE004000402000E0FF07000000000000000099
:10F3EE00000000000000000000000000000500000A
:10F3FE0000E07F00400000200000600000000000E0
:10F40E0000000000000000000000000000000000EE
:10F41E00000000000000000000000007000000C017
:10F42E003100204200204200204400204400C03819
:10F43E0000000000000000000000000000000000BE
:10F44E0000000000000000000003200000FC7F0010
:10F45E00204000000000000000000000000000003E
:10F46E00000000000000000000000000000000008E
:10F47E000000000000000008000000E03F000060F7
:10F48E0000004000004000004000002000E07F002F
:10F49E00000000000000000000000000000000005E
:10F4AE00000000000007600000800300003C000028
:10F4BE004000003C008003006000000000000000DF
:10F4CE00000000000000000000000000000000002E
:10F4DE000000000B600000800300001C00006000B4
:10F4EE00801F00600000801F00006000001C008074
:10F4FE00030060000000000000000000000000009B
:10F50E000007204000C0300000090000060000097E
:10F51E0000C030002040000000000000000000008D
:10F52E0000000000000000000000000000000007C6
:10F53E00600004800304003C0200C001003C008017
:10F54E00030060000000000000000000000000004A
:10F55E000000000000000000000000000007206016
:10F56E0000205000204800204600204100A040000E
:10F57E0060400000000000000000000000000000DD
:10F58E000000000000000000000000050004000064
:10F59E000E00FCFB03020004020004000000000049
:10F5AE00000000000000000000000000000000004D
:10F5BE0000000000000000000002000000FEFF0737
:10F5CE00000000000000000000000000000000002D
:10F5DE00000000000000000000000000000000001D
:10F5EE000000000000000005020004020004FCFB05
:10F5FE0003000E00000400000000000000000000E8
:10F60E0000000000000000000000000000000000EC
:10F61E000000000000080001008000008000008053
:10F62E000000000100000100000100800100000048
:10F63E0000000000000000000000000000000000BC
:10F64E0000000005FE3F0002200002200002200004
:10F65E00FE3F00000000000000000000000000005F
:10F66E00000000000000000000000000000000008C
:10F67E0000190C100207000000000000000000003E
:10F68E00000000000000000000000000000002006A
:10F69E0000FE0B0000000000000000000000000053
:10F6AE00000000000000000400001E0000001E000C
:10F6BE00000000000000000000000000000000003C
:10F6CE00081001100FF0011E01100FF0011E0110A5
:10F6DE00010000000000000000061C06220842087F
:10F6EE00FF1F42088C070000000000000000000011
:10F6FE0000000B00003C00420042083C06800170F6
:10F70E00008C0742084008800700000900008007AF
:10F71E00DC086208A2081C07000780090008000028
:10F72E00000000000200001E0000000000000000AB
:10F73E0000000000000000000000000000040000B7
:10F74E00F00F0C3802400000000000000000000026
:10F75E000000000000000302400C38F00F00000013
:10F76E000000000000000000000000000000000586
:10F77E00040034000E0034000400000000000000FD
:10F78E00000000000000000007400040004000F8AC
:10F79E000340004000400000000000000000000098
:10F7AE000002002000180000000000000000000011
:10F7BE000000000000000000000004000100010035
:10F7CE000100010000000000000000000000000029
:10F7DE000000000200000008000000000000000011
:10F7EE0000000000000000000000000004000C807B
:10F7FE000370000E0000000000000000000000007A
:10F80E00000000000006F8030404020802080404C5
:10F81E00F8030000000000000000000000000400DB
:10F82E000010000800FE0F000000000000000000A5
:10F83E0000000000000000060C0C020A02098208FB
:10F84E00440838080000000000000000000000001E
:10F85E00060C06020842084208A404180300000021
:10F86E000000000000000000000680014001300191
:10F87E000C01FE0F0001000000000000000000005F
:10F88E0000000670064E0822082208420482030079
:10F89E00000000000000000000000006F803440411
:10F8AE002208220842048C03000000000000000021
:10F8BE0000000000060200020EC20132000A00061D
:10F8CE000000000000000000000000000006180309
:10F8DE00A40442084208A40418030000000000001B
:10F8EE000000000000000638064408820882084422
:10F8FE0004F80300000000000000000000000002F9
:10F90E0000001008000000000000000000000000D1
:10F91E00000000000000000002002010180000008F
:10F92E0000000000000000000000000000000000C9
:10F93E00000700004000A000A00010011001080206
:10F94E000000000000000000000007000020012061
:10F95E000120012001200120010000000000000014
:10F96E00000000070000080210011001A000A00016
:10F97E00400000000000000000000000060C000225
:10F98E0000020B820042003C00000000000000005C
:10F99E0000000000000C0000E0071008E817142813
:10F9AE00124812442247F24804280828F01709008A
:10F9BE00080007E0009C0082009C00E000000700A9
:10F9CE0008000000000000080000FE0F4208420878
:10F9DE00420842084208BC07000000000000000078
:10F9EE00080000F8030404020802080208040418C0
:10F9FE00030000000000000000080000FE0F0208D7
:10FA0E000208020802080404F803000000000000C7
:10FA1E000000080000FE0F42084208420842084259
:10FA2E000842080000000000000000070000FE0F62
:10FA3E0042004200420042000200000000000000AE
:10FA4E0000000000090000F8030404020802088206
:10FA5E0008820884089807000000000000080000D3
:10FA6E00FE0F40004000400040004000FE0F00002E
:10FA7E00000000000000020000FE0F000000000069
:10FA8E000000000000000000000000000000000662
:10FA9E0000000007000800080008FE070000000034
:10FAAE000000000000000000080000FE0F400020D3
:10FABE0000D000080104060208000000000000004B
:10FACE0000070000FE0F00080008000800080008EC
:10FADE00000000000000000000000A0000FE0F06FB
:10FAEE000078008003000C800378000600FE0F00F3
:10FAFE00000000080000FE0F0C003000C0000001E6
:10FB0E000006FE0F0000000000000000090000F8D3
:10FB1E0003040402080208020802080404F80300A1
:10FB2E000000000000080000FE0F420042004200EC
:10FB3E00420042003C0000000000000000000900EE
:10FB4E0000F803040402080208020A02040406F87C
:10FB5E001B000000000000090000FE0F42004200E2
:10FB6E004200C200C2013C06000800000000000076
:10FB7E0008000018032404420842084208840418AE
:10FB8E000300000000000000000702000200020057
:10FB9E00FE0F020002000200000000000000000044
:10FBAE000000080000FE0300040008000800080022
:10FBBE0004FE0300000000000000000902001C000B
:10FBCE00E000000700080007E0001C000200000033
:10FBDE00000000000B1E00E003000CC0033C0002FE
:10FBEE00003C00C003000CE0031E000000080208E9
:10FBFE0004041803E000A000180304040208000027
:10FC0E0000000000000009020004001800600080DF
:10FC1E000F60001800040002000000000000000742
:10FC2E00020C020A8209420832080A08060800007D
:10FC3E000000000000000000030000FE7F024000F4
:10FC4E0000000000000000000000000000000000A6
:10FC5E000004060078008003000C00000000000085
:10FC6E00000000000000000000000300000240FE43
:10FC7E007F000000000000000000000000000000F7
:10FC8E00000000054000380006003800400000006B
:10FC9E00000000000000000000000000070020002F
:10FCAE002000200020002000200020000000000086
:10FCBE00000000000003000002000400000000002D
:10FCCE000000000000000000000000000000060020
:10FCDE0000600610091009A004C00F00000000000B
:10FCEE0000000000000000070000FE0F20041008B6
:10FCFE0010082004C00300000000000000000000F7
:10FD0E00060000C003200410081008600600000062
:10FD1E00000000000000000000070000C0032004E7
:10FD2E00100810082004FE0F000000000000000064
:10FD3E000000070000C003A00490089008A004C0B3
:10FD4E000200000000000000000000031000FE0F83
:10FD5E001200000000000000000000000000000083
:10FD6E0000000000070000C0332044104810482057
:10FD7E0024F01F000000000000000000000600003C
:10FD8E00FE0F200010001000E00F00000000000029
:10FD9E00000000000000020000F20F000000000052
:10FDAE000000000000000000000000000000000243
:10FDBE000040F27F00000000000000000000000084
:10FDCE000000000000000000060000FE0F8000C0D2
:10FDDE00002003100C0000000000000000000000D6
:10FDEE0000020000FE0F00000000000000000000F6
:10FDFE00000000000000000000000A0000F00F20CC
:10FE0E000010001000E00F300010001000E00F0096
:10FE1E00000000060000F00F200010001000E00FA0
:10FE2E00000000000000000000000000070000C0FD
:10FE3E00032004100810082004C003000000000076
:10FE4E000000000000070000F07F200410081008DA
:10FE5E002004C003000000000000000000000700A6
:10FE6E0000C0032004100810082004F07F000000DA
:10FE7E0000000000000000040000F00F2000100041
:10FE8E000000000000000000000000000000000064
:10FE9E000600006006900890081009200600000079
:10FEAE00000000000000000000031000FE0F10080C
:10FEBE000000000000000000000000000000000034
:10FECE000000060000F007000800080004F00F0014
:10FEDE000000000000000000000000071000E0001D
:10FEEE00000700080007E0001000000000000000FE
:10FEFE0000000000093000C003000CC0033000C039
:10FF0E0003000CC0033000000000000000060000DB
:10FF1E001008600680016006100800000000000056
:10FF2E00000000000000071000E04000470038000D
:10FF3E0007E00010000000000000000000000006B6
:10FF4E000000100C100A9009500830080000000044
:10FF5E000000000000000000030001FE7E024000D1
:10FF6E000000000000000000000000000000000083
:10FF7E0000020000FEFF0000000000000000000074
:10FF8E0000000000000000000000030240FE7E00A2
:10FF9E000100000000000000000000000000000052
:10FFAE0000000007400020002000600040004000DC
:10FFBE0060000000000000000000000004FF0F01C0
:10FFCE00080108FF0F000000000000000000000004
:10FFDE000000000000436F6E7461646F7220656EE6
:10FFEE0020256400435552534F2053544D33320055
:01FFFE000002
:020000040001F9
:1000000060EC90F0070EF66EE50EF76E000EF86EDF
:1000100002D818EF80F00500FA6E0900F550FD6E69
:100020000900F550FE6E0900F550FF6EFA501200FF
:100030000D0EF66EE50EF76E000EF86E02D82FEF7D
:1000400080F00500FA6E0900F550FD6E0900F550CC
:10005000FE6E0900F550FF6EFA50000E120040ECE3
:1000600083F0F80E326E1F0E316E1AEC8FF0030E15
:100070000AEC8EF0F20E0501606FFF0E616F3B0E11
:10008000626FE50E636F000E656F500E646F000EB9
:10009000676F640E666F000E696F000E686FF80E72
:1000A0006B6F1F0E6A6F43EC89F0290E5D6E960E22
:1000B0005C6E7F0EE82EFED75C2EFCD75D2EFAD745
:1000C0000000000E326E000E316E1AEC8FF0520EF0
:1000D0005D6E2B0E5C6E000EE82EFED75C2EFCD7FC
:1000E0005D2EFAD700D0000E326E0F0E316E1AEC74
:1000F0008FF0520E5D6E2B0E5C6E000EE82EFED75A
:100100005C2EFCD75D2EFAD700D0030E326EE00EC7
:10011000316E1AEC8FF0520E5D6E2B0E5C6E000E7F
:10012000E82EFED75C2EFCD75D2EFAD700D0030E4A
:10013000326EEF0E316E1AEC8FF0520E5D6E2B0E9A
:100140005C6E000EE82EFED75C2EFCD75D2EFAD733
:1001500000D0780E326E000E316E1AEC8FF0520E17
:100160005D6E2B0E5C6E000EE82EFED75C2EFCD76B
:100170005D2EFAD700D0780E326E0F0E316E1AEC6B
:100180008FF0520E5D6E2B0E5C6E000EE82EFED7C9
:100190005C2EFCD75D2EFAD700D07B0E326EE00EBF
:1001A000316E1AEC8FF0520E5D6E2B0E5C6E000EEF
:1001B000E82EFED75C2EFCD75D2EFAD700D0C60EF7
:1001C000326E180E316E1AEC8FF0520E5D6E2B0EE1
:1001D0005C6E000EE82EFED75C2EFCD75D2EFAD7A3
:1001E00000D07B0E326EEF0E316E1AEC8FF0520E95
:1001F0005D6E2B0E5C6E000EE82EFED75C2EFCD7DB
:100200005D2EFAD700D0000E326E1F0E316E1AEC42
:100210008FF0520E5D6E2B0E5C6E000EE82EFED738
:100220005C2EFCD75D2EFAD700D0070E326EE00EA2
:10023000316E1AEC8FF0520E5D6E2B0E5C6E000E5E
:10024000E82EFED75C2EFCD75D2EFAD700D0070E25
:10025000326E31681AEC8FF0520E5D6E2B0E5C6EB2
:10026000000EE82EFED75C2EFCD75D2EFAD700D00C
:10027000F80E326E000E316E1AEC8FF0520E5D6E7B
:100280002B0E5C6E000EE82EFED75C2EFCD75D2E8A
:10029000FAD700D0F80E326E1F0E316E1AEC8FF0C6
:1002A000520E5D6E2B0E5C6E000EE82EFED75C2E9D
:1002B000FCD75D2EFAD700D0FF0E326EE00E316E05
:1002C0001AEC8FF0520E5D6E2B0E5C6E000EE82E57
:1002D000FED75C2EFCD75D2EFAD700D0FF0E326E13
:1002E00031681AEC8FF0520E5D6E2B0E5C6E000EB4
:1002F000E82EFED75C2EFCD75D2EFAD700D0AF0ECD
:10030000326EE50E316E1AEC8FF0520E5D6E2B0ED2
:100310005C6E000EE82EFED75C2EFCD75D2EFAD761
:1003200000D0F80E326E1F0E316E1AEC8FF0520EA6
:100330005D6E2B0E5C6E000EE82EFED75C2EFCD799
:100340005D2EFAD700D0FF0E326E31681AEC8FF0B6
:10035000000E0501996F760E236E050E246EE30ED6
:10036000256EFF0E266E99C527F5286A43EC8FF09F
:10037000760E0501606F050E616F7F0E626FF60EDF
:10038000636F000E656F0A0E646F000E676F0A0ED2
:10039000666F000E696F000E686FFF0E6B6F6A6903
:1003A00043EC89F0760E0501606F050E616F7F0EDC
:1003B000626FF60E636F000E656F0A0E646F000EBB
:1003C000676F1E0E666F000E696F1F0E686FFF0E5F
:1003D0006B6F6A6943EC89F0760E0501606F050E5C
:1003E000616F7F0E626FF60E636F000E656F0A0E0F
:1003F000646F000E676F320E666FF80E696F000E45
:10040000686FFF0E6B6F6A6943EC89F0760E050129
:10041000606F050E616F7F0E626FF60E636F000EE8
:10042000656F0A0E646F000E676F460E666F070EEB
:10043000696FE00E686FFF0E6B6F6A6943EC89F0BD
:10044000760E0501606F050E616F7F0E626FF60E0E
:10045000636F000E656F0A0E646F000E676F5A0EB1
:10046000666F780E696F000E686FFF0E6B6F6A69BA
:1004700043EC89F0760E0501606F050E616F7F0E0B
:10048000626FF60E636F000E656F0A0E646F000EEA
:10049000676F6E0E666FFF0E696F6869000E6B6F97
:1004A000000E6A6F43EC89F0760E0501606F050E51
:1004B000616F7F0E626FF60E636F000E656F0A0E3E
:1004C000646F000E676F820E666FF80E696F000E24
:1004D000686F000E6B6F000E6A6F43EC89F0290E97
:1004E0005D6E960E5C6E7F0EE82EFED75C2EFCD7FE
:1004F0005D2EFAD700000501992B090E996583EF4F
:1005000082F085EF82F0ABEF81F0520E5D6E2B0E24
:100510005C6E000EE82EFED75C2EFCD75D2EFAD75F
:1005200000D0FF0E326E31681AEC8FF0000E326E82
:10053000A00E316E000E346E280E336E000E366E35
:10054000C80E356EF80E386E000E376EA6EC8CF0C5
:10055000520E5D6E2B0E5C6E000EE82EFED75C2EEA
:10056000FCD75D2EFAD700D0FF0E326E31681AEC40
:100570008FF0000E326E320E316E000E346E780E39
:10058000336E000E366EC80E356EF80E386E000EE5
:10059000376E03EC8DF0520E5D6E2B0E5C6E000E0E
:1005A000E82EFED75C2EFCD75D2EFAD700D0FF0ECA
:1005B000326E31681AEC8FF0000E226EA00E216EA2
:1005C000000E246E780E236E000E266E500E256EE1
:1005D000780E286E000E276E6EEC87F0520E5D6E60
:1005E0002B0E5C6E000EE82EFED75C2EFCD75D2E27
:1005F000FAD700D0FF0E326E31681AEC8FF0000E81
:10060000226EA00E216E000E246E780E236E000E58
:10061000266E320E256EF80E286E000E276E6FECD9
:1006200088F0520E5D6E2B0E5C6E000EE82EFED72B
:100630005C2EFCD75D2EFAD700D0C3B622EF83F034
:1006400025EF83F0010E26EF83F0000EFF0A5C6EAB
:100650005C465C465C46C3505C18F70B5C18C36E86
:10066000290E5D6E960E5C6E7F0EE82EFED75C2E18
:10067000FCD75D2EFAD700001DEF83F0FEEFFFF0F0
:100680008EEC90F0FCEC8FF0010E71EC90F0D00E3F
:10069000066ECA0EE82EFED7062EFCD7CB0E71ECE6
:1006A00090F0390E69EC90F02C0E69EC90F0000E91
:1006B00069EC90F0340E69EC90F0020E69EC90F069
:1006C000CF0E71EC90F0000E69EC90F0C10E69EC69
:1006D00090F0300E69EC90F0E80E71EC90F0850E21
:1006E00069EC90F0000E69EC90F0780E69EC90F0F7
:1006F000EA0E71EC90F0000E69EC90F0000E69ECDF
:1007000090F0ED0E71EC90F0640E69EC90F0030E39
:1007100069EC90F0120E69EC90F0810E69EC90F0AB
:10072000F70E71EC90F0200E69EC90F0C00E71ECB9
:1007300090F0230E69EC90F0C10E71EC90F0100E69
:1007400069EC90F0C50E71EC90F03E0E69EC90F003
:10075000280E69EC90F0C70E71EC90F0860E69ECF3
:1007600090F0360E71EC90F0480E69EC90F03A0E75
:1007700071EC90F0550E69EC90F0B10E71EC90F0C8
:10078000000E69EC90F0180E69EC90F0B60E71EC6A
:1007900090F0080E69EC90F0820E69EC90F0270E54
:1007A00069EC90F0F20E71EC90F0000E69EC90F0B4
:1007B000260E71EC90F0010E69EC90F0E00E71ECF9
:1007C00090F00F0E69EC90F0310E69EC90F02B0E6A
:1007D00069EC90F00C0E69EC90F00E0E69EC90F064
:1007E000080E69EC90F04E0E69EC90F0F10E69EC99
:1007F00090F0370E69EC90F0070E69EC90F0100E57
:1008000069EC90F0030E69EC90F00E0E69EC90F03C
:10081000090E69EC90F0000E69EC90F0E10E71ECBD
:1008200090F0000E69EC90F00E0E69EC90F0140E52
:1008300069EC90F0030E69EC90F0110E69EC90F009
:10084000070E69EC90F0310E69EC90F0C10E69EC86
:1008500090F0480E69EC90F0080E69EC90F00F0EE5
:1008600069EC90F00C0E69EC90F0310E69EC90F0B0
:10087000360E69EC90F00F0E69EC90F0110E71ECF1
:1008800090F0090E076E1E0E066EE40EE82EFED7DF
:10089000062EFCD7072EFAD700D0290E71EC90F067
:1008A000000E0AEC8EF012000DC5D9F40EC5DAF474
:1008B000DEC4F6F4DDC4F7F4000EF86E0800F5505F
:1008C000250AD8A466EF84F068EF84F048EF85F03D
:1008D0000DC5D9F40EC5DAF4DE2A000EDD22000EB5
:1008E0000501C36F000EC26FC2C5CAF5C469C569F0
:1008F0000DC5D9F40EC5DAF4DEC414F5DDC415F562
:1009000014C5F6F415C5F7F4000EF86E0800F5509E
:10091000640AD8B48EEF84F090EF84F0A0EF84F0F6
:1009200014C5F6F415C5F7F4000EF86E0800F5507E
:10093000690AD8A49EEF84F0A0EF84F03FEF85F021
:100940000FC5D9F410C5DAF4DFC411F5020EDE26A6
:10095000DFC412F5000EDD2211C5D9F412C5DAF498
:10096000DEC416F5DDC417F5010E1424116E000E59
:100970001520126E0DC5D9F40EC5DAF411C5DEF4DA
:1009800012C5DDF4200E1A6E17BEC9EF84F0CCEF4D
:1009900084F0010ECDEF84F0000E136E1A069A0E4D
:1009A0001A24D96EDA6A050EDA2216C501F517C5C2
:1009B00002F5000E046E0A0E036E60EC8DF001C5A8
:1009C00007F502C508F5C9EC8FF00750300FDF6E50
:1009D00016C501F517C502F5000E046E0A0E036E6A
:1009E00044EC8CF001C516F502C517F5165017102A
:1009F000D8B4FDEF84F0FFEF84F007EF85F01A50D4
:100A0000D8A405EF85F007EF85F0CEEF84F01A50FB
:100A1000D8B40DEF85F00FEF85F034EF85F013506B
:100A2000D8B415EF85F017EF85F034EF85F01A068E
:100A30009A0E1A24D96EDA6A050EDA222D0EDF6EAE
:100A400034EF85F09A0E1A24D96EDA6A050EDA228E
:100A5000DF50116E1150016E026A0BC503F50CC513
:100A600004F57AEC8BF01A2A200E1A18D8A43BEF62
:100A700085F03DEF85F022EF85F05EEF85F00DC546
:100A8000D9F40EC5DAF4DE2A000EDD225EEF85F021
:100A90000DC5D9F40EC5DAF4DEC4F6F4DDC4F7F4FE
:100AA000000EF86E0800F550016E026A0BC503F5E2
:100AB0000CC504F57AEC8BF03FEF85F01200576E11
:100AC0001E0E576466EF85F068EF85F066EF86F0DE
:100AD0007F0E57646EEF85F070EF85F072EF85F052
:100AE00066EF86F03FC5F6F440C5F7F4000EF86EE9
:100AF0000800F5C451F5010E3F24496E000E402058
:100B00004A6E49C5F6F44AC5F7F4000EF86E0800BF
:100B1000F5C455F5020E3F24496E000E40204A6E82
:100B200049C5F6F44AC5F7F4000EF86E0800F5C49E
:100B300056F5030E3F24496E000E40204A6E49C50B
:100B4000F6F44AC5F7F4000EF86E0800F5C452F545
:100B5000E00E5724016E026AFF0E022251C503F512
:100B6000046A0FEC90F001503F24496E025040207F
:100B70004A6E040E49244F6E000E4A20506E41C545
:100B800031F542C532F543C533F544C534F555C595
:100B900035F5366A56C537F5386A47C539F548C55B
:100BA0003AF5FFEC89F0000E5B6E000E5A6E54EFC2
:100BB00086F0000E596E000E586E40EF86F05AC552
:100BC00049F55BC54AF54A344A3249324A344A3219
:100BD00049324A344A3249321F0E4916000E4A162B
:100BE00052C501F5026A58C503F559C504F50FEC65
:100BF00090F001504F244B6E025050204C6E4950E3
:100C00004B244D6E4A504C204E6E010E4D26000E68
:100C10004E224DC5F6F44EC5F7F4000EF86E0800EE
:100C2000F5C453F55AC549F5070E4916010E4A6E2B
:100C3000492A1DEF86F0D8904A36492E1BEF86F0E0
:100C40004A50546E535054140009D8B42AEF86F019
:100C50002CEF86F03EEF86F0415058240F6E425044
:100C60005920106E43505A24116E44505B20126E6E
:100C700045C513F546C514F58BEC8AF0584A592A38
:100C80005550496E4A6A4950585C5950800A4B6E1B
:100C90004A50800A4B58D8A050EF86F052EF86F0A9
:100CA000DFEF85F05A4A5B2A5650496E4A6A49502E
:100CB0005A5C5B50800A4B6E4A50800A4B58D8A051
:100CC00064EF86F066EF86F0D9EF85F01200D890D9
:100CD0001034146E1134156E1234166E1334176EF0
:100CE0001750161009E1F40E145C010E1558D8B017
:100CF0007CEF86F07EEF86F088EF86F010C52DF54C
:100D000011C52EF512C52FF513C530F590EF86F0FD
:100D1000F40E2D6E010E2E6E000E2F6E000E306E34
:100D2000C186C1920F50206E000E296E000E2A6EF1
:100D3000000E2B6E000E2C6EBAEF86F0000E2924EA
:100D4000D96E060E2A20DA6E20C5DFF4010E2924A2
:100D5000146E000E2A20156E000E1424D96E060E95
:100D60001520DA6E0EC5DFF4020E2926000E2A22A7
:100D70002B222C222D50295C2E502A582F502B58D4
:100D800030502C58D8A0C7EF86F0C9EF86F09EEF00
:100D900086F0D8901034216E1134226E1234236EF6
:100DA0001334246E21C501F522C502F523C503F5D0
:100DB00024C504F52DC505F52EC506F52FC507F587
:100DC00030C508F5B8EC8DF001C525F502C526F54E
:100DD00003C527F504C528F521C501F522C502F58F
:100DE00023C503F524C504F52DC505F52EC506F567
:100DF0002FC507F530C508F552EC8EF001C518F582
:100E000002C519F503C51AF504C51BF525502610B2
:100E100027102810D8B40FEF87F011EF87F04EEFAE
:100E200087F0000E1C6E000E1D6E000E1E6E000E72
:100E30001F6E3FEF87F0000E016E060E026E2DC58D
:100E400003F52EC504F5130EF66EE50EF76E000ED3
:100E5000F86E02D839EF87F00500FA6E0900F550F8
:100E6000FD6E0900F550FE6E0900F550FF6EFA5058
:100E70001200010E1C26000E1D221E221F222550CC
:100E80001C5C26501D5827501E5828501F58D8A0AB
:100E90004CEF87F04EEF87F01BEF87F0000E016EEE
:100EA000060E026E18C503F519C504F5130EF66E8D
:100EB000E50EF76E000EF86E02D86CEF87F00500B5
:100EC000FA6E0900F550FD6E0900F550FE6E09003E
:100ED000F550FF6EFA501200C1821200FF0E252459
:100EE000316EFF0E2620326E000E346E000E336E11
:100EF000000E2E6E010E2D6E000E2C6E010E2B6E4E
:100F000025C529F526C52AF5D89029362A3629502F
:100F100001082F6E2A50D8A0E82A0008306E5FEF33
:100F200088F0215031240F6E22503220106E235051
:100F30003324116E24503420126E27C513F528C5B2
:100F400014F58BEC8AF0215033240F6E225034209C
:100F5000106E23503124116E24503220126E27C59A
:100F600013F528C514F58BEC8AF03350215C0F6E15
:100F700034502258106E23503124116E24503220E8
:100F8000126E27C513F528C514F58BEC8AF0315085
:100F9000215C0F6E32502258106E23503324116E94
:100FA00024503420126E27C513F528C514F58BEC98
:100FB0008AF03150215C0F6E32502258106E33503F
:100FC000235C116E34502458126E27C513F528C5C2
:100FD00014F58BEC8AF03350215C0F6E345022589C
:100FE000106E3150235C116E32502458126E27C59A
:100FF00013F528C514F58BEC8AF0215033240F6EBD
:1010000022503420106E3150235C116E325024581F
:10101000126E27C513F528C514F58BEC8AF0215004
:1010200031240F6E22503220106E3350235C116E2B
:1010300034502458126E27C513F528C514F58BECCF
:101040008AF030BE2EEF88F0305006E12F04D8B081
:101050002CEF88F02EEF88F038EF88F0334A342AEE
:101060002B502F262C503022020E2B26000E2C2225
:1010700030BE43EF88F0305008E12F04D8A043EF92
:1010800088F045EF88F05FEF88F03106D8A032068F
:10109000020E2D26000E2E2225C529F526C52AF57D
:1010A000291E2A1E294A2A2AD89029362A362D5046
:1010B00029262E502A2229502F262A5030223350FA
:1010C000315C3250800A296E3450800A2958D8B0D9
:1010D0006CEF88F06EEF88F091EF87F0120025C575
:1010E00035F526C536F5000E386E000E376E25C56F
:1010F00029F526C52AF5D89029362A36295001081F
:101100002F6E2A50D8A0E82A0008306E000E2C6EF0
:10111000000E2B6E000E2E6E000E2D6E33EF89F03A
:101120003550215C316E36502258326EBAEF88F05D
:1011300031C50FF532C510F523503724116E2450F8
:101140003820126E27C513F528C514F58BEC8AF0EC
:1011500031C50FF532C510F53750235C116E38508C
:101160002458126E27C513F528C514F58BEC8AF0A8
:10117000314A322A21503524296E225036202A6ED7
:101180003150295C32502A58D8B0C9EF88F0CBEFE3
:1011900088F098EF88F03750215C336E3850225831
:1011A000346EF5EF88F033C50FF534C510F52350D4
:1011B0003524116E24503620126E27C513F528C52C
:1011C00014F58BEC8AF033C50FF534C510F53550A6
:1011D000235C116E36502458126E27C513F528C5AE
:1011E00014F58BEC8AF0334A342A21503724296EC7
:1011F000225038202A6E3350295C34502A58D8B0F7
:1012000004EF89F006EF89F0D3EF88F0374A382AE7
:101210002B502D262C502E22020E2B26000E2C2277
:101220002DC529F52EC52AF5D89029362A362F50F6
:10123000292630502A222ABE26EF89F02A5008E1BA
:101240002904D8A026EF89F028EF89F033EF89F040
:101250003506D8A036062F502D2630502E22020EED
:101260002F26000E30223750355C3650800A296E0A
:101270003850800A2958D8B040EF89F042EF89F001
:1012800090EF88F0120062C5F6F463C5F7F4000E23
:10129000F86E0800F5C473F5010E050162256C6F48
:1012A000000E63216D6F6CC5F6F46DC5F7F4000E8A
:1012B000F86E0800F5C475F5E5EF89F062C53FF5F5
:1012C00063C540F564C541F565C542F566C543F59E
:1012D00067C544F568C545F569C546F56AC547F56E
:1012E0006BC548F560C5F6F461C5F7F4000EF86EFD
:1012F000240EF76403D00800F55005D0F6C4E9F4D5
:10130000F7C4EAF4EF505FEC85F060C5F6F461C510
:10131000F7F4000EF86E240EF76403D00800F550C1
:1013200005D0F6C4E9F4F7C4EAF4EF5005016C6F98
:10133000E00E6C25016E026AFF0E022273C503F5F2
:10134000046A0FEC90F00150050162256D6F0250A8
:1013500063216E6F040E6D25716F000E6E21726F2A
:1013600071C5F6F472C5F7F4000EF86E0800F5C406
:1013700074F575516C6F6D6B74516E6F6F6B020EFF
:101380006E27000E6F236C516E5D6F51800A706F77
:101390006D51800A7059D8B0D0EF89F0D2EF89F042
:1013A000DFEF89F074516C6F6D6B020E6C27000ECD
:1013B0006D236C5164276D516523E3EF89F07551FE
:1013C0006427000E6523604B612B60C5F6F461C590
:1013D000F7F4000EF86E240EF76403D00800F55001
:1013E00005D0F6C4E9F4F7C4EAF4EF500009D8A434
:1013F000FCEF89F0FEEF89F05EEF89F01200060144
:10140000FA51315CFB513258D8B009EF8AF00BEF3A
:101410008AF08AEF8AF05E50335C5F503458D8A06F
:1014200014EF8AF016EF8AF018EF8AF08AEF8AF04C
:10143000355031243B6E365032203C6EFF0E3B243B
:101440003D6EFF0E3C203E6EFA513D5CFB513E5816
:10145000D8A02DEF8AF02FEF8AF035EF8AF03150C7
:10146000FA5D356E3250FB59366E375033243B6E81
:10147000385034203C6EFF0E3B243D6EFF0E3C2066
:101480003E6E5E503D5C5F503E58D8A04AEF8AF0F9
:101490004CEF8AF052EF8AF033505E5C376E345076
:1014A0005F58386E31C50FF532C510F533C511F5EB
:1014B00034C512F5355031243B6E365032203C6E27
:1014C000FF0E3B24136EFF0E3C20146E3750332466
:1014D0003D6E385034203E6EFF0E3D24156EFF0EDB
:1014E0003E20166E96EC8EF039C50EF53AC50FF516
:1014F00037C501F538C502F535C503F536C504F520
:101500000FEC90F001C510F502C511F5126A136ACF
:1015100067EC86F012000601FA510F5CFB5110587F
:10152000D8B095EF8AF097EF8AF005EF8BF05E5018
:10153000115C5F501258D8A0A0EF8AF0A2EF8AF099
:10154000A4EF8AF005EF8BF0000E176E000E186EF8
:10155000000E196E000E1A6E1050176E0FC518F59A
:10156000010E0F24156E000E1020166E16C515F50F
:10157000166A1550196E0F281A6E000E1B6E000E9B
:101580001C6E000E1D6E000E1E6E12501B6E11C5DD
:101590001CF5010E1124156E000E1220166E16C5D4
:1015A00015F5166A15501D6E11281E6E000E206E60
:1015B000000E1F6E14501F6E13C520F52A0E71EC1D
:1015C00090F0170E0B6E050E0C6E000E0E6E040ED4
:1015D0000D6E52EC90F02B0E71EC90F01B0E0B6E1A
:1015E000050E0C6E000E0E6E040E0D6E52EC90F099
:1015F0002C0E71EC90F01F0E0B6E050E0C6E000E93
:101600000E6E020E0D6E52EC90F01200000EBE6EC9
:10161000000EBF6E000EC06E020EC16E000EC26ED6
:10162000000EC36EC668C7686F0EC86EF10EC96E35
:101630000F0ECA6EF70ECB6E0401006908690F0E1B
:10164000106FF10E186F070E206FF70E286F000E47
:10165000016F000E096F000E116F000E196F000E62
:10166000216F000E296F000E026F000E0A6F000E30
:10167000126F000E1A6F000E226F000E2A6F0369A0
:101680000B6913691B69070E236F2B6904690C69C9
:1016900014691C690F0E246F2C69000E0201896FFA
:1016A000000E886F000E876F000E866F150E6B6F31
:1016B000320E156F320E186F160E6A6F310E176FDD
:1016C000000E0401056F000E066F000E076F000E7E
:1016D0000D6F000E0E6F000E0F6F000E156F000ED7
:1016E000166F000E176F000E256F000E266F000E8E
:1016F000276F120003500410D8B481EF8BF083EFF2
:101700008BF08CEF8BF003500410D8A48AEF8BF091
:101710008CEF8BF091EF8BF0015092EC90F0DEEFBC
:101720008BF020EE0AF00350D9260450DA22DE5066
:10173000DE10D8B49EEF8BF0A0EF8BF0BBEF8BF0F8
:1017400020EE0AF00350D9260450DA2210EE03F0FE
:101750000350E1260450E222DE50E65CE650800AA7
:10176000096EDE50800A0958D8B0B9EF8BF0BBEF94
:101770008BF0DEEF8BF020EE03F00350D9260450FF
:10178000DA22DEC405F5DDC406F503C5D9F404C5C7
:10179000DAF4DEC407F5DDC408F505500724D96E78
:1017A00006500820DA6E01C5DFF420EE03F0035086
:1017B000D9260450DA22DE2A000EDD221200016E44
:1017C000000184BFE6EF8BF0E8EF8BF043EF8CF085
:1017D0000150050D310EF324F66EE50EF420F76E80
:1017E000F86A000EF8220800F5C484F00150050DD7
:1017F000010EF326000EF422310EF324F66EE50EF0
:10180000F420F76EF86A000EF8220800F5C485F09F
:101810000150050D020EF326000EF422310EF324C2
:10182000F66EE50EF420F76EF86A000EF822080056
:10183000F550FC0B866F0150050D030EF326000ECC
:10184000F422310EF324F66EE50EF420F76EF86AFA
:10185000000EF8220800F5C489F00150050D040EB1
:10186000F326000EF422310EF324F66EE50EF4207A
:10187000F76EF86A000EF8220800F5C48CF0C89CD8
:10188000848F43EF8CF01200000E066E04BE4DEF05
:101890008CF04BEF8CF053EF8CF0036C041ED8B03F
:1018A000042A010E066E02BE5AEF8CF058EF8CF03F
:1018B00060EF8CF0016C021ED8B0022A010E061AED
:1018C000000E086E000E076E03500410D8B46BEFC4
:1018D0008CF06DEF8CF095EF8CF0010E056E75EFCE
:1018E0008CF0D89003360436052A04AE7AEF8CF0DB
:1018F0007CEF8CF071EF8CF0D890073608360350EF
:10190000015C04500258D8A088EF8CF08AEF8CF06C
:101910008FEF8CF00350015E0450025A0780D8907C
:1019200004320332052E7CEF8CF00650D8B49BEFC6
:101930008CF09DEF8CF0A1EF8CF0076C081ED8B0F6
:10194000082A07C501F508C502F512000601FA517B
:10195000315CFB513258D8B0B0EF8CF0B2EF8CF064
:1019600002EF8DF05E50335C5F503458D8A0BBEF6F
:101970008CF0BDEF8CF0BFEF8CF002EF8DF03550A6
:101980003324396E365034203A6EFF0E39243B6EC4
:10199000FF0E3A203C6E5E503B5C5F503C58D8A036
:1019A000D4EF8CF0D6EF8CF0DCEF8CF033505E5C33
:1019B000356E34505F58366E31C50FF532C510F5AF
:1019C00033C511F534C512F531C513F532C514F51B
:1019D00035503324396E365034203A6EFF0E392498
:1019E000156EFF0E3A20166E96EC8EF037C50EF58A
:1019F00038C50FF535C510F536C511F5126A136AED
:101A000067EC86F012000601FA51315CFB51325846
:101A1000D8B00DEF8DF00FEF8DF05FEF8DF05E50D1
:101A2000335C5F503458D8A018EF8DF01AEF8DF06A
:101A30001CEF8DF05FEF8DF035503124396E36504C
:101A400032203A6EFF0E39243B6EFF0E3A203C6E78
:101A5000FA513B5CFB513C58D8A031EF8DF033EF8D
:101A60008DF039EF8DF03150FA5D356E3250FB5903
:101A7000366E31C50FF532C510F533C511F534C5D5
:101A800012F535503124396E365032203A6EFF0E41
:101A90003924136EFF0E3A20146E33C515F534C584
:101AA00016F596EC8EF037C50EF538C50FF535C531
:101AB00010F536C511F5126A136A67EC86F012004C
:101AC000000E066E02BE69EF8DF067EF8DF06FEFCE
:101AD0008DF0016C021ED8B0022A010E066E04BE03
:101AE00076EF8DF074EF8DF07AEF8DF0036C041EBD
:101AF000D8B0042A03500410D8B481EF8DF083EFDE
:101B00008DF0A7EF8DF0010E056E8BEF8DF0D89064
:101B100003360436052A04AE90EF8DF092EF8DF077
:101B200087EF8DF00350015C04500258D8A09BEF62
:101B30008DF09DEF8DF0A1EF8DF00350015E04500C
:101B4000025AD89004320332052E92EF8DF00650DF
:101B5000D8B4ADEF8DF0AFEF8DF0B3EF8DF0016C39
:101B6000021ED8B0022A01C501F502C502F5120015
:101B7000000E096E000E0A6E000E0B6E000E0C6E4B
:101B80000550061007100810D8B4C9EF8DF0CBEF40
:101B90008DF001EF8EF0010E0D6ED5EF8DF0D89027
:101BA00005360636073608360D2A08AEDAEF8DF010
:101BB000DCEF8DF0CFEF8DF0D89009360A360B367A
:101BC0000C360550015C0650025807500358085067
:101BD0000458D8A0EEEF8DF0F0EF8DF0F9EF8DF016
:101BE0000550015E0650025A0750035A0850045A25
:101BF0000980D89008320732063205320D2EDCEF0C
:101C00008DF009C501F50AC502F50BC503F50CC534
:101C100004F51200056E360E71EC90F0150E046E90
:101C2000C60EE82EFED7042EFCD700D03EEF8EF075
:101C3000480E69EC90F0000E0601FB6FF00EFA6F93
:101C4000010E5F6E400E5E6E51EF8EF0280E69EC55
:101C500090F0010E0601FB6F400EFA6F000E5F6EF2
:101C6000F00E5E6E51EF8EF0880E69EC90F01BEF77
:101C70008EF0E80E69EC90F029EF8EF00550000A26
:101C8000D8B418EF8EF0010AD8B426EF8EF0030A0C
:101C9000D8B434EF8EF0010AD8B439EF8EF051EF9A
:101CA0008EF012000550061007100810D8B45BEF34
:101CB0008EF05DEF8EF08DEF8EF0010E096E67EF06
:101CC0008EF0D8900536063607360836092A08AE53
:101CD0006CEF8EF06EEF8EF061EF8EF00550015CD0
:101CE000065002580750035808500458D8A07BEFFC
:101CF0008EF07DEF8EF085EF8EF00550015E065080
:101D0000025A0750035A0850045AD8900832073232
:101D100006320532092E6EEF8EF001C501F502C5BF
:101D200002F503C503F504C504F512001050176E43
:101D30000FC518F51450196E13C51AF52A0E71EC5B
:101D400090F0170E0B6E050E0C6E000E0E6E040E4C
:101D50000D6E52EC90F01250176E11C518F516501A
:101D6000196E15C51AF52B0E71EC90F0170E0B6E4F
:101D7000050E0C6E000E0E6E040E0D6E52EC90F001
:101D80002C0E71EC90F0120001C505F502C506F5A8
:101D900004500001836F03C582F086510309866FEA
:101DA000E7EF8EF005C5D9F406C5DAF4DF50816F90
:101DB000B1A0DDEF8EF0DFEF8EF0D8EF8EF005C52D
:101DC000D9F406C5DAF480C0DFF4054A062A00011A
:101DD0008AADEDEF8EF0EFEF8EF0D2EF8EF08A9DB0
:101DE00012001DC521F51EC522F505EF8FF01BC59C
:101DF0000BF51CC50CF5210E0D6E050E0E6E1FC5E4
:101E00000FF520C510F554EC84F021C5F6F422C579
:101E1000F7F4000EF86E0800F5500009D8A413EF8F
:101E20008FF015EF8FF0F7EF8EF0000E1C6E000EA6
:101E30001B6E1200000E106E000E0F6E000E126E62
:101E4000000E116EFAC613F5FBC614F55EC515F546
:101E50005FC516F596EC8EF031C50EF532C50FF55F
:101E6000FAC601F5FBC602F55EC503F55FC504F5CC
:101E70000FEC90F001C510F502C511F5126A136A56
:101E800067EC86F01200270E296E050E2A6E23C518
:101E90002BF524C52CF5000E2F6E000E2E6E000EB5
:101EA000366E000E356E2B0E1B6E050E1C6E25C594
:101EB0001DF526C51EF5290E1F6E050E206EF1ECD0
:101EC0008EF02E502324D96E2F502420DA6EDF6A34
:101ED0001200220EF66E210EF76E010EF86E09004A
:101EE000F5C4FAF60900F5C4FBF6200EF66E210ED5
:101EF000F76E010EF86E0900F5C45EF50900F5C431
:101F00005FF501EE9AF1310EEE6AE806FDE100019F
:101F100000EF80F0D69AAF90D680000E016E000ED2
:101F2000026E000E036E87EC90F0B490D682000E25
:101F3000016E000E026E000E036E80EC90F0B89001
:101F4000D684000E016E000E026E000E036E79EC58
:101F500090F0120007C501F508C502F509C503F5A3
:101F60000AC504F5130EF66EE50EF76E000EF86E58
:101F700002D8C8EF8FF00500FA6E0900F550FD6E2B
:101F80000900F550FE6E0900F550FF6EFA50120080
:101F9000120008BECEEF8FF0D0EF8FF0D6EF8FF0AB
:101FA00007C507F508C508F5E2EF8FF007C509F585
:101FB00008C50AF5091E0A1E094A0A2A09C507F5B5
:101FC0000AC508F51200026E1C0EF66EE50EF76EDD
:101FD000000EF86E02D8FBEF8FF00500FA6E0900D4
:101FE000F550FD6E0900F550FE6E0900F550FF6ECC
:101FF000FA50025012001200C194D00E016ECA0EA7
:10200000E82EFED7012EFCD7C192D00E016ECA0E6B
:10201000E82EFED7012EFCD7C184C18212000150E8
:102020000302F3C405F5F4C406F501500402F350AD
:10203000062602500302F350062605C501F506C523
:1020400002F51200016E000186510309866F010E30
:10205000826F01C581F0B1A030EF90F032EF90F0C7
:102060002BEF90F0000180511200A194A192A19059
:10207000000E0001846F000E856F000E866F000E4B
:10208000896F000E8C6F1200600E0001AD6F000EA4
:10209000AF6F000EB36F080EB16F000EB06F000E81
:1020A000AC6F1200C186C1920BC507F50CC508F5CF
:1020B0000DC509F50EC50AF5AAEC8FF0C182120014
:1020C00044EC90F006EC8BF035EC90F08AEC8FF05D
:1020D0001200036EC186C1920350E3EC8FF0C182FF
:1020E0001200036EC196C1920350E3EC8FF0C182DF
:1020F000120001C5CBF502C5CCF503C5CDF5120024
:1021000001C5CEF502C5CFF503C5D0F5120001C556
:10211000D1F502C5D2F503C5D3F51200C184120072
:06212000F0004001120076
:04FFFC0069EF8FF02A
:020000040030CA
:08000000FFFFF7FF9FFFFFFF68
:01000900FFF7
:00000001FF
