:04000000FEEFFFF020
:102500000000000EBE6E000EBF6E000EC06E000E0C
:10251000C16E000EC26E000EC36EC668C768C86882
:10252000C9680F0ECA6EF70ECB6E04010069EF0E7C
:10253000086F10691869070E206FF70E286F000EDC
:10254000016F100E096F000E116F000E196F000E53
:10255000216F000E296F000E026F000E0A6F000E31
:10256000126F000E1A6F000E226F000E2A6F0369A1
:102570000B6913691B69070E236F2B6904690C69CA
:1025800014691C690F0E246F2C69000E0201896FFB
:10259000000E886F000E876F000E866F000E04011C
:1025A000056F000E066F000E076F000E0D6F000E18
:1025B0000E6F000E0F6F000E156F000E166F000EDF
:1025C000176F000E256F000E266F000E276F12008A
:1025D000D69AAF90D680000E0A6E000E0B6E000EDB
:1025E0000C6E3CEC13F0B490D682000E0A6E000E16
:1025F0000B6E000E0C6E35EC13F0B890D684000E06
:102600000A6E000E0B6E000E0C6E2EEC13F0120014
:1026100027EC13F0CFA80FEF13F011EF13F014EF26
:1026200013F0C3960AEF13F0C3860AEF13F0FEEF20
:10263000FFF0600E0001AD6F000EAF6F000EB36FC4
:10264000080EB16F000EB06F000EAC6F120019ECE7
:1026500013F081EC12F0E8EC12F012000AC501F55B
:102660000BC502F50CC503F512000AC504F50BC530
:1026700005F50CC506F512000AC507F50BC508F5EA
:0C2680000CC509F51200000108EF13F072
:020000040001F9
:04FFFC0043EF13F0CC
:020000040030CA
:08000000FFFFF7FF9FFFFFFF68
:01000900FFF7
:00000001FF
